:020000040800F2
:10000000005000200DEC0008ADEC0008ADEC00083D
:10001000ADEC0008ADEC0008ADEC000800000000FD
:10002000000000000000000000000000ADEC00082F
:10003000ADEC000800000000ADEC00086F670008A0
:10004000ADEC0008ADEC0008ADEC0008ADEC00082C
:10005000ADEC0008ADEC00087D8700087B87000848
:10006000ADEC00087D670008ADEC0008ADEC0008C1
:10007000ADEC0008ADEC000829C30008ADEC0008A9
:100080007F870008ADEC0008ADEC0008ADEC00087F
:10009000ADEC0008ADEC0008ADEC00087987000875
:1000A000ADEC00080DC10008ADEC00081DC1000852
:1000B00001C10008F1C00008E1C00008B9560008FD
:1000C000BD560008B1560008B5560008ADEC000852
:1000D000ADEC00081DC3000811C3000805C30008EB
:1000E00083670008ADEC0008ADEC000800000000DC
:1000F0000000000000000000000000000000000000
:0C01000000000000000000005FF808F1A3
:100110002DE9F04F97B006F0F9FA9A4A9A4C938974
:100120002060029223B16268821A002AC1F25486CA
:100130000344636006F0EAFA0546944B20601868B1
:10014000934A281A80B21D6010800DF03DFF91493E
:100150000DF092FF904B8C4E1860A3688F4FEB1AF6
:10016000002BC0F2618105F5C335A035B5608C4B1D
:100170008C4D5B68284698478B4B2A681B78F26049
:10018000AA88023B3282062B05D8DFE803F0080C70
:1001900012191E222600A3892B80E3890DE0E38932
:1001A0002B80A38903E0A3895B422B80E3895B4218
:1001B00003E0E3895B422B80A3896B80238A14E0F0
:1001C000A3895B422B80E3890CE0E3892B80A38920
:1001D00008E0A3892B80E38903E0E3895B422B805D
:1001E000A3895B426B80238A5B42AB806F4B1B7899
:1001F000002B5AD1B5F900000DF0EAFE8246B5F9A0
:1002000002000DF0E5FE8146B5F904000DF0E0FEB8
:10021000674E8046316850460DF02EFFF1688346E8
:1002200048460DF029FF014658460DF01DFEB16904
:10023000834640460DF020FF014658460DF014FE5F
:1002400011F036FF7168288050460DF015FF3169B6
:10025000834648460DF010FF014658460DF004FE57
:10026000F169834640460DF007FF014658460DF000
:10027000FBFD11F01DFFB168688050460DF0FCFEDB
:100280007169824648460DF0F7FE014650460DF072
:10029000EBFD316A814640460DF0EEFE01464846D0
:1002A0000DF0E2FD11F004FFA8803A78560726D53C
:1002B000A36863610023029900261944E85AA1F853
:1002C00072613C495852063158520233062BF2D122
:1002D00022F004023A70384A0420138843F00203E3
:1002E00013800CF05FFF354B02221A71DA7830462A
:1002F00022F001024FF4AF61DA7005F033FE304BAB
:100300001B788BB1029A2B88B2F872219B1A029A41
:100310002B80B2F874216B889B1A029A6B80B2F81A
:100320007621AB889B1AAB806169174A00297BD084
:10033000936802F118005B1A22498B4202F11E01F8
:1003400046D8214AD36883F00803D360002335F8E8
:10035000132030F913C00FFA82FEF445C8BFDFF84E
:1003600054C04FEA4306C8BF2CF8132031F906C029
:100370000133F445BCBFDFF854E026F80E20032B10
:10038000E5D151E0A40C0020DC0500208C05002004
:1003900014160020BD378635F81C00200007002009
:1003A0005404002018160020E43100200100002031
:1003B000B8050020F40500208C1C0020C41C00207F
:1003C000600400207F969800000C0140FA05002090
:1003D0000023954D536130F9136031F91320013337
:1003E0003244022692FBF6F2032B25F8022FF2D1BB
:1003F0008E4B0020198805F0B5FD8D4A138823F037
:10040000020313808B4B1B783BB18B4B1B681D0683
:1004100003D506200CF0C6FE04E0884B02221A71B8
:100420000CF0B8FE07F0A8FA3B78DFF8308213F042
:10043000400F7F4D2AD023F04003814A88F80030D6
:100440002B88126843F48063002662622B807D4A09
:100450007D4B4FF4AF6130461980568105F082FD27
:10046000029BA68583F8286740F2DC5323856385C9
:10047000029B93F829372BB998F8003043F0040316
:1004800088F80030012384F82E302BE12B8823F4E8
:100490007F7323F001035B055B0DB3F5806F40F0C4
:1004A0002181029B93F82837002B40F01B81644E7A
:1004B000626A33689B1A642B63D9644B93F82E707D
:1004C00007F0FD03012B5CD10CF038F95D4A604B5D
:1004D000518980B288425881A0EB010338BF03F5EF
:1004E0006163B3F5E16F02DDA3F5616304E013F529
:1004F000E16FB8BF03F56163002BB8BF5B42022B0D
:1005000022DD012F5081504A0BD11388618D0133B8
:100510009BB264318B42138011DD4C4B1B8D643BCD
:100520000CE0032F0BD11388218D013B9BB2643962
:100530008B42138003DA454B5B8D643313800020BC
:10054000118805F00FFD1AE0012F07D1022384F86E
:100550002E303D4B3F48198821850EE0032F0ED1E8
:10056000042384F82E30384B3B481A88238D62854B
:100570009A423CBF354A5385618D06F0E1FE3368EF
:10058000636294F82E70022F02D0042F40F0AA80EC
:10059000626A33689B1A40F6B832934240F2A280F6
:1005A0000CF0CCF8274980B2B1F80AE0284ACEEB2B
:1005B0000003704538BF03F56163B3F5E16F508107
:1005C0008846914602DDA3F5616304E013F5E16F0F
:1005D000B8BF03F56163002BB8BF5B42322B15DD5A
:1005E000022FA8F80A00184B05D1012284F82E200A
:1005F0004FF4AF6206E0042F05D1032284F82E20C9
:100600004FF4C8621A800020198809E0022F27D110
:10061000032384F82E300C4B4FF4C861198000205E
:1006200005F0A0FC5CE000BF140E0020B42F0020F9
:100630008C1C0020EA310020F0060020C41C0020A1
:1006400080310020D407002060300020DC0500202D
:10065000D81F00202B6C0108336C01080007002014
:10066000042F3DD1029A052384F82E30012382F80D
:10067000293782F82837278D2B88608D23F48063F3
:10068000C01B2B8080B20DF0A3FC4FF07C510DF00D
:10069000F3FC0DF0DDFE029BC0B283F82A0738445C
:1006A000A3F82607AE4806F04BFE029BAD48B3F810
:1006B000261706F045FE029BAB4893F82A1706F072
:1006C0003FFE029BA94893F8291706F039FE07F070
:1006D00053F90CF033F880B2A9F80A00A8F80A0020
:1006E00033686362A24B1A780493002A00F09D805D
:1006F000A04E3368002B00F09880306806F0FCF8BC
:10070000002800F092809B4B9B4F186806F0F1F890
:100710000928014601D03F285CD14FF00009CB46A3
:100720003F68DFF894A237B19448DAF800103A46EF
:1007300010F0C4FD20B9D146BBF1000F00D1D34663
:100740008F4B0AF1100A9A45EDD3D846BBF1000F42
:100750001DD0DBF80020D9F800A087490B6812F8FB
:1007600003C01AF803E0E64511D18448BEF1000F3A
:1007700008D12D2B06D85A1C0A602021C15400F83C
:1007800002E004E000F803C001330B60E5E77A4BB8
:1007900019689A4609B1CB4511D07A480AF0CCFFC6
:1007A000C84508D858F8100B0AF0C6FF3068092170
:1007B00006F0A5F8F4E774480AF0BEFF0027DAF85F
:1007C00000309F4299D26D4B3068D95D06F097F8A2
:1007D0000137F4E73B6833B9042841F03A846748AD
:1007E00005F0A0FC21E00C2801F035840A2941F035
:1007F0003B84DFF8889165480AF09EFF4846252132
:1008000010F045FD10B1C9EB000038603B68002BCB
:1008100041F07E845948002130223B6010F0DDFC1D
:10082000049B1B78002B41F01984594B9A68594B53
:10083000C2F3402222862AB993F83220013283F88B
:10084000322008E0002283F8322093F8332022F08F
:10085000010283F83320029B4E4A93F8431794F821
:1008600032308B4282BF92F8333043F0010382F87A
:100870003330474B9A68474BC2F30022A2862AB90D
:1008800093F83620013283F8362008E0002283F8FE
:10089000362093F8332022F0020283F8332094F8B4
:1008A00036303C4A8B4282BF92F8333043F0020329
:1008B00082F83330384B1A68039312F0010F00F0BE
:1008C000988045F207212268A36BD31A8B4240F32C
:1008D0009080304B314E9A6308F014FF3378304FDC
:1008E000032B3B8821D10A2B2AD9002328203370DF
:1008F00005F033FF08F006FF2A4B188808F0ECFEDD
:10090000294B2A491A68D37890FBF3F00130082864
:10091000274BA8BF08201870537980B243430B803F
:1009200013795843234B18800AE00A2B08D8032375
:100930001F4A3370002313701C4A13801D4A138012
:100940003378164A012B39D002D3022B48D050E01D
:10095000164B1A883B889A424BDD012333703DE0E9
:100960003B6C0108636C0108726C01088A6C010819
:10097000EA3100209C2F0020C01C00208E1C00208B
:10098000345D0108A46C0108A96C010816780108FF
:10099000000C0140DC050020F00600204C07002080
:1009A000F406002068200020EC06002092050020BC
:1009B0003C00002094050020445C0108A74B3988C6
:1009C0001B888B4202DD022313700FE0A44B1B88AF
:1009D0000133994202DD002313700AE0082006E08B
:1009E0009E4B3A881B8801339A42B6DC072005F0FB
:1009F000D1FE2B88DA073DD59A4E3278D30709D538
:100A0000994B9A491B8822F0010203EB83035B0098
:100A10004B81327033789F072CD5039B1B6813F4EE
:100A2000007F934B0CD0029A92F8362742B1188877
:100A30000DF0CAFA8F4B002218608F4B1A7015E028
:100A4000029AB2F832071A88029BB3F834371B1A9D
:100A500053435A2293FBF2F318440DF0B9FA0DF008
:100A6000D1FC81B20120A18705F07CFA337823F014
:100A700002033370814F386805F03EFF012840F2D1
:100A80003981386805F035FF064694F83E20522E2D
:100A900002F10102D2B23868794984F83E2038D197
:100AA00091F83F300133DBB2934281F83F3005D0FB
:100AB000012381F83E3081F83F302AE0032B28D112
:100AC000049A012313706F4B18606F4B18606F48C6
:100AD0000AF032FE6E480AF02FFE029BB3F83C2764
:100AE0002B8823EA020343F001032B80039B1B683E
:100AF000180602D506200CF055FB029B93F8283708
:100B000013B964480AF018FE002384F83E3084F8D4
:100B10003F302B88D90700F192805A0703D5304621
:100B200009F0A6FA8BE01F076AD530460BF07CFC73
:100B3000002800F08480584B584E1A68584B594F83
:100B40001A60594B1A68594B1A603368013305D043
:100B500005F0D6FD3368C01A461C01D100234DE0D4
:100B600041F288339842F9D8514B524E1B68B34238
:100B700007D0642293FBF2F34F4A13804F4B0122BC
:100B80001A704F4BDFF868811A684E4BD8F8000096
:100B90001A604D4B411C1B68236404D005F0B0FD66
:100BA000D8F80030C01A494B60641868B04208D0C9
:100BB0000CF054FE0022464B0CF0F0FF0DF0FEF856
:100BC00000E00020434B1860434B1868B04208D047
:100BD0000CF044FE00223E4B0CF0E0FF0DF0EEF86E
:100BE00000E000203D4B002218603D4B1A603D4B59
:100BF0001B88FF2B1CBF3C4A138001233B701EE067
:100C0000DA0603D5304608F0DEFE18E09F0603D56D
:100C1000304607F007FC12E058060DD4190603D53C
:100C2000304607F0B1FA0AE0DA0503D5304609F09C
:100C3000F5FA04E09F0502D5304608F0F5FF2B4B8E
:100C400008225A612B8813F0010359D1012284F83C
:100C5000462084F84730A36452E000BF940500208A
:100C600092050020A42F0020A62F0020D4070020EA
:100C7000A22F00203800002034000020A40500200E
:100C8000DC0500209C2F0020A8050020D96C01085D
:100C9000A96C0108116D0108EC2F0020D02F002055
:100CA000C831002099050020F42F0020D41E002018
:100CB0000C300020FFC99A3BC21E0020980500207E
:100CC000E42F00201C080020DC2F0020043000202E
:100CD00000005940F8070020FC2F002018080020D1
:100CE0001408002014300020F4070020000C0140FC
:100CF000C82F00209B4B08221A61002384F846303D
:100D000094F84720984B2AB1984A00231370984AC8
:100D1000137013E093F8462082B99A6C12B9954A81
:100D200012689A64934BA26C1B689B1A40F6B83207
:100D3000934203D98C4B012283F847202A88D0079D
:100D400000F17C848A4B02F004021978184681B1C4
:100D5000894B8A491B880B814AB1894B1D88894B75
:100D60001D80894B1B8803EB83035B004B810023B1
:100D70000370002A40F062847C4B1A780493002AA6
:100D800000F08A81814B7D4ED3F80080804B814DED
:100D90001F68C6F800807760E8680DF019F97E4991
:100DA0000DF01EFA824628690DF012F97A490DF00D
:100DB00017FA814640460DF00BF977490DF010FA0D
:100DC000804638460DF004F973490DF009FA4246A1
:100DD00003464946504609F06BFB664BD5F828B0F0
:100DE0001F688246BB45E0642765B04610D00021ED
:100DF0000DF0D6FA60B9CBEB070080B20DF0E8F841
:100E000066490DF0EDF9014650460DF0E9F900E0B4
:100E100000206065002150460DF0EAFA002800F03D
:100E20003881029B5E4E93F8540740B10DF0D0F824
:100E3000014670680DF0BEFA002800F02A81CDF856
:100E400000B0236DDFF858910193484698E80600FA
:100E5000534607F0F1F8534B484F1B78002B00F036
:100E6000FE80039B1B68D90440F1A880E8680DF060
:100E7000AFF849490DF0B4F9824628690DF0A8F899
:100E800045490DF0ADF98046D9F80C000DF0A0F8F9
:100E900041490DF0A5F90746D9F810000DF098F872
:100EA0003D490DF09DF9414603463A46504609F04A
:100EB00041FAC9F8000007F017F918B948460121AE
:100EC00007F028F9029B93F85537002B00F0C780F4
:100ED000696870680CF0C6FFD6F800A0D5F80090DD
:100EE0008046494650460CF0BDFF494607465046ED
:100EF0000DF060FA20B138462B490CF0B5FF0746DB
:100F000038462A490DF074FA20B1384626490CF0CB
:100F1000A9FF08E0384626490DF04CFA20B13846C2
:100F200021490CF0A1FF074607F070F8D6F828B069
:100F3000DFF884A0002841F042809AF800300C22AB
:100F400002FB0342C2F858B0D765C2F86080194A64
:100F50000133117893FBF1F201FB12338AF8003070
:100F60007DE000BF000C0140DC0500209905002059
:100F70009805002080310020C21E0020D4070020E8
:100F8000C8250020D2070020E6070020C831002035
:100F9000D41E0020F01F00200024744900007A4471
:100FA00020200020C90700200000B4430000344383
:100FB000000034C3B4050020B5050020DFF8B0827E
:100FC000D8F800000DF004F89D490DF009F98346AA
:100FD000D8F804000CF0FCFF99490DF001F98246A5
:100FE00038680CF0F5FF96490DF0FAF881467868FC
:100FF0000CF0EEFF92490DF0F3F84A4603465146D5
:10100000584609F055FA0DF023FAF860D8F80000B8
:101010000CF0DEFF8A490DF0E3F88246D8F80400B0
:101020000CF0D6FF86490DF0DBF8814638680CF0ED
:10103000CFFF83490DF0D4F8804678680CF0C8FFE4
:101040007F490DF0CDF8424603464946504609F027
:1010500071F97C490DF010F80DF0FAF978813368D8
:101060002B6073686B60B368AB60F368EB603369E7
:101070002B61B36AAB62B38AAB82B369AB61337F76
:101080002B77F38BEB83336A2B6296F8243085F849
:101090002430049A00231370039B1B68DA0440F188
:1010A000CD82694B1B78002B00F0C88294F8474032
:1010B000664D002C40F0C282654B02991B68D5F842
:1010C000D020B1F852179A1A8A42624B40F2B68287
:1010D000B3F84E27604FB3F84C67B3F8503710920F
:1010E0000E933B68C5F8D4307B68C5F8D83005F05E
:1010F00007FB03460290C5F8DC00B86A181A80B2F4
:10110000A5F8E0000CF064FF54490DF069F8796827
:1011100011900CF0B1FF074630460CF059FF5049D2
:101120000DF05EF8014638460CF0A6FF4D4BC5F8B1
:10113000E4001B78002B00F0CC8006F067FF00284D
:1011400000F0988002980CF03FFF0025A846A346C7
:10115000454B12901B780893444BDDF820A01F7874
:101160007B1E0A930A9B9B4580F286800AF101034D
:1011700093FBF7F24FF07E56089C07FB123A03965A
:10118000002306960496013494FBF7F207FB124401
:10119000544532D0DFF8B4C04FF00C0909FB04C24B
:1011A000926D15931046CDF850C013920CF00CFFC1
:1011B000014612980CF056FEDDF850C0139A09FB58
:1011C0000AC90C90D9F85800801A0CF0FDFE0C9951
:1011D000814604980CF050FF4946049006980CF0A4
:1011E0004BFF0C99069003980CF046FF494603907C
:1011F00030460CF041FF0646159B0A9A0133934294
:10120000C1DB069904980CF0EBFF104B0C2404FB97
:101210000A34E16D0CF030FF014640460CF024FE2C
:101220003146804603980CF0DBFF216E0CF024FF62
:10123000014628460CF018FE0BF1010B054691E71C
:101240000024744900002041C9070020DC0500206B
:1012500080310020A40C00202020002000007A44CF
:101260000000C842B7050020B5050020B4050020E5
:10127000D81F00200025A84610980CF0A9FEC849E8
:101280000CF0AEFFC74E014640460CF0F5FE31684B
:101290000CF0EAFD0CF004FB0022C34B10F09AFFA7
:1012A0000CF08CFDC14CC4F8D4000E980CF090FEEC
:1012B000BB490CF095FF014628460CF0DDFE716835
:1012C0000CF0D2FD1199C4F8D8000CF0D5FEC4F88A
:1012D000E400DFF8D8A2DAF8E4B0DAF8E80059461A
:1012E0000CF0C2FDDAF8D430CAF8E8000393AD4B35
:1012F000D8680CF06DFEAE490CF072FF0CF0D0FA1D
:10130000A3A3D3E900230CF01FFB8046894610F00D
:1013100085FE04460D465846A6490CF061FF0CF0C8
:10132000BFFA06460F4610F02DFECDE904014046F7
:10133000494610F027FE804689463046394610F06F
:101340006DFECDE9060103980CF0AAFA90A3D3E94B
:1013500000230CF0F9FA0CF031FD0CF0A1FACDE904
:10136000080110F00FFEDDE9042306460F46204673
:1013700029460CF0E9FADDE9062304460D4640460D
:1013800049460CF0E1FA32463B460CF0DDFA0246E3
:101390000B46204629460CF025F910F0C5FE814B7E
:1013A0000446D8680D460CF013FE81490CF018FF76
:1013B0000CF076FA76A3D3E900230CF0C5FA0646C2
:1013C0000F4610F02BFECDE90A01294620460CF00D
:1013D000F5FC0CF065FACDE90C0110F01FFECDE92B
:1013E0000E01DDE9080110F019FE04460D463046F5
:1013F000394610F0C7FD6B4B8046186989460CF0E2
:10140000E7FD6B490CF0ECFE0CF04AFA60A3D3E95F
:1014100000230CF099FADDE9062306460F46204624
:1014200029460CF091FA42464B460CF08DFA0CF02E
:10143000C5FC0CF035FADDE90E2304460D46DDE966
:101440000A010CF081FA02460B46DDE904010CF0BA
:10145000C7F80CF0B3FC0CF023FA02460B4620460A
:10146000294610F0B5FE02460B46304639460CF0D0
:10147000B9F80CF0A3FC0CF013FA47A3D3E900234E
:101480000CF062FA00224C4B0CF0ACF80022464BF8
:1014900010F0A0FE40A3D3E9002304460D46DDE989
:1014A0000C010CF051FA0CF089FC41490CF0E4FD00
:1014B0000CF0A8FF0646414F0022414BF860294638
:1014C00020460CF08DF80CF079FC39490CF0D4FD75
:1014D0000CF098FF3B49386196FBF1F282EAE27327
:1014E000A3EBE27301FB1262002AB8BF5242002E46
:1014F000BB82B4BFFF2301233B7790FBF1F3BA61BA
:1015000083EAE372A2EBE37201FB1303002BB8BF83
:101510005B4200283B62B4BFFF23012387F82430DD
:10152000029BFA83BB62039B274A3B60DAF8D83000
:101530003C467B601388C7F808B001339BB2138028
:10154000BB8506F0D1FD18B93846022106F0E2FD50
:101550001E4E1F4D30680CF03BFD15490CF040FE4F
:10156000814670680CF034FD11490CF039FE80465C
:1015700028680CF02DFD0E490CF032FE0746686815
:101580000CF026FD0A490CF02BFE23E0AFF300809F
:10159000399D52A246DF913FF8C1631ADCA54C4049
:1015A0000000C8422020002000807640DC0500209A
:1015B0000024744932A5C24A00E08040640C002037
:1015C0000080664040420F00E0310020D81F00201C
:1015D000D40700203A4603464146484608F068FFD3
:1015E0000CF036FFE86030680CF0F2FC9E490CF01D
:1015F000F7FD804670680CF0EBFC9B490CF0F0FDA9
:101600000746E0680CF0E4FC97490CF0E9FD06465B
:1016100020690CF0DDFC94490CF0E2FD32460346F3
:101620003946404608F086FE90490CF025FD0CF046
:101630000FFF8F4B68811B68CAF8D0308C4D8D4AE4
:1016400029681368994209D92B680E3313600BF08F
:1016500075F8894B01225881884B1A70884C894A49
:1016600094F83330107883F00203C3F340038649C3
:1016700098420B70854EDFF838A2854F8946904618
:1016800000F0DE808349CA6882F01002CA6094F8D4
:10169000EC2012B1032A40F0A6807F4A1078114650
:1016A000B0B39AF800B0BBF1000F40F0C58083B32F
:1016B0002B68D4F8F000DFF8B8E11B1AB3F57A7F95
:1016C0006F490AD2754A029113780133137008F0FA
:1016D000ABFF0299C1F8F0B0AEE040F2DB5CDEF89F
:1016E00000301B1A634501D8002383E0DEF8003088
:1016F0001B1A40F2DC50834240F29E80684B82F815
:1017000000B00222C1F8F0B01A710BF043FD93E073
:101710004BB9D4F8F030002B40F08E802A68584B3B
:10172000C3F8F02088E02B68D4F8F020DFF840C13F
:101730009B1AB3F57A7FDFF848E131D29EF8F410B6
:10174000032908D1386810F008001EBF308880F0E7
:101750000400C0F3800000EB80000329C2B203D173
:101760003868030706D402E0052903D1386800F081
:10177000010000E00020002902EB400314BF00201C
:101780000320184400F0FF0084F8F40010B10BF0BF
:1017900009FDA9E7424B02221A710BF0FBFCA3E7FB
:1017A00040F2DB5BDCF800309B1A5B459CD9DCF82F
:1017B00000309B1A40F2DC5293423DD93B68CEF890
:1017C000F0009B0548BF374B4FF0070042BF1A8817
:1017D000354BA3F83A2701230B70304B00221A70C7
:1017E0000BF0E0FC28E0012A26D133B9D4F8F03020
:1017F00013BB2B68C4F8F0301EE02A68D4F8F01050
:10180000521AB2F57A7F10D2274A92F83037013B4C
:10181000DBB282F830375BB2143303DAEC2382F8A0
:10182000303761E705F03AFE5EE7114B1B685B1A43
:10183000B3F5FA6F3FF658AF99F8003088F80030EA
:1018400094F8EC100E4A022994F8333032D113F098
:10185000010340F0E281032182F8EC10C2F8F83075
:10186000124A1360D9E100BF0024744900002041EE
:1018700080310020B0050020D81F00209F050020E7
:10188000DC0500209B0500209D0500208C1C00200D
:10189000F0060020000C0140A005002023300020AD
:1018A000C41C0020AC050020A40C0020EC1F00206C
:1018B000EA310020A84803F0010390F800E083F02B
:1018C0000103DFF8F8929E4589F80030804600F069
:1018D000A481DFF8ECE2DEF80C0080F01000CEF816
:1018E0000C0011B1032940F02B819C48027801467D
:1018F000002A00F09980002B00F097802F68D4F820
:10190000F830FB1AB3F57A7F80F08381012A944F77
:1019100032D13A780723B2FBF3F3C3EBC303D31AF4
:10192000DBB2904A062B137045D0012B01D1032363
:1019300018E083B903708C4B02221A710BF02AFC59
:101940008A4BB3F826278A4B1A808A4A137843F0C9
:10195000040313705EE0022B01D1042302E0042B88
:1019600002D10823037055E0052B01D1092350E073
:10197000032B4DD001234CE0032A01D101200CE0C0
:10198000042A01D1082008E0082A02D14FF480502F
:1019900003E0092A04D14FF400700AF08BFE39E00D
:1019A000052A13D13B786F4A03F00303032B13700E
:1019B0002ED0022B05D105F071FD6F4A6F4BDA6016
:1019C00028E00BB9062324E0072322E0062A0FD1E2
:1019D0003B78644A03F00703072B13701FBF0122F3
:1019E000023302FA03F3614A18BFA2F83C370FE052
:1019F000072A0FD138780C23B0FBF3F203FB120354
:101A0000584ADBB20B2B13701CBF584A82F8F231D4
:101A100005230B704FF0000B072087F800B00BF088
:101A2000C1FBC4F8F8B0F4E04BB9D4F8F830002B9F
:101A300040F0EF802A68524BC3F8F820E9E02A68AA
:101A4000D4F8F810521AB2F57A7F5CD2338803F0DA
:101A500004039BB2002B56D1494AC2F8F830494BD7
:101A60001A789E46002A40F0D480474BB3F90020F4
:101A70003E4B93F840379A4231DB44483F688346F7
:101A800017F4006F01684268B0F808C0404B1CBFF3
:101A90004048414F19605A601CBF83E881004FF4F1
:101AA000ED70A3F808C018BF188101238EF800302C
:101AB0003A4B00271F703A4B3A481F703A4B1F6051
:101AC00000970197002306F0B7FA2B68009701935F
:101AD00036489BE80600002306F0AEFA99E00120A4
:101AE0000AF00AFE002800F09480314A0A231068A8
:101AF000516890FBF3F091FBF3F12E4BB3F900200A
:101B000007F0C0FA85E02B685B1AB3F5FA6F40F274
:101B1000808033885B077CD41A490B78002B78D0FF
:101B20001F4A1378002B74D1234B1B78002B70D1E4
:101B30000B70012111701C4AC4F8F830136068E082
:101B4000012966D1002B3DD1D2F8F830002B60D1AD
:101B50002B68C2F8F8305CE09C050020A00500204E
:101B60002330002024300020C41C0020A40C0020BE
:101B7000B42F0020000700200400FA0500ED00E06B
:101B8000DC050020C9070020F4070020D40700204E
:101B9000D81F00203F52D3022A3F8200E81F0020B6
:101BA000E91F0020F01F0020EC1F00202020002053
:101BB0000807002004070020CA0700209E05002017
:101BC000000C01402968D2F8F800091AB1F57A7FB3
:101BD00013D2644A92F830370133DBB282F83037DF
:101BE0005BB2142B03DD142382F8303701E005F0DB
:101BF00055FC0023C4F8F8300BE05B4B1B681B1A44
:101C0000B3F5FA6F81BF0023C2F8F830022382F8DF
:101C1000EC3099F8003088F80030338823F47E7374
:101C20001B051B0D2BBB514F3A78BAB194F84720D6
:101C3000002A00F0EB814E4A13604E4A13604E4A70
:101C40001380E3E141F287312A68D21A8A4210D91F
:101C5000454A1268D31A8B4200F2E381474B1D7844
:101C60003DB928460AF048FD18B101233B70444BAA
:101C70001D6033885F0737D5424B1A7822B13F4A3F
:101C80000121117000221A703F4B197851B93B4B5A
:101C90001B781BB9394B1B78B3B925E03B4B1B783C
:101CA000002BF7D03A4B3B4A1B88D3603A4B1B883A
:101CB00013813A4B1B8803EB83035B005381334B47
:101CC00000221A700029E5D0354D2B7863B10AF057
:101CD0008DFE0AF0E7FD334B0020198804F042F92D
:101CE0000AF0B8FE00232B7040F6064331880B4003
:101CF000002B71D11B4A92F82837012B6CD111F0BF
:101D0000010F29481D4901D00B700BE00B783BB146
:101D1000204B92F83E57DB68AB4234BF00230123CF
:101D200003F0010303700378002B41D03388DD07F3
:101D300001D40AF08FFE1A4D2B7853B10AF056FEEB
:101D40000AF0B0FD174B0020198804F00BF90023AE
:101D50002B7094F8EC30032B3ED0144B012283F807
:101D6000EC2039E0A40C002080310020E91F002085
:101D7000C8310020D41E0020F4070020C90700202D
:101D8000EC1F00209A050020A105002099050020E5
:101D9000C8250020D4070020C21E0020E60700202E
:101DA0009F05002060300020CA070020DC050020CD
:101DB00084F8EC300B787BB1B34BB449B3F90830FD
:101DC000B1F908105B1A012B06DC9AF8000018B96B
:101DD000B2F8261704F0C6F8AD4D2B68180601D5E9
:101DE00008F0ACFC2B68990540F1D380A94AAA4CB5
:101DF0001368D4F8FC1006925B1AA84991F83907C9
:101E00000291834240F2C580A54B00211E683046F6
:101E10000CF0D0FA10B1A34B00221A70DFF8B48294
:101E200098F800300393002B40F0AF80DFF8A8B2A1
:101E3000304659460CF0DCFA002800F0A6809A4B98
:101E4000B3F900000CF0C4F8314607460CF00AF86C
:101E500004900CF0D7FA029B002893F83837B8BFEB
:101E6000404298428D4940F38A808E4A91F837A7C4
:101E70001378DFF86892534552D2384631460393BF
:101E80000CF0A2FA039BA8B118460CF09DF8394655
:101E9000804630460BF0E6FF064650460CF094F8BC
:101EA00031460246404607F039F8014638460BF005
:101EB000DBFF0FE018460CF087F8064650460CF0A2
:101EC00083F804990246304607F028F80146384660
:101ED0000BF0C8FF029BC4F80001D4F80001B3F86E
:101EE00032670CF08FFA029BB3F834379B1B5843D0
:101EF0005A2390FBF3F030440CF06AF80CF082FAAD
:101F00006A4B81B21B88A9F800108B4202D00120D5
:101F100004F028F8634B634A1B780133137029E0FF
:101F200028D130460492B1F8327702910CF06AFA67
:101F300002995B4EB1F83437DB1B58435A2390FBB0
:101F4000F3F038440CF044F80CF082FA81B201202E
:101F5000A9F8001004F006F830680CF053FA524B60
:101F6000049A18809DF80C30C6F800B01370012355
:101F700088F80030B9F800304C4A138005E001239E
:101F800088F80030464BC3F800B0069B1B68C4F8C5
:101F9000FC302B681A0701D501F00EFA444B1B7870
:101FA000002B40F0F0802B689B0640F1EC803B4B0F
:101FB000B3F84E0117B0BDE8F04F00F0F1B83D495D
:101FC0009AF800900B78994507D03B4A0133107876
:101FD00093FBF0F200FB12330B7006F017F80028A9
:101FE0007FF43DA80C2303FB0943C3F858B0DF6519
:101FF000C3F86080304B09F101091A7899FBF2F3BC
:1020000002FB13998AF80090FFF729B8DFF8D08017
:10201000D8F80030002B7FF415AE2B68C8F80030DC
:1020200027E600200AF068FB00283FF417AE234A99
:102030000023106851683B70C8F800300A2390FBF9
:10204000F3F091FBF3F11E4BB3F9002007F01AF8FF
:102050000FE60C2804D11B4809F06EFB1A480EE06D
:102060007F2942D1FEF749BB0D293EF4C2AB7F293F
:1020700038D1164A013B002115483B60D15409F084
:102080005BFBFEF73ABB00BFD4070020D81F00203F
:10209000F006002080310020DC050020A40C002088
:1020A0003800002074300020AC050020AE05002070
:1020B000EA310020B6050020B40500200807002002
:1020C00004070020AE6C0108A96C01088E1C0020DA
:1020D000D56C010834000020000080BF763000205D
:1020E000EC1F00202F2B3EF608ABA1F12002D2B24C
:1020F0005E2A3EF602AB13B920293EF4FEAA5A1C12
:102100003A60224A3068D15404F0F9FBFEF7F5BA80
:102110005A1E19F80210202902D11346FEF777BB88
:102120001A4A00213B60D154194BDFF87090D3F864
:102130000080D9F80010DFF854A0084603910FF092
:10214000B4F88346039950465A460FF0B7F8114940
:1021500028B91AF80B2042445278500704D009F1EC
:1021600010098945E5D308E0894506D20BF1010045
:10217000D9F80C305044984702E0074809F0DCFADF
:102180000023FEF747BB17B0BDE8F08F8E1C002080
:1021900050000020345D0108B96C0108445C01085E
:1021A0002DE9F04FAE4C95B02378AE4F002B00F0E8
:1021B0009B813A686368D31A7C2B40F29581237A1D
:1021C000626001332372242528460AF07DFFA64B66
:1021D000013518880BF0FCFE014600200CF000F8D9
:1021E000A2490BF049FF0CF00DF9EDB200B20AF074
:1021F00059FF272DE8D130200AF066FF00200AF0B1
:1022000051FF0AF059FF257A15F003051FD1944BB1
:102210005A6841F288339A420BD910200AF054FFD1
:1022200028460AF03FFF21200AF04EFF28460AF018
:1022300039FF14200AF048FF00200AF033FF1C2069
:102240000AF042FF00200AF02DFF0AF035FF257A40
:1022500015F0070540F0258102200AF035FF2846D9
:102260000AF020FF03200AF02FFF814B1B7859074B
:102270005DBF7B4B0520DB68284658BF9B89784DA6
:102280005CBFB3FBF0F000B20AF00CFF2369DA0781
:102290005BD5DFF8F491AA8A99F800304FF0640812
:1022A00008FB02325B00B2FBF3F3EE8A0620360134
:1022B000B6B246EA0326B6B2C3F303231E430AF0BE
:1022C00003FF30B20AF0EEFEEB8A99F800100133FA
:1022D0009BB293FBF1F201FB1233EB82AB699B7B68
:1022E000012B05D139200AF0EFFEB5F9140019E0F1
:1022F000AD8A6E235D43152695FBF6F53A20AEB206
:102300000AF0E2FEB6FBF8F528B208FB15650AF004
:10231000C9FE3B200AF0D8FEA8B2451D0A2095FB55
:10232000F0F000B20AF0BEFE28200AF0CDFE002038
:102330000AF0B8FE04200AF0C7FEE368988910B1DD
:1023400007F0B0F900B20AF0ADFEE369444E9B0617
:1023500040F19C8096F820309D071BD511200AF093
:10236000B3FE708C4FF4F3656843424B90FBF3F07F
:1023700000B20AF097FE19200AF0A6FE708C4543C1
:10238000642095FBF0F595FBF0F300FB135000B2D1
:102390000AF088FE94F82030A58C13F0020F08BFD5
:1023A000002501200AF090FE28B20AF07BFE0920E9
:1023B0000AF08AFE00200AF075FE2F4B94F8265092
:1023C0001A88B2F5967F0AD9254B1B7A03F00F03C2
:1023D000072B04D842F20F75954228BF15460520F9
:1023E0000AF072FEA3695B7B0BB928B216E0A5F177
:1023F00020000BF0EDFD21490BF0F2FE0021054617
:102400000BF0D8FF10B94FF07C5101E04FF03F4185
:1024100028460BF029FD0BF0F5FF00B20AF042FE52
:1024200094F820200E4B900703D493F82720012A1C
:1024300004D1012384F8273011482EE09D69114909
:1024400068680BF019FE0BF0DDFF0E490690A868D6
:102450000BF012FE0BF0D6FF079006A81DE000BFA0
:10246000E0060020803100200200002000007A44B5
:10247000E5310020A08601003E0000206666E63FB0
:10248000080700208096184B3C000020AC4A06ABA1
:1024900092E8030083E8030018460AF025FE0AF0DC
:1024A0000BFE237A282B1FD1A64B00221A723B6801
:1024B0004FF47A70B3FBF0F83C2617200AF004FEC4
:1024C000B8FBF6F5B5FBF6F006FB1050000200B2C3
:1024D0000AF0E8FD18200AF0F7FD06FB158000B2AF
:1024E0000AF0E0FD0AF0E8FD94F83030954D002B3D
:1024F00000F0488104F00AF96B6B934AC31A9342C7
:10250000064640F2B780002385F83A3085F83C3023
:10251000AB8ADAB21B0A85F8562085F8573085F861
:102520004C2085F84D306A6E3B689A1AAB6ED97BA9
:102530004FF47A734B439A420DD3844B1B686B66FE
:1025400095F86C30013B012B9FBF102385F83A3082
:10255000022385F83C30002394F8201084F854308E
:1025600084F8553084F8583084F8593094F826307F
:102570008907744A84F8873003D42D2382F8883081
:1025800077E0D4F828907248042B99FBF0FADFF832
:10259000CCC18CBF3323322382F888300CFB0A92E3
:1025A0004FF0060E0EFB02F26A4BE56A92FBF3F166
:1025B00095FBF0F003FB1122642792FBF7F20CFB72
:1025C000005C0EFB0CFE84F87920121284F87A204D
:1025D0009EFBF3F203FB12E393FBF7F30AEB8A0A89
:1025E0004FFA81F80AEB8A0A08EB8A0189B284F86B
:1025F000771000EB8000090A84F8781000EB800067
:1026000051B201EB800292B284F87C20120A84F865
:102610007D2084F87E30628C1B1284F87F30242366
:1026200053434FF47A7293FBF2F384F87430C3F39C
:10263000072384F87530B4F89A300A2284F8803081
:102640001B0A84F88130A38C4FEAD979B3FBF2F3EB
:1026500003F5FA739BB284F882301B0A84F8833046
:10266000B4F89C30ED0F84F8769084F87B5084F8B1
:102670008930666394F89E80324DB8F1000F0DD119
:10268000D5F8A40004F038F9012807D90228324F00
:1026900000F04A860AF0F8FC0123BB70D4F8A85079
:1026A000284B002D6ED093F89E203AB140F6B731FA
:1026B000D3F8B020B21A8A4216D863E0012283F818
:1026C0009E20D3F8B420D3F8A4001278022A04D8AC
:1026D000043002210AF0C2FC02E0022104F000F9F9
:1026E000002384F8B8304BE093F8AC20AAB9C3F8C3
:1026F000A82083F89E20D3F8B420D3F8A400127841
:10270000022A04D8043001210AF0A8FC02E00121C9
:1027100004F0E6F80AF0B8FC32E0013AD2B283F8ED
:10272000AC2093F8B81093F8B900CAB901304A1C2C
:1027300083F8B90083F8B820D3F8A4001EE000BFE6
:1027400040590108E00600203F0D030080310020C1
:102750008096980040420F0002000020806967FFC9
:102760002A4612F8017B01307D18394683F8B900FA
:10277000D3F8A40083F8B850C3F8A82004F0BFF839
:10278000C4F8B06094F8BA30B74DF3B1D5F8BC30A6
:10279000DBB1D5F8C030C3B1C5F8C4301B68B34A4B
:1027A000C5F8C830D5F8CC301344187A01F06CFB6A
:1027B000D5F8C430987908F081FFD5F8CC300133D2
:1027C000092B88BF0023C5F8CC30A94D94F8D02040
:1027D0002E68A54B002A00F05381D3F8D420002A9C
:1027E00000F04E8193F8D830013B012B00F2488174
:1027F000D4F8D4009C4F04F07FF8E0B1D7F8D400AF
:1028000004F077F897F8D93080467E2BD5F8009001
:102810000ED102231B2887F8D83009D1D7F8D4006D
:1028200004F06AF820B90123C7F8DC9087F8E0309B
:1028300084F8D980DCE7D7F8DC202B689B1A41F6B6
:10284000583293421DD9032387F8D83018E1894ABA
:1028500032F8130010B903464FF403600133B0F5AA
:10286000C06FDBB25AD01DD9B0F5006F5CD02FD944
:10287000B0F5036F36D184F8E130E3697A4F9906F9
:1028800037D494F8E01094F8E130002900F0F68095
:102890002A68921B012ADAD984F8E130002384F8EF
:1028A000E030EDE0B0F5007F38D006D8B0F5807F9D
:1028B00068D0B0F5887F65D0E7E7B0F5806F74D059
:1028C000B0F5826F00F09080B0F5047FDDD11CE0A0
:1028D000B0F5E26F65D0B0F5E46F62D0B0F5E06FAF
:1028E000D3D15EE0B0F5046F5BD0B0F5026FCCD110
:1028F000A5E097F820309A07C3D5798C24234B4361
:102900006421123393FBF1F1A8E084F8E1302369EC
:10291000554FDB07B5D5BB8A0A219EE084F8E1302C
:10292000236913F0400F32E0E1694F4A880684F8CA
:10293000E130A6D592F820108907A2D5DB0710D583
:10294000D36A192283EAE371A1EBE37101EB510130
:10295000B1FBF2F1002BACBF41F0004141F040412E
:102960000DE0936A192283EAE371A1EBE37101EBB5
:102970005101B1FBF2F1002BB8BF41F080414FF49F
:1029800000604BE084F8E130E36913F0040F3FF49A
:1029900078AF00210AF02EFB334B002283F8E020B1
:1029A0006FE784F8E130002138E084F8E13094F8F2
:1029B000E2302D4A0133DBB2032B88BF012382F8BA
:1029C000E23042F2107394F8E21059432A4B1B781C
:1029D000DF0748BF0131980748BF02315A0748BF97
:1029E00004314FF4806019E0E169DFF87C8011F078
:1029F000200784F8E13017D098F8202012F0020F59
:102A000014BF4FF47A71002112F0010F14BF4FF47C
:102A1000FA6300230B4494F8261019440AF0EAFAEA
:102A2000002384F8E0302CE7D8F810301B077FF53E
:102A300028AF39460AF0DEFA88F8E07021E784F81A
:102A4000E130E369084F99067FF51BAF97F8203016
:102A50009A077FF516AFBB8C642159430AF0CAFA76
:102A6000002387F8E0300CE7E00600204059010819
:102A700080310020346D0108E531002084F8E13018
:102A800094F8E320814B002A5CD02968D3F8E42035
:102A90008A1AC72A56D993F8E820C3F8E41093F8A5
:102AA000E910013283F8E820794E93F8EA2029B939
:102AB0007AB93270D3F8EC00232141E04AB9327878
:102AC0003AB9D3F8EC00582103F019FF0123337011
:102AD00038E03378B3B3D4F800310A26A4F8F230E2
:102AE000B4F8FC300027A4F80431B4F8FE304420D8
:102AF000B3FBF6F384F8F070A4F806310AF068FA34
:102B00000121B4F9F2000AF045FA48200AF060FA0F
:102B10000121B4F904010AF03DFA41200AF058FA03
:102B20000121B4F906010AF035FA2A200AF050FA18
:102B300094F8F00039460AF02DFA3146D4F8EC004A
:102B400003F0DDFE94F80821504B002A00F0978135
:102B50002968D3F80C218A1A092A40F2908193F847
:102B60001021C3F80C1193F8E910013283F81021F9
:102B700093F8EA20474B09B932B903E022B91A7831
:102B800012B901221A707AE11B78002B00F07781CC
:102B900094F8113105220133DBB2B3FBF2F202EB00
:102BA000820284F811319B1A13F0FF031FD1012216
:102BB0008DF81C208DF81D208DF81E208DF81F200B
:102BC0000327354A06938DF8207006AE03CE1772A0
:102BD000106051600920322102F8013C08F04AFCE3
:102BE00008F02FFC294BA3F812010AF0AFF994F872
:102BF00011310A21B3FBF1F201FB123212F0FF0F87
:102C000032D1642B30D8002306930123ADF81C3059
:102C1000ADF81E3002238DF83030204B08AE03F1A2
:102C20001007324618685968083303C2BB4216467B
:102C3000F7D1194B06AE0CAF324603CABA42186040
:102C40005960164603F10803F6D11278DC211A7098
:102C5000134B16221920DA7108F00CFC08F0F1FB76
:102C6000A4F812010AF072F994F811111E23B1FBB5
:102C7000F3F203FB121313F0FF0F40F09380034BAA
:102C8000B3F8143173B19BB20DE000BFE006002031
:102C9000E7310020E63100205C2D0020706D010836
:102CA000542D00200823D4F8F4100A2202FB01F06E
:102CB000D4F8F81000264A43099200220027ADF804
:102CC0002C20ADF82E20ADF832208DF8342006AA45
:102CD000CDE906671646B4F9FC104FF47A7E0EFB78
:102CE00001F18DF83530774B08900A91ADF830E05E
:102CF0000DF13008174603CF4745186059603A4632
:102D000003F10803F6D1386818211860BA886E4FAD
:102D10009A801E20F97108F0ADFB08F092FBA4F830
:102D200012010AF013F9D4F8F4200A2303FB02FB82
:102D3000D4F8F820B4F9FC9003FB02FAD4F8180197
:102D40004FF47A7303FB09F90BF082FB002306931F
:102D5000ADF82C30ADF82E30ADF830303346CDF82C
:102D60001CB0CDF820A0CDF82490CDF82890ADF877
:102D7000320007F108021E4603CE4645106051603E
:102D8000334602F10802F6D1306821231060682131
:102D90001C20FB7108F06EFB08F053FBA4F8120135
:102DA0000AF0D4F894F811111E23B1FBF3F203FBDF
:102DB0001213DBB20F2B454E61D1D6F818010BF080
:102DC00021FB1FFA80F8B6F9FC000BF001F906AA06
:102DD00016463F4B0027069307930023ADF82A3091
:102DE000384B08900997ADF828800DF1280C9646CD
:102DF000BEE80300E64518605960724603F1080317
:102E0000F5D1DEF80000DFF8C080186014204A23F6
:102E1000014688F8073008F02DFB08F012FBA4F8F3
:102E200012010AF093F8D4F82431D4F82021099340
:102E30003346D4F81C1100200DF1500E0892069074
:102E400007910A970B974EF8207D08F108021E465D
:102E500003CE764510605160334602F10802F6D188
:102E600030681E23106027211C2088F8073008F0E6
:102E700001FB08F0E6FAA4F812010AF067F894F8EA
:102E80002821124B002A00F0FD802968D3F82C215C
:102E90008A1A092A40F2F68093F83021C3F82C11DF
:102EA00093F8E910013283F8302193F8EA20094BB6
:102EB00009B98AB903E07AB91A786AB901221A7095
:102EC000E0E000BF5C2D0020542D0020E006002033
:102ED00000002041E83100201B78002B00F0D28058
:102EE00094F831311E210133DBB2B3FBF1F284F8E7
:102EF000313101FB123313F0FF03964E59D1964F37
:102F000086F832317968386806AB03C306A809F041
:102F100021FF09F00BFF09F057FF09F007FF09F047
:102F2000B1FF09F003FF09F061FF09F0FFFE312056
:102F300009F0F0FE09F0FAFEB6F8142107F10801D5
:102F400006A804F0E7F906A809F004FF09F0EEFE70
:102F5000D6F8346130460BF07BFA80495FFA80F88E
:102F600030460BF089F806460A2000FB08F00BF00B
:102F70002FF8014630460AF075FF0BF069FA07F1A9
:102F80000E01C3B2424606A804F0C4F906A809F02F
:102F9000E1FE09F0CBFE09F0C1FF09F0C7FE09F020
:102FA000BDFF09F0C3FE09F0C1FE09F0E7FE09F01C
:102FB00093FE94F831111E23B1FBF3F203FB1213BD
:102FC000DBB20F2BDFF88C815CD1654E06AB7168EC
:102FD0003068002703C306A888F8327109F0BAFEEA
:102FE00009F0A4FE09F0F0FE09F0A0FE412009F06E
:102FF00091FE09F09BFE09F045FF09F097FE09F0EC
:10300000F5FE09F093FED8F838010BF021FA06F12D
:10301000080182B23B4606A804F07CF906A809F034
:1030200099FE09F083FED8F818010BF011FA3B461F
:1030300082B206F1080106A804F06CF906A809F0AE
:1030400089FE09F073FE06F11201D8F83C2106A8AA
:1030500004F060F906A809F07DFE09F067FE06F1AC
:1030600008013A463B4606A804F054F906A809F0C0
:1030700071FE09F05BFE452009F04CFE09F07EFE72
:1030800009F02AFE94F84031DFF8C880002B00F0E8
:10309000AD80D8F84431002B00F0A8802F68D8F814
:1030A0004831FB1A632B40F2A1802E49D8F8180151
:1030B0000AF0E2FF0BF0CCF986B2412009F0F4FDF2
:1030C000002009F0E8FD002009F0E5FD30460AF097
:1030D0007FFF22490BF084F80BF0BAF980B209F0B7
:1030E000DAFD09F0ADFD98F84C6116F001063BD011
:1030F000D8F81C309B064BD5B8F914314720052B66
:10310000B4BF0226032609F0CFFDD4F8F4004FF037
:103110000A0808FB00F009F0ADFDD4F8F80008FB40
:1031200000F009F0A7FD0F49D4F838010AF0A4FF18
:103130000BF08EF9C0B209F08DFDB4F9FC306420BB
:10314000584309F097FDB4F9140146EA8000C0B273
:103150001AE000BFE006002052590108000020419B
:103160006A5901080000C842532009F09DFD30460D
:1031700009F091FD304609F08EFD304609F06AFDF8
:10318000304609F067FD012009F064FD09F058FDA3
:1031900094F84C61DFF81092DEB94F2009F084FDFD
:1031A000D9F8F4004FF00A0808FB00F009F062FDBE
:1031B000D9F8F80008FB00F009F05CFD304609F092
:1031C00059FD012009F046FD012009F043FD09F0F9
:1031D00037FD94F84C310A210133DBB2B3FBF1F235
:1031E00001FB1233C4F8487184F84C3194F84D3126
:1031F0006D4F002B00F0D5802A68D7F85031D31AD4
:10320000C72B40F2CE8097F8543197F855E101333F
:1032100087F8543197F85631C7F85021734500F0BC
:10322000C080282505FB0E7506AE05F5AC750FCDE3
:103230000FC60FCD0FC695E80300D7F878240EF11E
:10324000010E9EFBF2F386E8030002FB13EE0A9BDD
:10325000002405930C9B87F855E187F85741DDF86A
:103260001890DDF81C80DDF820A0BDF824609DF8E2
:103270002C50BDF82EB003939DF834304B499DF887
:103280003E20049306A8BDF83C300E9F04F042F89F
:1032900006A809F0C1FC6DB232B26A434449059BED
:1032A00006A804F037F806A809F0B6FC9DF910301E
:1032B0000FFA8BF25A433E49039B06A804F02AF802
:1032C00006A809F0A9FC50460BF0C2F885B24846A2
:1032D0000BF0BEF880B2009040460BF0B9F880B217
:1032E0000190344906A83A462B4604F013F806A884
:1032F00009F092FC2C4D661C95F85731E4B2A342BC
:1033000008D92C4494F88014D5F87C0403F0F7FA1B
:103310003446EFE7D5F87C040A2103F0F0FAB5F85B
:10332000B035A5F880353CE0BB782BB1C5F8A0607E
:1033300087F80280FFF7B2B9D5F8A030F31AB3F5D9
:103340007A6FFFF4ABA90123D5F8A400BB7003F09A
:10335000D0FA0746D5F8A40003F0CBFA7F067FF435
:103360009DA98A2803D08E280DD0FFF797B9EB6965
:1033700098067FF593A995F89E30002B7FF48EA9CF
:1033800005F16D0306E095F89E30002B7FF486A9C9
:1033900005F13803C5F8A8302D2385F8AC30FFF7C8
:1033A0007DB915B0BDE8F08FE0060020546D01082E
:1033B0005B6D0108646D01082DE9F04F9D4C87B0ED
:1033C0002368C3B99C4D2B78013B042B00F2428546
:1033D000DFE813F00D040D040D040705E804954B18
:1033E000186803F086FA954B05461B681B7843B1B5
:1033F000012B00F06E81206803F07EFA0028EED1E8
:10340000E0E724288E4E0CD006D80A2800F0DB8096
:103410000D2800F0D8804AE12A2806D02C2804D0B4
:1034200045E133707370B370E5E7864B717896F8B9
:1034300000800020824A5854B8F1000F1DD119783D
:1034400082F80380472918D1597850290FD19978EB
:10345000472940F0E384D978472940F0DF8419797F
:10346000412940F0DB840121D17000F0D7BC4E2906
:1034700003D19978472900F0C584F278704F022A69
:103480003AD0032A4FD0012A40F08C80A8F10202E2
:10349000072A00F28780DFE802F004080F131A25DC
:1034A000852A07F0D0FE70607CE01B78532B79D121
:1034B00073685B42736075E007F0C5FEB06071E051
:1034C0001B78572B6ED1B3685B42B3606AE01B7800
:1034D000302B5D4B1A788CBF42F0020222F00202C0
:1034E0001A705FE0002007F00DFF30735AE00020F3
:1034F00007F008FFF08155E0B8F1070F07D0B8F1E9
:10350000080F4FD1012007F0FDFE78824AE001202C
:1035100007F0F8FE41F2184358434FF47A73B0FBBA
:10352000F3F038823EE0B8F1020F08D0B8F1030F93
:103530000AD1002007F0E6FE444B187032E000206C
:1035400007F0E0FE38752DE02CD9A8F104029210A6
:103550003B7D0132D2B2013B02EB8303DBB2102B85
:1035600020D8A8F10301C2F1010201EB8202D2B21C
:10357000012A0BD0042A11D100205F1E07F0C2FEE1
:10358000334B0022D855334BDA5507E0324A5F1EE1
:103590000020D35507F0B6FE304BD855304A13689B
:1035A00001331360264B00222A2D727018BF9A78BF
:1035B00008F101080CBF0122554086F800800CBFBD
:1035C0005A759D7017E7737D002B6AD0254B13F851
:1035D000012D25495A708B42F9D11A4AB0781378D7
:1035E0005278402B85BF373B1B011B01DBB298BFD4
:1035F00003F0F003402A8CBF373A303AD2B213447A
:10360000DBB298420E4A49D121230B701749164864
:103610000B6801330B60D378012B2DD0022B3FD1E7
:103620007223118A0370124B528A1980114B1A802F
:1036300036E000BF0C050020D00400200805002063
:10364000FC130020082D0020000700208816002011
:10365000B9160020A916002089160020991600200E
:10366000F825002004050020F00400200426002096
:10367000020700207C16002067210170A549097807
:103680008D070ED5A4495068086090684860107B8B
:10369000A2490870D189A24A118002E03F230B7031
:1036A000002300227275002B3FF4A5AE6CE1737805
:1036B0000E2B9FBF9B4A591C51709B4A98BFD554F3
:1036C000737D984A002B7FF496AE93785D40957099
:1036D00091E6944B9A7D082A3FF68DAEDFE802F022
:1036E000050C1319242F4A606A00B5287FF483AEB5
:1036F0000022DA75012202E0622802D000229A75C7
:1037000079E60222FBE703229A75187658769876B6
:1037100071E604229A755A7E997E0244D2B25A7694
:103720000A449A76D87666E605229A755A7E997E7C
:103730000244D2B25A760A449A7698835BE606220D
:103740009A755A7E997E0244D2B25A760A449A7683
:103750009A8B02EB0025ADB2B5F5AC7F82BF714A02
:103760000121D17500229D83DA83002D7FF443AEC1
:103770000722C4E75A7E997E0244D2B25A760A449E
:103780009A76DA8BB2F5AC7F3EBF6649891881F82C
:1037900020000132998B92B29142DA83E8D92AE66D
:1037A00008229A755B7E83423FF425AE5D4B012271
:1037B000DA750EE000225D499A7511F8012D4A7004
:1037C0005B4A9142F9D1987E564AA84206D03F23DF
:1037D0000B70584A5368013353600CE6564D286805
:1037E00001302860D07D10B13E230B7003E621200C
:1037F0000870D07E06284DD004D8022814D00328A3
:1038000030D0F8E5122864D030287FF4F4AD492098
:10381000087092F82410494A102988BF10211170AD
:1038200010784749002264E0502008703A49506AF5
:103830004860906A0860116B4FF47A7091FBF0F168
:103840003748018092F87811324A19B1117841F065
:10385000020102E0117821F002011170012283F8C7
:10386000792181E05320087092F8251011F00101B0
:1038700005D092F82420D01E4242424100E00A4680
:1038800083F87821002A6FD122490A7822F00202B7
:103890000A7069E04F20087092F82B1011F00101B6
:1038A00005D092F82A20D11E4A424A4100E00A4639
:1038B00083F8782122B917490A7822F002020A70A7
:1038C00093F84F10154A1170B3F84C101D4A11802F
:1038D0004AE056200870506B1B49088042F2107075
:1038E000916B91FBF0F119480180012182F87A1166
:1038F0003AE0824234D20E7A154D56554E7A154D25
:103900005655CE7A144D565511F80C6F134D565529
:103910000132EEE70007002008070020060700201C
:1039200004070020FC130020082D002004050020BF
:10393000F0040020D0040020042600208816002077
:103940001C1400203E000020020700207C160020EE
:103950008916002099160020A9160020B91600200B
:10396000AE490A6801320A6093F87931AC4A002BFB
:103970003FF441AD92F87A31002B3FF43CAD002387
:1039800082F8793182F87A31A64BDFF8D082DA6892
:103990001A61A54A1268DA60A44A136843F020034A
:1039A0001360A34B1A78012A0CBF002201221A705F
:1039B00098F800309A077FF51EAD9E4A1278042AC7
:1039C0007FF619AD9C4A127802F0040202F0FF0162
:1039D0001AB923F0010388F8003098F80070904E6F
:1039E00017F0010F954D24D119B3BB0721D5944B86
:1039F00028686A6818605A600AF0EAFA002181466D
:103A00000AF0F6FC08B1484601E009F100408D4992
:103A10000AF0E6FB8C490AF02FFB03F025FD8B4BE7
:103A200047F0010718608A4B88F800701B88A6F8D9
:103A30007C3196F87E21531C052293FBF2F202EBB7
:103A400082029A1A96F87F3186F87E2102939200BC
:103A50000023DFF8E8919900DFF814A2039159F8E8
:103A60002310DFF810E291FBFAFC0EF1080040F899
:103A700023C078484EF8231000FB0C1142F210705E
:103A800091FBF0F00EF1100680B226F813004FF013
:103A900014080EF1140608FB03680EF13C0B58F8ED
:103AA00002705BF8236048F80210F61B0E440521F3
:103AB0004BF8236096FBF1F60AFB0C6602990EF1B7
:103AC000440E01294EF82360C84606D10238B0F5ED
:103AD000797F9CBF039941F809600BB90123B8E7CE
:103AE000DFF844914E4FD9F80000D7F8CC31C01A16
:103AF0000AF06AFA58490AF073FBD9F800304FF01F
:103B00007E51C7F8CC3106460AF054FC08B94FF094
:103B10007E56524BC7F8D0611B78DFF85C9113F0EA
:103B200001034F4E13D004AA0092454B05AA0192FF
:103B30000CCB98E8030008F089F9049A6421B2FBE1
:103B4000F1F2059BA9F8002093FBF1F301E0A9F83D
:103B50000030338097F8D431314E002B3BD0D6F86B
:103B6000D0114FF07E500AF03BFB8246D6F8D83198
:103B70002868C01A0AF02CFA51460AF07DFA0AF0B9
:103B800041FCD6F8DC311FFA80F968680FFA89F930
:103B9000C01A0AF01DFA2D4B19680AF06DFA514649
:103BA0000AF06AFA0AF02EFCB6F9E22100B2811896
:103BB000B6F9E021022009EB020391FBF0F193FB3F
:103BC000F0F389B29BB2A6F8E611A6F8E431A6F8A4
:103BD000E211A6F8E031012387F8D431D8F8043097
:103BE000C7F8DC31D8F80030C7F8D83103E41D4EEF
:103BF0003268177817B1012F40D02BE1012B00F26A
:103C000029816A78184B0C2101FB02335A78174B33
:103C1000206853F8221002F069FE8DE0F82500209C
:103C2000FC130020D004002080310020FC0600207E
:103C30007E16002006070020E5310020080700203E
:103C4000801600208096184B35FA8E3C0800002024
:103C50009C0C0020806967FF00007A440007002068
:103C60007C07002008050020CC530108345D0108C2
:103C7000809698007C1500207A0700202068DFF8E5
:103C8000048202F030FE002800F0E4802A78734BB2
:103C9000022A3FD0032A4CD0012A40F0DB80704A30
:103CA00010689A69821AC72A40F2D4805969042997
:103CB0002ED86C4A0C24964604FB0121D8F800400B
:103CC0004E78A768986100236749D8B251F823203D
:103CD000BA4204D001330B2BF6D1002300E0034697
:103CE000B34205D0204651F8261002F0FFFDB1E0A6
:103CF0006B780C2101FB03E2566816F8011B19B121
:103D0000204602F0FCFDF8E76B6901336B61A1E02E
:103D1000022074E05A78534B0C2101FB02335A788D
:103D2000514BD8F8000053F8221002F0DFFD0320B9
:103D300065E0326892780AB9042060E01A7F02B91F
:103D40001F772B7F454F012B0FD17B69B22B08D8F2
:103D5000464A2068D15C02F0D2FD7B6901337B6169
:103D600003E000237B6102233B772B7F3B4F022B39
:103D700014D17A690F2A0FD833683C495B782068E0
:103D800003EB03130B44134493F8B41002F0B7FD94
:103D90007B6901337B6101E003233B772B7F022B9F
:103DA00058D9C9E7AB682D490133AB60304B1B686C
:103DB000DB784BB14B7805220133DBB2B3FBF2F277
:103DC00002EB82029B1A4B70254B00221B680120DC
:103DD000EB60284B1A70284A137823F00203137003
:103DE0000DE01F4BEA681B689B1A40F6C412934211
:103DF00030D9224A0520136823F02003136008F00D
:103E000017F827E0D97847297FF437AB197941298A
:103E10007FF433AB0121D170FFF72FBB9978184A9B
:103E2000522907D1D1784D2904D11279432A01D1E1
:103E30000222F2709978124A47297FF41EABD1789A
:103E400053297FF41AAB1279562A04BF0322F27069
:103E5000FFF713BB07B0BDE8F08F00BFD004002010
:103E600080310020CC530108345D010890590108CD
:103E7000080500200607002000070020FC0600209F
:103E8000082D00200C05002070B56428A0B0044661
:103E900000F0888100F2AF80342800F08F8351D881
:103EA000222800F0538323D8032800F0468114D839
:103EB000012800F03781022840F09F85042007F098
:103EC0000FFC432007F0FAFB4C2007F0F7FB4620DD
:103ED00007F0F4FB4C2000F0D7BC042800F036813A
:103EE000052840F08A851A2007F0FAFB002440E1FB
:103EF000282800F0618415D8242800F0488426285A
:103F000040F07B85D14C062007F0EAFBB4F858015D
:103F100007F000FCB4F85A0107F0FCFBB4F85C01B0
:103F200000F067BD2C2800F05A84322800F0A684E7
:103F30002A2840F06285012007F0D2FBC34B587954
:103F400000F0A2BC422800F0AC841BD83A2800F054
:103F500025820BD8362800F0C584382840F04D85DE
:103F6000042007F0BDFBB94C00F017BC3B2800F063
:103F7000E682402840F04185082007F0B1FB00248C
:103F800000F085BC472800F0DF8424D8452800F0E5
:103F90000C85462840F031850D20AD4C07F0A0FB84
:103FA00004F0D2FE07F08AFB208807F0BCFBE06833
:103FB00007F0B9FBA74A92F8B70092F8B6309842DA
:103FC0002ABFC31AC3F1800300200344D2F8B8000B
:103FD000184400F0F9BC4B2800F020844D2800F074
:103FE0002C84492840F00985022007F079FB974B83
:103FF000988900F0FEBC722800F005834AD86A2830
:1040000000F0458325D8672800F03C8111D8652849
:1040100000F0D880662840F0F084122007F060FBA2
:104020008D4B00241B88B3F5806F8CBF08250125BC
:10403000EFE0682800F09381692840F0DE84854D28
:10404000002495F83800400000F0FE0007F048FB1F
:1040500091E16D2800F09B8112D86B2800F0378326
:104060006C2840F0CA84062007F03AFB002007F0D5
:1040700051FB002007F04EFB784B188800F0B9BCCC
:104080006F2800F0A481C0F08F81702800F0C981F2
:1040900000F0B3BC782800F0018113D8752800F037
:1040A000428204D8732800F0E782742803E076285F
:1040B00000F01E83772840F0A084002007F010FB5A
:1040C00000F099BCA42800F0348314D87C2800F0B8
:1040D0007E84A02840F091840C2007F001FB604B07
:1040E000186807F020FB5F4B186807F01CFB5E4B5D
:1040F000186800F069BCF12800F00B81FE2800F080
:104100003F83F02840F07984524C042007F0E8FA0D
:10411000E369B3F85A0007F0FDFAE369B3F8580011
:1041200000F067BC032007F0DBFA002007F0C6FAB6
:10413000204607F0C3FA0E20A6E307F0D1FA0720C5
:1041400007F0BCFA002007F0B9FAF0E2062007F009
:10415000C7FA412007F0B2FA462007F0AFFA4E2026
:1041600007F0ACFA412007F0A9FA404B187800F0AC
:1041700040BC3F4B185D013407F0A0FA0B2CF8D17E
:1041800000243C4B185D013407F098FA082CF8D154
:104190000024394B185D013407F090FA072CF8D150
:1041A00000F029BC072007F09BFAE72007F086FA09
:1041B000264B587907F082FA002007F07FFA042096
:1041C00000F002BC234C0B2007F08AFA208807F08D
:1041D000A1FA608880B207F09DFA284B1B68C3F3F0
:1041E000C000C3F38002800040EA4200C3F34002F3
:1041F0001043C3F3401240EAC20003F01003184317
:1042000007F088FA002007F08EFA104B93F8F006BA
:104210003AE31B4B33F91400013490FBF5F080B204
:1042200007F078FA032CF4D100200A4C07F072FA58
:10423000002007F06FFA002007F06CFAA08807F062
:1042400069FAE08807F066FA2089D2E3A40C00201E
:104250000C00002014160020020000209C0C0020FE
:10426000E8F7FF1FECF7FF1FF0F7FF1FE931002011
:10427000806D01088C6D0108956D0108FC06002019
:104280009E0C0020102007F02BFA0024C04B185D74
:10429000013407F013FA102CF8D1ACE3702007F0CA
:1042A0001FFA00260E247443BA4D0136EB692344ED
:1042B000B3F8190107F02EFAEB692344B3F81B0198
:1042C00007F028FAEB692344B3F81D0107F022FA3E
:1042D000EB69234493F81F0107F0F0F9EB692344DD
:1042E00093F8200107F0EAF9EB69234493F82101E0
:1042F00007F0E4F9EB69234493F8220107F0DEF9B3
:10430000EB691C44D4F8230107F00DFA082EC9D13B
:1043100071E3702007F0E4F99F4C04F1700594F804
:10432000D00007F0CBF994F8D10007F0C7F994F862
:10433000D20007F0C3F994F8D30007F0BFF994F85E
:10434000D40007F0BBF994F8D50007F0B7F90734AB
:1043500094F8CF0007F0B2F9AC42E0D14BE3102063
:1043600007F0BEF900248D4B185D013407F0A6F963
:10437000102CF8D13FE395F838309C4280F03B8315
:10438000874B33F8140007F0C5F90134F3E7062032
:1043900007F0A6F9002007F0C6F916E0042007F0A0
:1043A0009FF97C4B186E0FE3072007F099F97D4BBE
:1043B0001888FF28A8BFFF20C0B207F07FF90020AF
:1043C00007F0A8F9002007F0A5F9002011E3714CCF
:1043D0000B2007F085F9636E2546187807F06EF913
:1043E000636E0026587807F069F96B6E694C3344A8
:1043F0001879013607F062F9032EF6D1636ED87989
:1044000007F05CF9636E987807F058F9636ED87816
:1044100007F054F9636E588907F07CF9636E187AD7
:1044200032E25C4C1E2007F05BF9E36900251B7843
:10443000022B65D1E36905F1080253F822005A49BD
:1044400009F01AFE0DF034FE80F30800C0B207F048
:1044500035F9E369554903EB8503D86A09F00CFE89
:104460000DF026FE80F30800C0B207F027F9E369DB
:1044700005F10E0253F822004D4909F0FDFD0DF043
:1044800017FE80F30800C0B2013507F017F9032DBD
:10449000D0D1072DE36921D1586C434909F0ECFDD7
:1044A0000DF006FE80F30800C0B207F007F9E369DB
:1044B0003D49986C09F0E0FD0DF0FAFD80F308002D
:1044C000C0B207F0FBF8E36993F84C0009F07CFDFB
:1044D0000DF0EEFD80F30800C0B20BE02B445878DD
:1044E00007F0ECF8E3692B44D87A07F0E7F8E369C2
:1044F0002B44587D013507F0E1F80A2DC9D17AE245
:10450000E3692B44587807F0D9F8E3692B44D87A4B
:1045100007F0D4F8E3692B44587D013507F0CEF855
:104520000A2DEDD167E22F2007F0DAF8214C14F8BC
:10453000010F002800F05F8207F0C0F8F7E70120C4
:1045400007F0CEF8134BDB6918789DE1502007F097
:10455000C7F800250F4B0C21DC69174B04EB8504D1
:1045600094F87920013501FB023393F8380007F005
:10457000A5F894F87A0007F0A1F894F87B0007F00A
:104580009DF894F87C0007F099F8142DE2D132E2FE
:104590001E16002014160020A40C00203416002043
:1045A0004E160020F4060020000020410000C84202
:1045B00000007A44975A0108985A0108482007F0E9
:1045C0008FF80025D44BDC69062303FB054494F8DF
:1045D000CE0007F073F894F8C90007F06FF894F86C
:1045E000CA0007F06BF894F8CB0007F067F894F86E
:1045F000CC0007F063F8013594F8CD0007F05EF8C1
:104600000C2DDFD1F7E1C54C162007F069F8B4F89E
:10461000940107F07FF8B4F8400107F07BF8B4F894
:10462000420107F077F8B4F8440107F073F8B4F8E2
:10463000D60107F06FF894F8E70107F03FF8002083
:1046400007F03CF894F8E80107F038F894F8830193
:1046500007F034F894F8900107F030F8002007F0E4
:104660002DF8AD4B0A20DB69B3F9563093FBF0F01F
:1046700080B207F04FF890E0082007F031F80124ED
:10468000E0B2013407F01AF8092CF9D1B3E1102097
:1046900007F026F8A24BA34C187800F0020007F0B0
:1046A0000DF8A14B187807F009F8206807F03BF8DF
:1046B000606807F038F89D4B188807F02BF89C4B82
:1046C000188807F027F8944BB3F8680091E10520AB
:1046D00007F006F8974B188807F01CF8964B1888D7
:1046E00007F018F88C4B93F86A0000F00100CBE05B
:1046F00006F0DAFF0646122006F0F2FF1EB9864BDE
:10470000DD6E1C6F01E000242546304606F0D6FF22
:10471000284607F008F8204607F005F8002007F0C3
:1047200002F8002006F0F6FF002006F0F3FF00205C
:10473000AAE0794D002495F874002E4680000130DF
:10474000C0B206F0CDFF95F8740006F0B7FF96F8FA
:1047500074309C4280F04F81784D285D06F0AEFFAA
:1047600005F11003185D06F0A9FF05F12003185D9F
:10477000303506F0A3FF285D06F0A0FF0134E6E720
:10478000082006F0ADFF002006F0C4FF17E6042065
:1047900006F0A6FF614B986816E194F8780106F0E0
:1047A0008DFF94F87C0106F089FF94F87B0106F0F8
:1047B00085FF94F87D0167E0584C072006F090FFD4
:1047C000B4F87E0106F0A6FFB4F8800106F0A2FF5F
:1047D00094F8820106F072FFB4F8840109E14F4CAD
:1047E0000C2006F07DFF94F88E0106F067FFB4F808
:1047F000980106F08FFFB4F8940106F08BFFB4F82F
:10480000960106F087FF94F88F0106F057FFB4F881
:104810009A0106F07FFFB4F89C01EAE03F4C0420C7
:1048200006F05EFF94F8D40106F048FF94F8D50135
:1048300006F044FFB4F8D601DBE0374C404D94F865
:104840003800002600EB4000C0B206F049FF94F8A3
:10485000383002359E4280F0CE8015F8020C06F00A
:104860002DFF15F8010C013600EB800000EB8000F5
:1048700000F2EE2080B206F04DFFE8E7012006F0DE
:104880002FFF264B93F8900106F018FFB3E0234B5F
:10489000234493F88601013406F010FF082CF6D16A
:1048A000A9E01E4C102006F01BFF607906F006FF01
:1048B000A06806F038FF94F88E0106F0FFFEB4F809
:1048C000580106F027FFB4F85A0106F023FFB4F8A8
:1048D0005C0106F01FFFB4F87E0106F01BFFB4F880
:1048E000800186E00C4B0D4C93F8B50004F12805CF
:1048F000C0EBC000C0B206F0F3FE94F8EE01002356
:10490000104AD25C90427AD00C333C2BF8D1083458
:10491000AC42F2D16FE000BF14160020A40C0020BE
:1049200000070020080700200607002004070020D9
:10493000020700207A0700207C070020891600204B
:10494000420E0020182D002006F0AEFE85B206F0C3
:10495000ABFE044606F0A8FE86B206F0A5FE05EB07
:10496000042506EB0020ADB205EB0044842006F0E0
:10497000B7FE204606F0D7FE2D4BDD6804F180031C
:10498000AB428CBF2D1B802507F0F2FA20462A4649
:10499000694604F0B3F905460024AC422BDA1DF851
:1049A000040006F08BFE0134F7E7132006F098FEB2
:1049B0000024204B185D013406F080FE0B2CF8D14A
:1049C000002006F0B0FE002006F0ADFE13E01A4C09
:1049D000082006F085FEB4F8480106F09BFEB4F806
:1049E0004A0106F097FEB4F84C0106F093FEB4F8C5
:1049F0004E0106F08FFE012018E0002016E006F0C0
:104A00005DFEB4F8F00106F085FE94F8F20106F0C0
:104A100055FE94F8F30106F051FE94F8F50106F006
:104A20004DFE94F8F40106F049FE70E720B070BD29
:104A30000C000020806D0108A40C00202DE9F04F2F
:104A400087B06C4C02916C4922880E680546C2EB17
:104A500026135B435200C2EBE602B4F902601B135B
:104A60005643B4F90420B4F90A0053439B1303EBF3
:104A7000E62606EB860380331B12B6F5FA384FEABA
:104A8000E67704934B6847F1FF39A8FB08AB039323
:104A900008FB09F3B4F908200BEB430BE389A6618B
:104AA0000593D31708FB03F102FB0911A8FB0223AE
:104AB0000B44C1171F030AFB01F300FB0B33AAFBD6
:104AC00000011603194447EA1257020A42EA01623A
:104AD00092194FEA2123E6887B410032A2FB0601AE
:104AE00043F5004306FB03114B100093CB170193D2
:104AF000DDE900231343B4F810E0B4F80CC06DD026
:104B00000FFA8EF0C1170AFB01F1AAFB002300FB8C
:104B10000B11BDF914600B44F71708FB07F106FBF6
:104B20000911A8FB06670F4479047004801841EA54
:104B3000D6315941039B0FFA8CF8C3F5801E72469B
:104B4000D317002212184FEACE764FEAC3774FEA06
:104B5000C8034B4147EA5E07B61A67EB030740F606
:104B60003543A6FB030103FB0711DDE9002309F030
:104B70008FFCB4F916204E1302FB06FE470B47EAE2
:104B8000C147D31707FB03EEA2FB07235643734429
:104B900007FB0366A2FB07233344560E46EAC316FF
:104BA0008219B4F914604FEA636741EB070371435C
:104BB000F71700FB0717A6FB00013944C60C46EAAD
:104BC000413692194FEAE1474FEA1221B4F9122017
:104BD0007B4141EA036113010B4400E000230DB166
:104BE0001B0A2B60029B13B11A46049B136007B08B
:104BF000BDE8F08F340400205C1700207047704738
:104C00006B4B6C4A2DE9F04F5E8994684FEA062A97
:104C1000B4EB0A0A9C884FF000054FEA04481C894F
:104C20004FF0000BA4FB0A6765EB0B0B04FB0B7743
:104C3000F40944EA476418EB04065C884FF0000965
:104C40004FEAE7154FEAC438DC8849EB050787B01F
:104C5000CDE90467A4FB0A6704FB0B77340A44EA36
:104C6000076418EB04064FEA27259C894FF00009DA
:104C700049EB0507CDE90067AAFB046704FB0B7746
:104C8000F40D44EA472414F5FA664FEAE75545F176
:104C90000007B6F5FA6F77F10003CDE90267964693
:104CA00066DADDE90489A4FB046704FB05F34FF031
:104CB000050C07EB4307A6FB0C230CFB07335F1027
:104CC0004FEA3206B8EB06084FEA920646EA8376C8
:104CD00069EB07099F10DDE90023921B63EB0703D3
:104CE000CDE90023DDE90267334A4FF0FF339642F6
:104CF00077EB0303CDE9048927DA40F6AC520023B1
:104D0000A4185D4104FB05F3A4FB04456FF0060203
:104D100005EB4305664202FB0566A4FB0223334410
:104D200018EB020649EB0307CDE904670B26A4FB49
:104D3000062306FB0533DDE900455B104FEA32022E
:104D4000A41A65EB0305CDE90045DDE902450AFB40
:104D50000BF3AAFB0AAB0BEB430B4FEADA7242EA06
:104D60004B02A41A4FEAEB7365EB0305CDE902454C
:104D7000DEF80C40009B019DA4FB032304FB0533DC
:104D80004FEA525848EAC3284FEA6359DDE9042341
:104D9000B8EB020269EB03039946D30B43EA49439C
:104DA00000B1036009B1029B0B6007B0BDE8F08F52
:104DB000E00300205C17002024FAFFFF2DE9F041FA
:104DC000324C334D62892B8AB4F904809A1A2389B4
:104DD000B4F902E05A43B4F91230D613B4F91420EE
:104DE000DB02324493FBF2F232440A26E26156437C
:104DF000A2F57A6202FB02F3B4F90EC002FB0EFECA
:104E000002FB08F2B4F90C801B130CFB03FC03FB40
:104E100008F31B1403EB62320232E388921002F5AE
:104E2000004253434CF25032B4F920704FEAEE2E58
:104E3000B4F900400EEBEC2C0CEB8404BC406D6923
:104E40000234A5EBA4043A4162434FEAD3384EBF83
:104E5000B2FBF8F35400B4FBF8F340F6DE3448BF7D
:104E60005B001A12524362430A4C08365C43241416
:104E700004EB224202F6CF62361103EB221300B19B
:104E8000036001B10E60BDE8F08100BFF4030020B3
:104E90005C17002043E3FFFF13B50C4B04465B682F
:104EA0001B20022101AA984770B19DF804209DF8AB
:104EB000053043EA022303F54E5310334FF48C724E
:104EC00093FBF2F32333238002B010BDCC03002008
:104ED00037B5104B04465D68187806216A46A84726
:104EE000A8B19DF800209DF80130012043EA02237B
:104EF00023809DF802209DF8033043EA022363805B
:104F00009DF804209DF8053043EA0223A38003B0F6
:104F100030BD00BFCC03002013B5104B04465B68C6
:104F20003B2006216A469847A8B19DF800209DF8CD
:104F30000130012043EA022323809DF802209DF8DE
:104F4000033043EA022363809DF804209DF8053076
:104F500043EA0223A38002B010BD00BFCC030020AF
:104F6000B0F5807F0ED0BB280ED861280ED8292836
:104F70000ED813280ED809280ED8002814BF0620F2
:104F800000207047002070470120704702207047C2
:104F900003207047042070470520704707B5F721AC
:104FA0006B460622762001F01BFF9DF800309DF82D
:104FB00001101B0343EA01139DF80210094A43EA5A
:104FC000111353609DF803309DF804101B0343EA4E
:104FD00001139DF8051043EA1113136003B05DF847
:104FE00004FB00BF5C17002007B5002101AB0322C2
:104FF000772001F0F5FE9DF805309DF804001B02B6
:1050000043EA00439DF80600184303B05DF804FB33
:1050100008B5FFF7E9FF014BD86008BD5C17002019
:1050200008B5FFF7E1FF014B986008BD5C17002051
:105030000F4B13B51B780F4C0BB1237EB3B103227A
:1050400001AB7720F62101F0CBFE9DF805309DF8ED
:1050500004201B0243EA02439DF806201343064A3C
:10506000B2F92020C2F10802D340636102B010BD42
:10507000000000205C170020F40300200A4B13B549
:105080001B780A4C0BB1237E63B1022201AB77205F
:10509000F62101F0A5FE9DF804209DF8053043EAB5
:1050A0000223238202B010BD000000205C17002004
:1050B00030B505460C46134629462246BDE8304029
:1050C000682001F08DBE13B50622044601211C2084
:1050D0006B4601F085FE08B39DF801309DF8002075
:1050E000042143EA022242F38D0292FBF1F29DF881
:1050F000023022809DF8032042EA032242F38D020F
:1051000092FBF1F29DF8043062809DF8052042EA9E
:10511000032343F38D0393FBF1F3A38002B010BD8F
:1051200013B506220446022118206B4601F058FEF2
:10513000B8B19DF800309DF801209B0803EB0223D5
:1051400023809DF802309DF803209B0803EB022387
:1051500063809DF804309DF805209B0803EB022333
:10516000A38002B010BD314B2DE9F3411B780546F9
:10517000002B3BD0002426462746A046013453206E
:10518000322108226B46E4B201F02AFE08B9002061
:1051900049E09DF801209DF80030202C03EB02230C
:1051A0001BB29DF8032098449DF8023003EB0223C4
:1051B0001BB21F449DF805209DF8043003EB022329
:1051C0001BB21E449DF8073003F07F0301D0002B73
:1051D000D4D198FBF4F897FBF4F796FBF4F6144B54
:1051E000A5F800806F80AE805C761CE053203221F1
:1051F00006226B4601F0F4FD0028C8D09DF801207E
:105200009DF8003003EB02232B809DF803209DF8CE
:10521000023003EB02236B809DF805209DF80430DB
:1052200003EB0223AB8002B0BDE8F081DE03002077
:105230005C1700207620F421312201F00FBE772088
:105240004821012201F00ABE77205821012201F0F5
:1052500005BE074B002193F82020064B9201343203
:1052600019767720F42102F0FC0201F0F7BD00BFAF
:10527000F40300205C170020034B00221A767720ED
:10528000F4212E2201F0EABD5C17002003460A46F5
:105290006820194601F0E2BD08B50F210822182048
:1052A00001F0DCFD0E221820102101F0D7FD024B89
:1052B0004FF480521A8008BD0200002008B5134B3D
:1052C00053201B782D2108227BB101F0C7FD31212D
:1052D0000A22532001F0C2FD2C210C22532001F0A0
:1052E000BDFD53203821902209E001F0B7FD3121A6
:1052F0000A22532001F0B2FD53202C210A2201F092
:10530000ADFD40F20912024B1A8008BDDE030020F9
:105310000200002008B54FF4804004F0F9F801289D
:1053200001BF044B4FF480425A61034B08BF18760B
:1053300008BD00BF000401405C17002010B5054CFB
:105340002368186904F0E4F818B123681A69024B5D
:105350005A6110BDD803002000040140F8B50E4684
:105360001746084C4FF48055656140F0800007F007
:105370007DFF38460021324607F042FF25610120BB
:10538000F8BD00BF000C014070B50E46054C4FF44F
:105390008055656107F06AFF304607F067FF2561B9
:1053A000012070BD000C014070B5FFF7D9FD104C15
:1053B0000546192001F0D1F9A3681520002198476E
:1053C00010B9022001F02AFA45F01801A368C9B209
:1053D00016209847A368002117209847A368012149
:1053E0003D209847A3683E200121BDE87040184742
:1053F000CC030020F0B5274D85B0AB7E002B46D105
:10540000254C2368002B42D01A68244E12B1B16992
:105410000A43B2619A889868ADF8002002228DF89C
:105420000320694604228DF8022003F0D4F9B36901
:10543000002743F00103B36123680126187B197D1F
:1054400003F0B4F92368164993F9150001F030FA16
:105450002368144A1B695361029308230DEB030070
:105460008DF80D308DF80C708DF80E6004F021F879
:10547000236801A85B7D8DF806708DF80430032346
:105480008DF805308DF8076007F09CFEAE7605B00C
:10549000F0BD00BF5C170020D803002000100240C0
:1054A0003D5300080004014037B50446FFF7A2FF52
:1054B000254B1A68254B9A420ED14FF40053ADF894
:1054C000043002238DF80730042321480DEB03013B
:1054D0008DF8063003F07FF92046FFF741FD0546C1
:1054E0001C4C8021A3686B209847642001F035F99B
:1054F000A368072168209847642001F02EF9A3686B
:1055000000216B209847642001F027F9A36801214E
:105510006B209847A36818211B209847A368102187
:105520001C209847A36829461A209847A3680021A1
:1055300019209847A368122137209847A3680121B2
:105540003820984703B030BD2C000020001BB70066
:1055500000100140CC03002008B5FFF74BFF024BC1
:105560004FF480521A8008BD0200002070B5044636
:10557000FFF740FF2046FFF7F3FC0546144C80215F
:10558000A3686B209847642001F0E7F8A368002126
:1055900019209847A36803216B2098470F2001F03A
:1055A000DCF8A36829461A209847A36818211B2015
:1055B0009847A36810211C209847A3680221372030
:1055C0009847A36838200121BDE87040184700BF04
:1055D000CC03002008B5FFF70DFF074B5B7813B134
:1055E000012B03D008BD4FF4006201E04FF480525C
:1055F000024B1A8008BD00BFCA0300200200002031
:1056000013B500222A211C2001F028FC0E210222C1
:105610001C2001F023FC0F2103221C2001F01EFCA2
:105620002B2112221C2001F019FC164A0224936936
:10563000154843F0040393612023ADF8043004239C
:105640000DEB03018DF806308DF8074003F0C3F829
:1056500022462C211C2001F001FC2D2101221C20BE
:1056600001F0FCFB2E2100221C2001F0F7FB2A2177
:1056700005221C2001F0F2FB044B4FF480721A80CB
:1056800002B010BD001002400008014002000020DE
:10569000054A08B5138801339BB21380034B187871
:1056A00001F030F9002008BD16160020D01D0020A2
:1056B00001F030BA01F050BB01F02CBA01F04CBB44
:1056C000026B0346C16810B5406942B11A6C8C1A6E
:1056D000013A08BF0A46005D1A64C0B210BD1A6ADA
:1056E000805C01328A4228BF0022C0B21A6210BD1B
:1056F000436B13B190F844007047836A406A1B1AE9
:10570000584258417047426A816A03698A4238BFE9
:10571000D218521A416B21B149680A44591E8A4273
:1057200003D2013B981AC0B2704700207047036B48
:1057300013B15B68016C01E0C369016A8B423CBF35
:10574000C2689B18581AC0B27047426A806A131A1E
:105750005842584170474171704743799B070AD5B9
:10576000436A8269D154436A01690133B3FBF1F2A0
:1057700001FB123343627047427902F0020202F0E9
:10578000FF0342B10369426A806A013BDBB2101A2F
:1057900023EA0000704718467047437913F001036D
:1057A0001FBFC36803F1FF32C369006A1DBF181A27
:1057B0001040C0B218467047437910B513F001038A
:1057C00004460DD0FFF7E9FF58B1236A6269E1682A
:1057D000D05C0133B3FBF1F201FB1233236210BD45
:1057E000184610BD90F83B3210B57BB990F83A32AC
:1057F00090F83942A34209D2B0F8401201229A40EF
:105800000A430133A0F84022DBB2F3E710BD8379ED
:10581000DB0748BFB1FA81F1D0F8343148BF4909FC
:105820005A681B8909B1136170475361704710F8BA
:105830000A3C0133DBB20A2B84BF10F8131C054A63
:1058400000F80A3C82BF002322F8113000F80A3C1D
:10585000704700BFB8170020324A70B5136C9068CB
:10586000194440F68C23081A98429160D060516028
:10587000134639D9127893F9451014468A420BD150
:10588000111F082908D893F84610182901D80131AA
:1058900003E083F8442002E0002183F8461093F9E6
:1058A00044002049824217D191F84700A0B10C3141
:1058B000002595421C4805DA51F8046F20F8156060
:1058C0000135F6E70C2C04D0002120F81410013427
:1058D000F8E7017E0131017683F84520002201219D
:1058E0001A7083F8471070BD92F84710C9B140F2A2
:1058F000DA51A0F2EF248C4208D811780B2905D890
:105900000B1D0131117042F8230070BD002283F895
:105910004720064B03F13002002143F8041F934255
:10592000FAD170BD48020020B817002054020020B0
:10593000024A136C01331944116470474802002075
:10594000024B53F820301B68198070477003002009
:10595000074BA1F57A7153F820301A681B89594317
:105960004FF47A7391FBF3F189B21180704700BF55
:10597000700300201FB50123ADF80830ADF8041006
:10598000002301A9ADF80A30ADF80C30ADF80620BF
:1059900003F0D2FB05B05DF804FB38B5A0F5137435
:1059A0006379A579DB0745D594F8383205F0010510
:1059B000F3B1226B1068838DC3F34E03838494F894
:1059C0003C3223B1B4F842320133A4F84232917A26
:1059D0006A00FFF7CFFF012384F83B32002384F8ED
:1059E000393284F83A3284F83832A4F8403238BD7B
:1059F00094F83B322046012B04BF94F8393284F8E6
:105A00003A32FFF7EFFE94F83B22236B3AB90122BA
:105A100084F83B221868997A05FA02F207E000221E
:105A200084F83B2295421868997A08BF0222BDE8A3
:105A300038409FE738BD10B5A0F5127494F83C22A9
:105A4000BAB9A36A616A994228D0591CA069A162B7
:105A5000C35C2069DBB25B0043F400738142A4F8AD
:105A60003E324FF00A0384F83D3228BFA262012380
:105A700012E094F93D327BB1B4F83E1220464B0857
:105A8000A4F83E3201F00101FFF7C1FE94F83D3267
:105A9000013B84F83D3201E084F83C3294F838321E
:105AA000002B4ED194F839320133DBB2092B84F844
:105AB000393203D12046BDE8104093E60A2B40D18D
:105AC00094F83B322BB9B4F8403243F00103A4F808
:105AD00040326379D9071CD5B4F84002820501D45D
