:020000040800F2
:1000000000500020F1EA000891EB000891EB000895
:1000100091EB000891EB000891EB00080000000054
:1000200000000000000000000000000091EB00084C
:1000300091EB00080000000091EB00080B5F000846
:1000400091EB000891EB000891EB000891EB0008A0
:1000500091EB000891EB0008318E00082F8E00080C
:1000600091EB0008195F000891EB000891EB000884
:1000700091EB000891EB000801CA000891EB000821
:10008000338E000891EB000891EB000891EB00081B
:1000900091EB000891EB000891EB00082D8E000811
:1000A00091EB0008E5C7000891EB0008F5C70008D0
:1000B000D9C70008C9C70008B9C70008C54E00085D
:1000C000C94E0008BD4E0008C14E000891EB000863
:1000D00091EB0008F5C90008E9C90008DDC900086E
:1000E0001D5F000891EB000891EB00080000000084
:1000F0000000000000000000000000000000000000
:0C01000000000000000000005FF808F1A3
:100110002DE9F04F89B005F0C7FE994A994C9389B3
:100120002060934623B16268821A002AC1F28D8250
:100130000344636005F0B8FE0546934B20601868E1
:10014000924A281A80B21D6010800DF0AFFE9049CF
:100150000DF004FF8F4B8B4E1860A368EB1A002B39
:10016000C0F26C8105F5C335A035B5608A4B8B4D67
:100170005B68284698478A4B2A681B78F260AA88F1
:10018000023B3282062B05D8DFE803F0080C121977
:100190001E222600A3892B80E3890DE0E3892B80B2
:1001A000A38903E0A3895B422B80E3895B4203E0E0
:1001B000E3895B422B80A3896B80238A14E0A389A7
:1001C0005B422B80E3890CE0E3892B80A38908E064
:1001D000A3892B80E38903E0E3895B422B80A38919
:1001E0005B426B80238A5B42AB806E4B1B78002B9B
:1001F0005AD1B5F900000DF05DFE8146B5F9020057
:100200000DF058FE8046B5F904000DF053FE664E21
:100210000746316848460DF0A1FEF1688246404627
:100220000DF09CFE014650460DF090FDB1698246EE
:1002300038460DF093FE014650460DF087FD11F053
:10024000BFFE7168288048460DF088FE31698246FD
:1002500040460DF083FE014650460DF077FDF169F2
:10026000824638460DF07AFE014650460DF06EFD8E
:1002700011F0A6FEB168688048460DF06FFE716906
:10028000814640460DF06AFE014648460DF05EFD8F
:10029000316A804638460DF061FE014640460DF059
:1002A00055FD11F08DFEA880404B19781A4611F0CB
:1002B000040F26D0A368636100230BEB0300002624
:1002C000EF5AA0F872613A481F5206301F520233AB
:1002D000062BF2D121F004011170364A0420138854
:1002E00043F0020313800CF0CFFE334B02221A714D
:1002F000DA78304622F0010240F60201DA7005F0A9
:1003000037FA2E4B1B7873B12B88BBF872219B1ADE
:100310002B80BBF874216B889B1A6B80BBF876210D
:10032000AB889B1AAB806169164A002900F0868071
:10033000936802F118005B1A21498B4202F11E01F9
:1003400044D8204AD36883F00803D360002335F8EB
:10035000132030F913E017B2BE45C8BFDFF850E0F4
:100360004FEA4306C8BF2EF8132031F906E00133E7
:10037000BE45BCBF144FF253032BE8D15EE000BF73
:10038000600C0020DC0500208C050020D01500202A
:10039000BD378635701C002054040020D415002081
:1003A0003032002001000020B80500206C0600203B
:1003B000F4050020281D0020601D0020600400209E
:1003C0007F969800000C0140FA0500200023AB4DF9
:1003D000536130F9136031F913200133324402269E
:1003E00092FBF6F2032B25F8022FF2D1A44B00204A
:1003F000198805F0BDF9A34A138823F0020313807E
:10040000A14B1B783BB1A14B1B681D0603D50620F1
:100410000CF03AFE04E09E4B02221A710CF02CFE06
:1004200006F054FC06F0F8FC9A4B02221A701422D3
:100430005A700F20FF229A7005F078FD924B1A78BF
:100440000593002A00F09A80934E3368002B00F049
:100450009580306805F068FE002800F08F808E4B94
:100460008E4D186805F05DFE0928014601D03F2831
:100470005BD14FF00008C1462F68DFF85CA237B1AE
:100480008748DAF800103A4610F09EFE20B9D046B0
:10049000B9F1000F00D1D146824B0AF1100A9A45FA
:1004A000EDD3CA46B9F1000F1FD0D9F80030D8F803
:1004B00000C00493DFF8E4E1049ADEF80030D05C79
:1004C0001CF80310814210D1754A51B92D2B08D860
:1004D000581CCEF800004FF0200E02F803E0115433
:1004E00003E0D05401332B60E4E72B680BB1C14526
:1004F00011D06D480BF080FCC24508D85AF8100B9B
:100500000BF07AFC3068092105F011FEF4E767482A
:100510000BF072FC00272B689F429AD2604B306828
:10052000D95D05F004FE0137F5E72B6833B90428DF
:1005300041F097815A4805F0BFFD1FE00C2801F0FB
:1005400092810A2941F0C281554F59480BF054FC61
:100550003846252110F021FE08B1C01B28602B6809
:10056000002B41F0D8814E48002130222B6010F042
:10057000BAFD059B1B78002B41F078814D4B9A68A2
:100580004D4BC2F34022A2842AB993F826200132AF
:1005900083F8262008E0002283F8262093F82720FD
:1005A00022F0010283F8272094F826309BF84317A5
:1005B000414A8B4282BF92F8273043F0010382F810
:1005C00027303C4B9A683C4BC2F3002222852AB963
:1005D00093F82A20013283F82A2008E0002283F8C9
:1005E0002A2093F8272022F0020283F8272094F88B
:1005F0002A30314A8B4282BF92F8273043F00203FF
:1006000082F82730214B1A689A4612F0010F00F049
:100610009B8045F207212268E36AD31A8B4240F39C
:100620009380254B254DDA6209F0D4FB2B78244EBC
:10063000032B338852D10A2B5BD9002328202B703F
:1006400005F059FC09F0C6FB1E4B188809F0ACFBFD
:100650001D4B1E491A68D37890FBF3F0013008282F
:100660001B4BA8BF08201870537980B243430B80FE
:1006700013795843174B18803BE000BFD00D002082
:10068000BC300020281D0020363200205C060020EF
:10069000601D00206C1D0020A43000205C1D002087
:1006A0002A1D0020445C0108FF6A0108046B010850
:1006B000E3760108000C0140DC050020B8060020AC
:1006C00060060020702100205806002092050020BE
:1006D0003A00002094050020545B01080A2B08D83A
:1006E0000323A64A2B7000231370A54A1380A54A42
:1006F00013802B78A44A012B0BD002D3022B1AD0E3
:1007000022E09F4B1A8833889A421DDD01232B700B
:100710000FE09C4B31881B888B4202DD0223137053
:100720000FE0974B1B880133994202DD00231370C1
:100730000AE0082006E0934B32881B8801339A4276
:10074000E4DC072005F0F2FB904B1A88049312F0CA
:10075000010F3AD08E4D2A78D10709D58D4B8E499D
:100760001B8822F0010203EB83035B004B812A709C
:100770002B789B0729D5DAF8003013F4007F874BDC
:100780000BD09BF8362742B118880DF08FFB844BB5
:1007900000221860834B1A7013E01A88BBF83207E6
:1007A000BBF834371B1A53435A2293FBF2F3184415
:1007B0000DF080FB0DF098FD81B20120218604F040
:1007C000D7FF2B7823F002032B70774E306805F0AB
:1007D000ABFC012840F23C81306805F0A2FC0546E4
:1007E00094F83220522D02F10102D2B230686F49E2
:1007F00084F8322038D191F833300133DBB29342A0
:1008000081F8333005D0012381F8323081F833305C
:100810002AE0032B28D1059A01231370644B18603A
:10082000644B186064480BF0E7FA64480BF0E4FA94
:10083000049BBBF83C271B8823EA0203049A43F07D
:1008400001031380DAF800301F0602D506200CF0F1
:100850001BFC9BF8283713B959480BF0CDFA00233D
:1008600084F8323084F83330049B1B88DE0700F1B3
:10087000E080580703D5284609F064FFD9E019073E
:1008800067D5284607F060FC002800F0D2804D4B69
:100890004D4D1A684D4B4E4E1A604E4B1A684E4BDA
:1008A0001A602B68013305D005F0F8FA2B68C01ADE
:1008B000421C01D100234AE041F288339842F9D822
:1008C000464B474D1B68AB4207D0642293FBF2F3C3
:1008D000444A1380444B01221A70444B444F1A6817
:1008E000444B38681A60444B1B686363431C03D055
:1008F00005F0D4FA3B68C01A404BA0631868A842C0
:1009000008D00CF01DFF00223D4B0DF0B9F80DF0A2
:10091000C7F900E000203B4B18603B4B1868A84229
:1009200008D00CF00DFF0022354B0DF0A9F80DF0AA
:10093000B7F900E00020354B00221860344B1A60F4
:10094000344B1B88FF2B1CBF334A138001233370A9
:100950006FE0D80603D5284609F09DFB69E09906AB
:1009600003D5284607F030FA63E05A065ED41F0626
:1009700054D5284607F0A4F85BE000BF3A000020F9
:100980009205002094050020B8060020281D0020B4
:10099000AC300020AE30002040070020AA300020FC
:1009A0002400002020000020A4050020DC050020F9
:1009B000A4300020A8050020346B0108046B010856
:1009C0006C6B0108641F0020481F002014320020B7
:1009D000990500206C1F0020081F0020841F0020A4
:1009E000FFC99A3BF61E0020980500205C1F0020DE
:1009F000401F002088070020541F00207C1F00207B
:100A00000000594064070020741F00208407002064
:100A1000800700208C1F002060070020DE0503D522
:100A2000284609F065FF04E0980502D5284609F03C
:100A300063FC7E4B08225A61049B1B8813F0010360
:100A40000CD1012284F83A20794AE363137005E05F
:100A5000764B08221A61002384F83A30744B754DA6
:100A60001B7823B1744A00231370744A10E094F881
:100A70003A20734B6AB9DA6B0AB92A68DA63E26B17
:100A80002B689B1A40F6B832934202D9684A012378
:100A90001370049B1A88D10700F17381674B02F031
:100AA00004021978184681B1664B67491B880B818F
:100AB0004AB1664B1E88664B1E80664B1B8803EB53
:100AC00083035B004B8100230370002A40F05981AF
:100AD000594B1878002800F04B815F4B5A4FD3F8E0
:100AE00000905E4B5E4ED3F80080C7F80090C7F8C8
:100AF0000480F0680DF0DEF95A490DF0E3FA079032
:100B000030690DF0D7F957490DF0DCFA06904846E8
:100B10000DF0D0F953490DF0D5FA814640460DF05D
:100B2000C9F950490DF0CEFA069ADDF81CC003460B
:100B3000114660464A460AF023F8D5F80090B36A99
:100B400080464B452064C4F844900693079711D023
:100B500000210DF097FB68B9069BC3EB090080B23A
:100B60000DF0A8F940490DF0ADFA014640460DF0F0
:100B7000A9FA00E00020A064002140460DF0AAFB85
:100B8000002800F0E4809BF8540748B10DF092F97A
:100B9000364B014658680DF07FFB002800F0D780E7
:100BA000069BDFF8C8900093636C274F0193304B8E
:100BB00093E80300079B0290ADF80C1093E8060041
:100BC0004846434606F0CEFE2A4B1B78002B00F029
:100BD000A080DAF80030DA044ED5F0680DF06AF93A
:100BE00020490DF06FFA804630690DF063F91D4918
:100BF0000DF068FA0746D9F80C000DF05BF91949B9
:100C00000DF060FA0646D9F810000DF053F91549B9
:100C10000DF058FA394603463246404609F0F4FED4
:100C2000C9F80000012007F0BDFC72E0000C014093
:100C3000DA1F0020CC310020990500209805002003
:100C4000DC050020F61E002040070020CE260020F4
:100C50003E0700205207002014320020081F002009
:100C6000F82000200024744900007A442821002044
:100C7000AC13002035070020374E30680DF01AF90C
:100C800036490DF01FFA069070680DF013F93349DC
:100C90000DF018FA814638680DF00CF92F490DF067
:100CA00011FA804678680DF005F92C490DF00AFA22
:100CB000069A034649461046424609F061FF0DF088
:100CC00039FBF86030680DF0F5F824490DF0FAF9B9
:100CD000814670680DF0EEF820490DF0F3F980467A
:100CE00038680DF0E7F81D490DF0ECF90646786814
:100CF0000DF0E0F819490DF0E5F93246034641469A
:100D0000484609F081FE16490DF028F90DF012FB56
:100D10007881144A144B11681960516859609168C0
:100D20009960D168D96011691961916A9962918A53
:100D3000998291699961117F1977D18BD983116A51
:100D4000196292F82410D28D83F82410DA85074BAB
:100D500000221A7015E000BFE02000200024744932
:100D60000000204128210020F820002099050020C3
:100D7000DAF80030DB0404D5A34B1B780BB107F085
:100D800011FCA24A29681368994240F2A380A04B43
:100D9000A04E1B68B6F900000E3313600DF08AF800
:100DA000E0640690B6F902000DF084F881462065F3
:100DB000B6F904000DF07EF8974B804660659BF80D
:100DC0003007187040B20DF075F80146DBF82C07BB
:100DD0000CF0BAFF914B1860002005F05DFF06464D
:100DE000002005F0E5FE0746404639460DF0B6F80E
:100DF0008046314648460DF0B1F841460CF0A4FF5C
:100E0000069A3146079010460DF0A8F8394606902C
:100E100048460DF0A3F839460DF0A0F8069A0146B1
:100E200010460CF093FF3146074640460DF096F809
:100E3000014638460CF08AFF079B0146184611F020
:100E400079FB002106460DF027FADFF8D08120B1AA
:100E5000304673490CF07AFF0646304670490DF073
:100E600039FA20B130466E490CF06EFF0646304626
:100E70006C490DF073F80CF085FC61A3D3E90023F5
:100E80000CF0FEFD684B064618680F460CF07AFC25
:100E900002460B46304639460CF016FB06460F4616
:100EA000D8F8000061490DF059F80CF06BFC0246CF
:100EB0000B46304639460CF007FB0CF0C9FE4FF4E8
:100EC000616390FBF3F202FB1300594B012258813E
:100ED000584B1A70584994F82720087882F002027B
:100EE000C2F34002554E9042554B3270894600F095
:100EF000FE805448C16881F01001C16093F8581019
:100F000011B1032940F0CA804F4B18789E4680B338
:100F100005990F78002F40F0E7805AB32968E26DF9
:100F20003B48891AB1F57A7FDFF8148108D2474A25
:100F300013780133137009F0DFFEC8F85C70D3E05A
:100F400040F2DB5E0168891A714502D80023E3652F
:100F5000CAE001688A1A40F2DC518A4240F2C48039
:100F60001F703B4B0222C8F85C701A710CF084F8B9
:100F7000BAE032B9E36D002B40F0B6802A68304BFE
:100F800092E02A68E36D224FD21AB2F57A7F2C499B
:100F900060D291F8601003290AD1DAF8000010F04D
:100FA00008001FBF049B188880F00400C0F3800075
:100FB00000EB80000329C2B204D1DAF80000070771
:100FC00007D403E0052904D1DAF8000000F001009D
:100FD00000E00020002902EB400314BF00200320A2
:100FE000184400F0FF0084F8600010B10CF04CF8D9
:100FF000ACE7174B02221A710CF03EF8A6E700BFCF
:10100000182D4454FB21094036070020B00500206C
:10101000CC310020D415002097050020C0300020DE
:10102000DB0FC9400000E1445C04002000002041C7
:10103000E02000209F0500209B0500209D0500204A
:10104000DC050020000C0140A0050020D81F002076
:10105000601D002040F2DB5C3A68D21A62457FF6E0
:1010600075AF3A68D31A40F2DC5293423CD9DAF8B1
:101070000030C865980548BF864B4FF0000248BF56
:101080001B884FF0070048BFABF83A3701238EF8B2
:101090000030814B1A700BF0F7FF25E0012923D1B6
:1010A00022B9DA6D02BB2A68DA651DE02A68D96DBB
:1010B000521AB2F57A7F10D29BF83037013BDBB27F
:1010C0008BF830375BB2143304DA744BEC2283F8BC
:1010D00030273BE705F0FAFD38E7714B1B685B1AD8
:1010E000B3F5FA6F3FF632AF337889F8003094F8F1
:1010F00058106C4A022994F827300AD113F00103E2
:1011000040F0A681032182F858105366664A1360A6
:101110009EE1664E03F00103307883F00103644FD3
:1011200098423B70069600F09381DFF8A4E1DEF868
:101130000C0080F01000CEF80C0011B1032940F033
:1011400058815C4802780146002A00F09980002B03
:1011500000F097802B68666E9B1BB3F57A7F80F05A
:101160007481012ADFF8308132D198F800200723FA
:10117000B2FBF3F3C3EBC303D31ADBB24E4A062B25
:10118000137045D0012B01D1032317E07BB9037005
:101190004A4B02221A710BF06FFFBBF82627484B0F
:1011A0001A80484A137843F0040313705EE0022B60
:1011B00001D1042302E0042B02D10823037055E07F
:1011C000052B01D1092350E0032B4DD001234CE026
:1011D000032A01D101200CE0042A01D1082008E0F3
:1011E000082A02D14FF4805003E0092A04D14FF4B9
:1011F000007007F093F939E0052A14D198F800300F
:101200002D4A03F00303032B13702DD0022B05D1BD
:1012100005F05CFD2C4A2D4BDA6027E00BB9062364
:1012200023E0072321E0062A0ED198F80030224A55
:1012300003F00703072B13701FBF0233012202FACA
:1012400003F3ABF83C370FE0072A0FD198F8000002
:101250000C23B0FBF3F203FB1203174ADBB20B2B98
:10126000137018BF8BF8F23105230B704FF0000993
:10127000072088F800900BF007FFC4F86490E4E0C2
:1012800043BB636E002B40F0E0802A68054B5A6632
:10129000DBE000BFAC050020D81F0020600C002060
:1012A000CC310020DC050020F42000209C0500202B
:1012B0009E050020A0050020D91F0020601D0020F1
:1012C000BC3000206C0600200400FA0500ED00E0B0
:1012D000000C01402A68616E521AB2F57A7F6CD216
:1012E000049B1B8803F004039BB2002B65D1974A33
:1012F0005366974B1A781846002A40F0A680954B03
:10130000B3F900209BF840379A4243DB9249934B54
:10131000D1F800E04A680989C3F800E01981DAF8D9
:1013200000105A60090544BF8D498E4E4FF00008E9
:1013300042BF83E842004FF4ED711981012303702D
:10134000894BDFF8789283F80080884B83F800801F
:10135000874BC3F80080CDF80080CDF8048099E871
:10136000030000230290ADF80C108248714606F08D
:10137000F9FA2A68784BCDF80080019299E80300C9
:101380000290ADF80C1093E806007B48002306F0AD
:10139000E9FA5AE0012007F0E3F8002855D0774A2F
:1013A0000A231068516890FBF3F091FBF3F1744B42
:1013B000B3F9002008F0C0F947E02B685B1AB3F5D9
:1013C000FA6F42D9049B1B885B073ED460490B78B7
:1013D000002B3AD0654A1378002B36D1694B1B7825
:1013E000002B32D10B7001211170614A63661360CA
:1013F0002BE0012929D123B9536E33BB2B685366E7
:1014000023E02968506E091AB1F57A7F12D29BF851
:1014100030370133DBB28BF830375BB2142B04DD8D
:10142000594B142283F8302701E005F04FFC0023CC
:1014300063660AE0554B1B681B1AB3F5FA6F81BF50
:1014400000235366022382F858303B78069A1370C3
:10145000049B1B8813F0070325D1444E3278BAB1A0
:101460004B4A1278002A00F0DD814A4A13604A4A4A
:101470001360384A1380D5E141F287312A68D21AC5
:101480008A4210D9414A1268D31A8B4200F2D281A3
:101490002F4B1D783DB9284607F062F818B101239B
:1014A0003370334B1D60049B1B885E073BD53B4B61
:1014B0001A7822B1264A0121117000221A70384B85
:1014C000197851B9224B1B781BB9214B1B78B3B942
:1014D00029E0344B1B78002BF7D0334B1E4A1B8876
:1014E000D360324B1B881381314B1B8803EB830382
:1014F0005B0053812B4B00221A700029E5D02D4B45
:101500001A781D467AB107F073FB9BF869310BB965
:1015100006F060FF284B0020198804F029F907F035
:101520009BFB00232B70049B1A8812F0060F40F0DF
:101530008C809BF82837012B40F0878012F0010F38
:101540000349104A3CD00B7047E000BFDC05002087
:10155000350700206007002040070020E020002021
:101560003F52D3022A3F8200F0200020F1200020C9
:10157000F4200020F82000202821002074060020FC
:101580007006002036070020600C0020CC310020BF
:10159000DA1F002014320020081F00209A050020C6
:1015A000A105002099050020CE260020F61E00206F
:1015B000520700209F050020C81F0020AC13002008
:1015C0000B7843B1AC4B93F83E07AC4BDB688342DE
:1015D00034BF0023012303F001031370137803B316
:1015E000049B1B88DD0701D407F036FBA44B1A7857
:1015F0001D466AB107F0FCFA9BF869310BB906F099
:10160000E9FEA04B0020198804F0B2F800232B70EB
:1016100094F85830032B18D09B4B012283F85820A4
:1016200013E084F858300B787BB1944B974AB3F9A8
:101630000830B2F908209B1A012B06DC059B1878AC
:1016400018B9BBF8261704F093F8914D2B681806CB
:1016500001D509F0DBFB2B68990540F1C8808D4A64
:10166000A16E136806925B1A9BF839178B4240F201
:10167000BE80894B00211E6830460CF00DFE10B173
:10168000864B00221A70864B1B780493002B40F087
:10169000AB80DFF830A2304651460CF01BFE00282C
:1016A00000F0A2807F4BB3F900000CF003FC314640
:1016B00007460CF049FB05900CF016FE9BF83837F6
:1016C00080EAE072A2EBE0729A426B4940F38680B6
:1016D000724A91F837971378DFF8EC814B454ED278
:1016E0003846314604930CF0E1FD049BA8B118463E
:1016F0000CF0DCFB3946824630460CF025FB0646F2
:1017000048460CF0D3FB31460246504607F060FFD6
:10171000014638460CF01AFB0FE018460CF0C6FBE9
:10172000064648460CF0C2FB05990246304607F0D3
:101730004FFF014638460CF007FBE066E06E0CF008
:10174000D3FDBBF83267BBF834379B1B58435A2391
:1017500090FBF3F030440CF0ADFB0CF0C5FD524BA8
:1017600081B21B88A8F800108B4202D0012003F040
:10177000FFFF4A4B494A1B780133137029E028D1F7
:1017800030460792B1F8327705910CF0ADFD05991E
:10179000414EB1F83437DB1B58435A2390FBF3F02A
:1017A00038440CF087FB0CF0C5FD81B20120A8F88D
:1017B000001003F0DDFF30680CF096FD394B079AFE
:1017C00018809DF81030C6F800A01370344A012329
:1017D0001370B8F80030344A138005E0304A012312
:1017E00013702D4BC3F800A0069B1B68A3662B68E3
:1017F0001A0701D501F0E6F92C4B1B78002B40F0BD
:10180000C0802B689B0640F1BC809BF86931002B9F
:1018100040F0B780184BB3F84E0109B0BDE8F04F67
:1018200000F0BEB8224F3B68002B7FF425AE2B683A
:101830003B6038E6002006F093FE00283FF428AE17
:101840001C4A00231068516833703B600A2390FBE8
:10185000F3F091FBF3F1184BB3F9002007F06CFFA4
:1018600021E60C2804D115480AF0C6FA144838E0DD
:101870007F293DD1FEF7EDBD600C00204007002020
:101880009F050020C81F0020DC050020E02000206C
:101890005C060020CC310020240000200420002021
:1018A00020000020AC050020AE05002036320020CC
:1018B000F42000207406002070060020096B010847
:1018C000046B0108000080BF062000200D293EF4B3
:1018D0003BAE7F2909D12C4A013B00212B482B60CC
:1018E000D1540AF089FAFEF7B4BD2F2B3EF6B1AD04
:1018F000A1F12002D2B25E2A3EF6ABAD13B9202987
:101900003EF4A7AD5A1C2A601F4A3068D15404F037
:101910000EFCFEF79EBD5A1EB95C202902D113466B
:10192000FEF71EBE184A00212B60D154184B194FE8
:10193000D3F800A03968DFF85090084604910FF002
:101940003AFC80460499424648460FF03DFC124A54
:1019500028B919F8083053445B78580703D010377A
:101960009742E7D307E0974205D208F10100FB68F0
:101970004844984702E009480AF03EFA0023FEF77F
:10198000F2BD09B0BDE8F08F2A1D0020306B0108C0
:1019900050000020545B0108445C0108146B0108EE
:1019A0002DE9F04FAE4C97B02378AE4F002B00F0EE
:1019B0009B813A686368D31A7C2B40F29581237A25
:1019C000626001332372242528460BF0EFFAA64B00
:1019D000013518880CF06EFA014600200CF072FBFD
:1019E000A2490CF0BBFA0CF07FFCEDB200B20BF098
:1019F000CBFA272DE8D130200BF0D8FA00200BF0DD
:101A0000C3FA0BF0CBFA257A15F003051FD1944BDE
:101A10005A6841F288339A420BD910200BF0C6FA6B
:101A200028460BF0B1FA21200BF0C0FA28460BF043
:101A3000ABFA14200BF0BAFA00200BF0A5FA1C2028
:101A40000BF0B4FA00200BF09FFA0BF0A7FA257AFE
:101A500015F0070540F0258102200BF0A7FA284673
:101A60000BF092FA03200BF0A1FA814B1B78590777
:101A70005DBF7B4B0520DB68284658BF9B89784DAE
:101A80005CBFB3FBF0F000B20BF07EFA2369DA071B
:101A90005BD5DFF8F491AA8A99F800304FF064081A
:101AA00008FB02325B00B2FBF3F3EE8A062036013C
:101AB000B6B246EA0326B6B2C3F303231E430BF0C5
:101AC00075FA30B20BF060FAEB8A99F80010013326
:101AD0009BB293FBF1F201FB1233EB82AB699B7B70
:101AE000012B05D139200BF061FAB5F9140019E08A
:101AF000AD8A6E235D43152695FBF6F53A20AEB20E
:101B00000BF054FAB6FBF8F528B208FB15650BF09C
:101B10003BFA3B200BF04AFAA8B2451D0A2095FB80
:101B2000F0F000B20BF030FA28200BF03FFA002062
:101B30000BF02AFA04200BF039FAE368988910B107
:101B400008F018F900B20BF01FFAE369444E9B0647
:101B500040F19C8096F820309D071BD511200BF09A
:101B600025FA708C4FF4F3656843424B90FBF3F019
:101B700000B20BF009FA19200BF018FA708C4543EB
:101B8000642095FBF0F595FBF0F300FB135000B2D9
:101B90000BF0FAF994F82030A58C13F0020F08BF6F
:101BA000002501200BF002FA28B20BF0EDF9092014
:101BB0000BF0FCF900200BF0E7F92F4B94F82650BE
:101BC0001A88B2F5967F0AD9254B1B7A03F00F03CA
:101BD000072B04D842F20F75954228BF1546052001
:101BE0000BF0E4F9A3695B7B0BB928B216E0A5F111
:101BF00020000CF05FF921490CF064FA0021054641
:101C00000CF04AFB10B94FF07C5101E04FF03F411E
:101C100028460CF09BF80CF067FB00B20BF0B4F90F
:101C200094F820200E4B900703D493F82720012A24
:101C300004D1012384F8273011482EE09D69114911
:101C400068680CF08BF90CF04FFB0E490890A868FF
:101C50000CF084F90CF048FB099008A81DE000BFC7
:101C60004C060020CC3100200200002000007A4405
:101C700031320020A08601003C0000206666E63F6D
:101C8000740600208096184B3A000020AC4A08AB3E
:101C900092E8030083E8030018460BF097F90BF075
:101CA0007DF9237A282B1FD1A64B00221A723B689C
:101CB0004FF47A70B3FBF0F83C2617200BF076F95E
:101CC000B8FBF6F5B5FBF6F006FB1050000200B2CB
:101CD0000BF05AF918200BF069F906FB158000B2D9
:101CE0000BF052F90BF05AF994F83030954D002B67
:101CF00000F0488104F0D8F86B6B934AC31A934202
:101D0000064640F2B780002385F83A3085F83C302B
:101D1000AB8ADAB21B0A85F8562085F8573085F869
:101D20004C2085F84D306A6E3B689A1AAB6ED97BB1
:101D30004FF47A734B439A420DD3844B1B686B6606
:101D400095F86C30013B012B9FBF102385F83A308A
:101D5000022385F83C30002394F8201084F8543096
:101D600084F8553084F8583084F8593094F8263087
:101D70008907744A84F8873003D42D2382F8883089
:101D800077E0D4F828907248042B99FBF0FADFF83A
:101D9000CCC18CBF3323322382F888300CFB0A92EB
:101DA0004FF0060E0EFB02F26A4BE56A92FBF3F16E
:101DB00095FBF0F003FB1122642792FBF7F20CFB7A
:101DC000005C0EFB0CFE84F87920121284F87A2055
:101DD0009EFBF3F203FB12E393FBF7F30AEB8A0A91
:101DE0004FFA81F80AEB8A0A08EB8A0189B284F873
:101DF000771000EB8000090A84F8781000EB80006F
:101E000051B201EB800292B284F87C20120A84F86D
:101E10007D2084F87E30628C1B1284F87F3024236E
:101E200053434FF47A7293FBF2F384F87430C3F3A4
:101E3000072384F87530B4F89A300A2284F8803089
:101E40001B0A84F88130A38C4FEAD979B3FBF2F3F3
:101E500003F5FA739BB284F882301B0A84F883304E
:101E6000B4F89C30ED0F84F8769084F87B5084F8B9
:101E70008930666394F89E80324DB8F1000F0DD121
:101E8000D5F8A40004F050F9012807D90228324FF0
:101E900000F04F860BF06AF80123BB70D4F8A8500D
:101EA000284B002D6ED093F89E203AB140F6B73102
:101EB000D3F8B020B21A8A4216D863E0012283F820
:101EC0009E20D3F8B420D3F8A4001278022A04D8B4
:101ED000043002210BF034F802E0022104F0CCF8C7
:101EE000002384F8B8304BE093F8AC20AAB9C3F8CB
:101EF000A82083F89E20D3F8B420D3F8A400127849
:101F0000022A04D8043001210BF01AF802E0012162
:101F100004F0B2F80BF02AF832E0013AD2B283F8BA
:101F2000AC2093F8B81093F8B900CAB901304A1C34
:101F300083F8B90083F8B820D3F8A4001EE000BFEE
:101F4000505801084C0600203F0D0300CC31002002
:101F50008096980040420F0002000020806967FFD1
:101F60002A4612F8017B01307D18394683F8B90002
:101F7000D3F8A40083F8B850C3F8A82004F0D7F829
:101F8000C4F8B06094F8BA30B74DF3B1D5F8BC30AE
:101F9000DBB1D5F8C030C3B1C5F8C4301B68B34A53
:101FA000C5F8C830D5F8CC301344187A01F072FB6C
:101FB000D5F8C430987909F0E1FED5F8CC3001337A
:101FC000092B88BF0023C5F8CC30A94D94F8D02048
:101FD0002E68A54B002A00F05381D3F8D420002AA4
:101FE00000F04E8193F8D830013B012B00F248817C
:101FF000D4F8D4009C4F04F097F8E0B1D7F8D4009F
:1020000004F08FF897F8D93080467E2BD5F80090F1
:102010000ED102231B2887F8D83009D1D7F8D40075
:1020200004F082F820B90123C7F8DC9087F8E0308B
:1020300084F8D980DCE7D7F8DC202B689B1A41F6BE
:10204000583293421DD9032387F8D83018E1894AC2
:1020500032F8130010B903464FF403600133B0F5B2
:10206000C06FDBB25AD01DD9B0F5006F5CD02FD94C
:10207000B0F5036F36D184F8E130E3697A4F990601
:1020800037D494F8E01094F8E130002900F0F6809D
:102090002A68921B012ADAD984F8E130002384F8F7
:1020A000E030EDE0B0F5007F38D006D8B0F5807FA5
:1020B00068D0B0F5887F65D0E7E7B0F5806F74D061
:1020C000B0F5826F00F09080B0F5047FDDD11CE0A8
:1020D000B0F5E26F65D0B0F5E46F62D0B0F5E06FB7
:1020E000D3D15EE0B0F5046F5BD0B0F5026FCCD118
:1020F000A5E097F820309A07C3D5798C24234B4369
:102100006421123393FBF1F1A8E084F8E1302369F4
:10211000554FDB07B5D5BB8A0A219EE084F8E13034
:10212000236913F0400F32E0E1694F4A880684F8D2
:10213000E130A6D592F820108907A2D5DB0710D58B
:10214000D36A192283EAE371A1EBE37101EB510138
:10215000B1FBF2F1002BACBF41F0004141F0404136
:102160000DE0936A192283EAE371A1EBE37101EBBD
:102170005101B1FBF2F1002BB8BF41F080414FF4A7
:1021800000604BE084F8E130E36913F0040F3FF4A2
:1021900078AF00210AF0A0FE334B002283F8E02044
:1021A0006FE784F8E130002138E084F8E13094F8FA
:1021B000E2302D4A0133DBB2032B88BF012382F8C2
:1021C000E23042F2107394F8E21059432A4B1B7824
:1021D000DF0748BF0131980748BF02315A0748BF9F
:1021E00004314FF4806019E0E169DFF87C8011F080
:1021F000200784F8E13017D098F8202012F0020F61
:1022000014BF4FF47A71002112F0010F14BF4FF484
:10221000FA6300230B4494F8261019440AF05CFE7C
:10222000002384F8E0302CE7D8F810301B077FF546
:1022300028AF39460AF050FE88F8E07021E784F8AC
:10224000E130E369084F99067FF51BAF97F820301E
:102250009A077FF516AFBB8C642159430AF03CFE08
:10226000002387F8E0300CE74C06002050580108A6
:10227000CC310020906B01083132002084F8E1302D
:1022800094F8E320814B002A5CD02968D3F8E4203D
:102290008A1AC72A56D993F8E820C3F8E41093F8AD
:1022A000E910013283F8E820794E93F8EA2029B941
:1022B0007AB93270D3F8EC00232141E04AB9327880
:1022C0003AB9D3F8EC00582103F031FF0123337001
:1022D00038E03378B3B3D4F800310A26A4F8F230EA
:1022E000B4F8FC300027A4F80431B4F8FE304420E0
:1022F000B3FBF6F384F8F070A4F806310AF0DAFDC7
:102300000121B4F9F2000AF0B7FD48200AF0D2FD2D
:102310000121B4F904010AF0AFFD41200AF0CAFD21
:102320000121B4F906010AF0A7FD2A200AF0C2FD36
:1023300094F8F00039460AF09FFD3146D4F8EC00DD
:1023400003F0F5FE94F80821504B002A00F0978125
:102350002968D3F80C218A1A092A40F2908193F84F
:102360001021C3F80C1193F8E910013283F8102101
:1023700093F8EA20474B09B932B903E022B91A7839
:1023800012B901221A707AE11B78002B00F07781D4
:1023900094F8113105220133DBB2B3FBF2F202EB08
:1023A000820284F811319B1A13F0FF031FD101221E
:1023B0008DF824208DF825208DF826208DF82720F3
:1023C0000327354A08938DF8287008AE03CE17729C
:1023D000106051600920322102F8013C09F0B2FB83
:1023E00009F097FB294BA3F812010AF021FD94F89C
:1023F00011310A21B3FBF1F201FB123212F0FF0F8F
:1024000032D1642B30D8002308930123ADF8243057
:10241000ADF8263002238DF83830204B0AAE03F198
:102420001007324618685968083303C2BB42164683
:10243000F7D1194B08AE0EAF324603CABA42186044
:102440005960164603F10803F6D11278DC211A70A0
:10245000134B16221920DA7109F074FB09F059FBAD
:10246000A4F812010AF0E4FC94F811111E23B1FB48
:10247000F3F203FB121313F0FF0F40F09380034BB2
:10248000B3F8143173B19BB20DE000BF4C060020CD
:102490003332002032320020642E0020CF6B01083E
:1024A0005C2E00200823D4F8F4100A2202FB01F06D
:1024B000D4F8F81000264A430B9200220027ADF80A
:1024C0003420ADF83620ADF83A208DF83C2008AA2B
:1024D000CDE908671646B4F9FC104FF47A7E0EFB7E
:1024E00001F18DF83D30774B0A900C91ADF838E052
:1024F0000DF13808174603CF4745186059603A4632
:1025000003F10803F6D1386818211860BA886E4FB5
:102510009A801E20F97109F015FB09F0FAFAA4F867
:1025200012010AF085FCD4F8F4200A2303FB02FB15
:10253000D4F8F820B4F9FC9003FB02FAD4F818019F
:102540004FF47A7303FB09F90BF0F4FE00230893B0
:10255000ADF83430ADF83630ADF838303346CDF81C
:1025600024B0CDF828A0CDF82C90CDF83090ADF85F
:102570003A0007F108021E4603CE4645106051603E
:10258000334602F10802F6D1306821231060682139
:102590001C20FB7109F0D6FA09F0BBFAA4F812016D
:1025A0000AF046FC94F811111E23B1FBF3F203FB71
:1025B0001213DBB20F2B454E61D1D6F818010BF088
:1025C00093FE1FFA80F8B6F9FC000BF073FC08AA22
:1025D00016463F4B0027089309930023ADF832308D
:1025E000384B0A900B97ADF830800DF1300C9646C1
:1025F000BEE80300E64518605960724603F108031F
:10260000F5D1DEF80000DFF8C080186014204A23FE
:10261000014688F8073009F095FA09F07AFAA4F82B
:1026200012010AF005FCD4F82431D4F820210B93D0
:102630003346D4F81C1100200DF1580E0A92089070
:1026400009910C970D974EF8207D08F108021E465F
:1026500003CE764510605160334602F10802F6D190
:1026600030681E23106027211C2088F8073009F0ED
:1026700069FA09F04EFAA4F812010AF0D9FB94F8AD
:102680002821124B002A00F0FD802968D3F82C2164
:102690008A1A092A40F2F68093F83021C3F82C11E7
:1026A00093F8E910013283F8302193F8EA20094BBE
:1026B00009B98AB903E07AB91A786AB901221A709D
:1026C000E0E000BF642E00205C2E00204C060020BD
:1026D00000002041343200201B78002B00F0D28013
:1026E00094F831311E210133DBB2B3FBF1F284F8EF
:1026F000313101FB123313F0FF03964E59D1964F3F
:1027000086F832317968386808AB03C308A80AF044
:1027100093FA0AF07DFA0AF0C9FA0AF079FA0AF097
:1027200023FB0AF075FA0AF0D3FA0AF071FA3120A5
:102730000AF062FA0AF06CFAB6F8142107F10801FF
:1027400008A804F0FFF908A80AF076FA0AF060FA7F
:10275000D6F8346130460BF0EDFD80495FFA80F821
:1027600030460BF0FBFB06460A2000FB08F00BF09E
:10277000A1FB014630460BF0E7FA0BF0DBFD07F159
:102780000E01C3B2424608A804F0DCF908A80AF01A
:1027900053FA0AF03DFA0AF033FB0AF039FA0AF06C
:1027A0002FFB0AF035FA0AF033FA0AF059FA0AF068
:1027B00005FA94F831111E23B1FBF3F203FB121357
:1027C000DBB20F2BDFF88C815CD1654E08AB7168F2
:1027D0003068002703C308A888F832710AF02CFA81
:1027E0000AF016FA0AF062FA0AF012FA41200AF028
:1027F00003FA0AF00DFA0AF0B7FA0AF009FA0AF039
:1028000067FA0AF005FAD8F838010BF093FD06F1E3
:10281000080182B23B4608A804F094F908A80AF01F
:102820000BFA0AF0F5F9D8F818010BF083FD3B46D6
:1028300082B206F1080108A804F084F908A80AF099
:10284000FBF90AF0E5F906F11201D8F83C2108A8D5
:1028500004F078F908A80AF0EFF90AF0D9F906F1BE
:1028600008013A463B4608A804F06CF908A80AF0AB
:10287000E3F90AF0CDF945200AF0BEF90AF0F0F9C3
:102880000AF09CF994F84031DFF8C880002B00F082
:10289000AD80D8F84431002B00F0A8802F68D8F81C
:1028A0004831FB1A632B40F2A1802E49D8F8180159
:1028B0000BF054FB0BF03EFD86B241200AF066F9A6
:1028C00000200AF05AF900200AF057F930460BF0C0
:1028D000F1FA22490BF0F6FB0BF02CFD80B20AF066
:1028E0004CF90AF01FF998F84C6116F001063BD03C
:1028F000D8F81C309B064BD5B8F914314720052B6E
:10290000B4BF022603260AF041F9D4F8F4004FF0D0
:102910000A0808FB00F00AF01FF9D4F8F80008FBD9
:1029200000F00AF019F90F49D4F838010BF016FB42
:102930000BF000FDC0B20AF0FFF8B4F9FC306420DF
:1029400058430AF009F9B4F9140146EA8000C0B20C
:102950001AE000BF4C060020625801080000204128
:102960007A5801080000C84253200AF00FF9304697
:102970000AF003F930460AF000F930460AF0DCF8B4
:1029800030460AF0D9F801200AF0D6F80AF0CAF861
:1029900094F84C61DFF81C92DEB94F200AF0F6F88B
:1029A000D9F8F4004FF00A0808FB00F00AF0D4F858
:1029B000D9F8F80008FB00F00AF0CEF830460AF02B
:1029C000CBF801200AF0B8F801200AF0B5F80AF0B7
:1029D000A9F894F84C310A210133DBB2B3FBF1F2D0
:1029E00001FB1233C4F8487184F84C3194F84D312E
:1029F000704F002B00F0DA802A68D7F85031D31AD4
:102A0000C72B40F2D38097F8543197F855E1013342
:102A100087F8543197F85631C7F85021734500F0C4
:102A2000C5802C2505FB0E7508AE05F5AC750FCDE0
:102A30000FC60FCD0FC695E8070086E80700D7F848
:102A4000C8240EF1010E9EFBF2F302FB13EE0C9B69
:102A5000002487F855E187F85741DDF82090DDF82C
:102A60002480DDF828A0BDF82C609DF83450BDF816
:102A700036B007930E9B504904939DF83C309DF867
:102A800046200593BDF8483008A80693BDF84430A9
:102A9000109F04F057F808A80AF030F86DB232B26F
:102AA0006A434649079B08A804F04CF808A80AF0B6
:102AB00025F89DF914300FFA8BF25A433F49049BD5
:102AC00008A804F03FF808A80AF018F850460BF0E0
:102AD00031FC85B248460BF02DFC80B20090404698
:102AE0000BF028FC069B80B20190029308A83449A1
:102AF0003A462B4604F026F808A809F0FFFF2D4DB2
:102B0000661C95F85731E4B2A34208D92C4494F8D6
:102B1000D014D5F8CC0403F00AFB3446EFE7D5F81F
:102B2000CC040A2103F003FBB5F80036A5F8D03534
:102B30003CE0BB782BB1C5F8A06087F80280FFF7B6
:102B4000ADB9D5F8A030F31AB3F57A6FFFF4A6A9A2
:102B50000123D5F8A400BB7003F0E3FA0746D5F8CB
:102B6000A40003F0DEFA7F067FF498A98A2803D038
:102B70008E280DD0FFF792B9EB6998067FF58EA9E4
:102B800095F89E30002B7FF489A905F16D0306E0CE
:102B900095F89E30002B7FF481A905F13803C5F824
:102BA000A8302D2385F8AC30FFF778B917B0BDE811
:102BB000F08F00BF4C060020B06B0108B76B010816
:102BC000C06B01082DE9F04F9D4C87B02368C3B955
:102BD0009C4D2B78013B042B00F24285DFE813F07B
:102BE0000D040D040D040705E804954B186803F067
:102BF00098FA954B05461B681B7843B1012B00F0F2
:102C00006E81206803F090FA0028EED1E0E72428D6
:102C10008E4E0CD006D80A2800F0DB800D2800F07C
:102C2000D8804AE12A2806D02C2804D045E1337008
:102C30007370B370E5E7864B717896F800800020DA
:102C4000824A5854B8F1000F1DD1197882F80380D8
:102C5000472918D1597850290FD19978472940F040
:102C6000E384D978472940F0DF841979412940F07D
:102C7000DB840121D17000F0D7BC4E2903D19978B3
:102C8000472900F0C584F278704F022A3AD0032A0F
:102C90004FD0012A40F08C80A8F10202072A00F2EE
:102CA0008780DFE802F004080F131A25852A08F050
:102CB00032FE70607CE01B78532B79D173685B42E5
:102CC000736075E008F027FEB06071E01B78572B49
:102CD0006ED1B3685B42B3606AE01B78302B5D4B0A
:102CE0001A788CBF42F0020222F002021A705FE0F2
:102CF000002008F06FFE30735AE0002008F06AFEF2
:102D0000F08155E0B8F1070F07D0B8F1080F4FD1A7
:102D1000012008F05FFE78824AE0012008F05AFEA8
:102D200041F2184358434FF47A73B0FBF3F0388202
:102D30003EE0B8F1020F08D0B8F1030F0AD100202D
:102D400008F048FE444B187032E0002008F042FEC4
:102D500038752DE02CD9A8F1040292103B7D013288
:102D6000D2B2013B02EB8303DBB2102B20D8A8F1D7
:102D70000301C2F1010201EB8202D2B2012A0BD09F
:102D8000042A11D100205F1E08F024FE334B0022DC
:102D9000D855334BDA5507E0324A5F1E0020D35531
:102DA00008F018FE304BD855304A136801331360D1
:102DB000264B00222A2D727018BF9A7808F101085C
:102DC0000CBF0122554086F800800CBF5A759D70DB
:102DD00017E7737D002B6AD0254B13F8012D254989
:102DE0005A708B42F9D11A4AB07813785278402B36
:102DF00085BF373B1B011B01DBB298BF03F0F0031B
:102E0000402A8CBF373A303AD2B21344DBB29842F0
:102E10000E4A49D121230B70174916480B6801331C
:102E20000B60D378012B2DD0022B3FD17223118A56
:102E30000370124B528A1980114B1A8036E000BF82
:102E40000C050020D004002008050020B813002045
:102E5000102E00206C06002044160020751600205D
:102E6000651600204516002055160020002700207A
:102E700004050020F00400200C2700206E0600202E
:102E80003816002067210170A54909788D070ED5F5
:102E9000A4495068086090684860107BA249087097
:102EA000D189A24A118002E03F230B700023002247
:102EB0007275002B3FF4A5AE6CE173780E2B9FBFAB
:102EC0009B4A591C51709B4A98BFD554737D984AB0
:102ED000002B7FF496AE93785D40957091E6944B0D
:102EE0009A7D082A3FF68DAEDFE802F0050C131933
:102EF000242F4A606A00B5287FF483AE0022DA7579
:102F0000012202E0622802D000229A7579E60222AC
:102F1000FBE703229A7518765876987671E60422B4
:102F20009A755A7E997E0244D2B25A760A449A76AB
:102F3000D87666E605229A755A7E997E0244D2B208
:102F40005A760A449A7698835BE606229A755A7EE8
:102F5000997E0244D2B25A760A449A769A8B02EB50
:102F60000025ADB2B5F5AC7F82BF714A0121D175A4
:102F700000229D83DA83002D7FF443AE0722C4E74D
:102F80005A7E997E0244D2B25A760A449A76DA8BF5
:102F9000B2F5AC7F3EBF6649891881F82000013246
:102FA000998B92B29142DA83E8D92AE608229A757F
:102FB0005B7E83423FF425AE5D4B0122DA750EE065
:102FC00000225D499A7511F8012D4A705B4A9142C1
:102FD000F9D1987E564AA84206D03F230B70584A32
:102FE0005368013353600CE6564D28680130286061
:102FF000D07D10B13E230B7003E621200870D07EF7
:1030000006284DD004D8022814D0032830D0F8E583
:10301000122864D030287FF4F4AD4920087092F86B
:103020002410494A102988BF10211170107847498F
:10303000002264E0502008703A49506A4860906A63
:103040000860116B4FF47A7091FBF0F13748018002
:1030500092F87811324A19B1117841F0020102E078
:10306000117821F002011170012283F8792181E0A9
:103070005320087092F8251011F0010105D092F844
:103080002420D01E4242424100E00A4683F87821C3
:10309000002A6FD122490A7822F002020A7069E000
:1030A0004F20087092F82B1011F0010105D092F812
:1030B0002A20D11E4A424A4100E00A4683F878217C
:1030C00022B917490A7822F002020A7093F84F10C9
:1030D000154A1170B3F84C101D4A11804AE0562071
:1030E0000870506B1B49088042F21070916B91FB85
:1030F000F0F119480180012182F87A113AE0824208
:1031000034D20E7A154D56554E7A154D5655CE7A07
:10311000144D565511F80C6F134D56550132EEE70C
:103120006C06002074060020720600207006002045
:10313000B8130020102E002004050020F004002009
:10314000D00400200C27002044160020D8130020B3
:103150003C0000206E060020381600204516002096
:10316000551600206516002075160020AE490A6825
:1031700001320A6093F87931AC4A002B3FF441AD3B
:1031800092F87A31002B3FF43CAD002382F879317C
:1031900082F87A31A64BDFF8D082DA681A61A54A44
:1031A0001268DA60A44A136843F020031360A34B4B
:1031B0001A78012A0CBF002201221A7098F80030F8
:1031C0009A077FF51EAD9E4A1278042A7FF619AD44
:1031D0009C4A127802F0040202F0FF011AB923F0AF
:1031E000010388F8003098F80070904E17F0010F36
:1031F000954D24D119B3BB0721D5944B28686A6833
:1032000018605A600AF056FE002181460BF062F801
:1032100008B1484601E009F100408D490AF052FF2B
:103220008C490AF09BFE03F037FD8B4B47F00107FA
:1032300018608A4B88F800701B88A6F87C3196F8D5
:103240007E21531C052293FBF2F202EB82029A1AB2
:1032500096F87F3186F87E21029392000023DFF8F2
:10326000E8919900DFF814A2039159F82310DFF8D0
:1032700010E291FBFAFC0EF1080040F823C07848F8
:103280004EF8231000FB0C1142F2107091FBF0F08D
:103290000EF1100680B226F813004FF014080EF15C
:1032A000140608FB03680EF13C0B58F802705BF83B
:1032B000236048F80210F61B0E4405214BF82360EA
:1032C00096FBF1F60AFB0C6602990EF1440E0129F9
:1032D0004EF82360C84606D10238B0F5797F9CBF0E
:1032E000039941F809600BB90123B8E7DFF844916D
:1032F0004E4FD9F80000D7F8CC31C01A0AF0D6FDED
:1033000058490AF0DFFED9F800304FF07E51C7F877
:10331000CC3106460AF0C0FF08B94FF07E56524B3A
:10332000C7F8D0611B78DFF85C9113F001034F4EB2
:1033300013D004AA0092454B05AA01920CCB98E841
:10334000030009F0EFF8049A6421B2FBF1F2059B47
:10335000A9F8002093FBF1F301E0A9F800303380D5
:1033600097F8D431314E002B3BD0D6F8D0114FF026
:103370007E500AF0A7FE8246D6F8D8312868C01AD7
:103380000AF098FD51460AF0E9FD0AF0ADFFD6F8C3
:10339000DC311FFA80F968680FFA89F9C01A0AF05F
:1033A00089FD2D4B19680AF0D9FD51460AF0D6FD6A
:1033B0000AF09AFFB6F9E22100B28118B6F9E021CD
:1033C000022009EB020391FBF0F193FBF0F389B2C9
:1033D0009BB2A6F8E611A6F8E431A6F8E211A6F829
:1033E000E031012387F8D431D8F80430C7F8DC3154
:1033F000D8F80030C7F8D83103E41D4E326817788A
:1034000017B1012F40D02BE1012B00F229816A78FE
:10341000184B0C2101FB02335A78174B206853F8E4
:10342000221002F07BFE8DE000270020B813002060
:10343000D0040020CC310020680600203A1600207D
:103440007206002031320020740600203C16002055
:103450008096184B35FA8E3C08000020580C00204E
:10346000806967FF00007A446C060020E8060020AF
:1034700008050020DC520108445C01088096980091
:1034800038150020E60600202068DFF8048202F0EC
:10349000F6FD002800F0E4802A78734B022A3FD022
:1034A000032A4CD0012A40F0DB80704A10689A69E8
:1034B000821AC72A40F2D480596904292ED86C4A4E
:1034C0000C24964604FB0121D8F800404E78A768EA
:1034D000986100236749D8B251F82320BA4204D03A
:1034E00001330B2BF6D1002300E00346B34205D095
:1034F000204651F8261002F011FEB1E06B780C2145
:1035000001FB03E2566816F8011B19B1204602F0D0
:103510000EFEF8E76B6901336B61A1E0022074E0F5
:103520005A78534B0C2101FB02335A78514BD8F88F
:10353000000053F8221002F0F1FD032065E032682C
:1035400092780AB9042060E01A7F02B91F772B7FB6
:10355000454F012B0FD17B69B22B08D8464A206812
:10356000D15C02F0E4FD7B6901337B6103E0002361
:103570007B6102233B772B7F3B4F022B14D17A696F
:103580000F2A0FD833683C495B78206803EB03139C
:103590000B44134493F8B41002F0C9FD7B69013366
:1035A0007B6101E003233B772B7F022B58D9C9E7CE
:1035B000AB682D490133AB60304B1B68DB784BB1F6
:1035C0004B7805220133DBB2B3FBF2F202EB82024D
:1035D0009B1A4B70254B00221B680120EB60284B87
:1035E0001A70284A137823F0020313700DE01F4B62
:1035F000EA681B689B1A40F6C412934230D9224AEB
:103600000520136823F02003136008F07DFF27E0F6
:10361000D97847297FF437AB197941297FF433AB47
:103620000121D170FFF72FBB9978184A522907D191
:10363000D1784D2904D11279432A01D10222F270A6
:103640009978124A47297FF41EABD17853297FF429
:103650001AAB1279562A04BF0322F270FFF713BB8C
:1036600007B0BDE8F08F00BFD0040020CC310020AF
:10367000DC520108445C0108A0580108080500203C
:10368000720600206C06002068060020102E002024
:103690000C05002070B56428A0B0044600F08881B5
:1036A00000F2AF80342800F08F8351D8222800F038
:1036B000538323D8032800F0468114D8012800F052
:1036C0003781022840F09F85042008F069FB4320E1
:1036D00008F054FB4C2008F051FB462008F04EFB4C
:1036E0004C2000F0D7BC042800F03681052840F0BB
:1036F0008A851A2008F054FB002440E1282800F0B5
:10370000618415D8242800F04884262840F07B8561
:10371000D14C062008F044FBB4F8580108F05AFBDD
:10372000B4F85A0108F056FBB4F85C0100F067BD2C
:103730002C2800F05A84322800F0A6842A2840F071
:103740006285012008F02CFBC34B587900F0A2BC25
:10375000422800F0AC841BD83A2800F025820BD810
:10376000362800F0C584382840F04D85042008F044
:1037700017FBB94C00F017BC3B2800F0E68240284C
:1037800040F04185082008F00BFB002400F085BCC8
:10379000472800F0DF8424D8452800F00C8546280F
:1037A00040F031850D20AD4C08F0FAFA05F026FE08
:1037B00008F0E4FA208808F016FBE06808F013FB34
:1037C000A74A92F8B70092F8B63098422ABFC31AB7
:1037D000C3F1800300200344D2F8B800184400F07D
:1037E000F9BC4B2800F020844D2800F02C84492897
:1037F00040F00985022008F0D3FA974B988900F031
:10380000FEBC722800F005834AD86A2800F0458380
:1038100025D8672800F03C8111D8652800F0D880B1
:10382000662840F0F084122008F0BAFA8D4B00248C
:103830001B88B3F5806F8CBF08250125EFE0682851
:1038400000F09381692840F0DE84854D002495F8CE
:103850003800400000F0FE0008F0A2FA91E16D2867
:1038600000F09B8112D86B2800F037836C2840F061
:10387000CA84062008F094FA002008F0ABFA002071
:1038800008F0A8FA784B188800F0B9BC6F2800F04F
:10389000A481C0F08F81702800F0C98100F0B3BC12
:1038A000782800F0018113D8752800F0428204D8EE
:1038B000732800F0E782742803E0762800F01E8366
:1038C000772840F0A084002008F06AFA00F099BC44
:1038D000A42800F0348314D87C2800F07E84A0282B
:1038E00040F091840C2008F05BFA604B186808F0F7
:1038F0007AFA5F4B186808F076FA5E4B186800F0A9
:1039000069BCF12800F00B81FE2800F03F83F0280D
:1039100040F07984524C042008F042FAE369B3F88D
:103920005A0008F057FAE369B3F8580000F067BC92
:10393000032008F035FA002008F020FA204608F0AD
:103940001DFA0E20A6E308F02BFA062008F016FA5E
:10395000052008F013FAF0E2062008F021FA4120D1
:1039600008F00CFA462008F009FA4E2008F006FA92
:10397000412008F003FA404B187800F040BC3F4B60
:10398000185D013408F0FAF90B2CF8D100243C4BF7
:10399000185D013408F0F2F9082CF8D10024394BF5
:1039A000185D013408F0EAF9072CF8D100F029BCC1
:1039B000072008F0F5F9E72008F0E0F9264B5879E0
:1039C00008F0DCF9002008F0D9F9042000F002BC6E
:1039D000234C0B2008F0E4F9208808F0FBF96088FC
:1039E00080B208F0F7F9284B1B68C3F3C000C3F39B
:1039F0008002800040EA4200C3F340021043C3F358
:103A0000401240EAC20003F01003184308F0E2F944
:103A1000002008F0E8F9104B93F8F0063AE31B4B4E
:103A200033F91400013490FBF5F080B208F0D2F9BC
:103A3000032CF4D100200A4C08F0CCF9002008F047
:103A4000C9F9002008F0C6F9A08808F0C3F9E08899
:103A500008F0C0F92089D2E3600C00200C0000209F
:103A6000D015002002000020580C0020E8F7FF1FAE
:103A7000ECF7FF1FF0F7FF1F35320020DF6B010866
:103A8000EB6B0108F46B0108680600205A0C00205B
:103A9000102008F085F90024C04B185D013408F0AF
:103AA0006DF9102CF8D1ACE3702008F079F90026FC
:103AB0000E247443BA4D0136EB692344B3F819015F
:103AC00008F088F9EB692344B3F81B0108F082F988
:103AD000EB692344B3F81D0108F07CF9EB6923443A
:103AE00093F81F0108F04AF9EB69234493F8200189
:103AF00008F044F9EB69234493F8210108F03EF9FA
:103B0000EB69234493F8220108F038F9EB691C446F
:103B1000D4F8230108F067F9082EC9D171E37020A9
:103B200008F03EF99F4C04F1700594F8D00008F0BD
:103B300025F994F8D10008F021F994F8D20008F0A2
:103B40001DF994F8D30008F019F994F8D40008F09E
:103B500015F994F8D50008F011F9073494F8CF005E
:103B600008F00CF9AC42E0D14BE3102008F018F952
:103B700000248D4B185D013408F000F9102CF8D1A9
:103B80003FE395F838309C4280F03B83874B33F815
:103B9000140008F01FF90134F3E7062008F000F9DB
:103BA000002008F020F916E0042008F0F9F87C4B1A
:103BB000186E0FE3072008F0F3F87D4B1888FF28F4
:103BC000A8BFFF20C0B208F0D9F8002008F002F921
:103BD000002008F0FFF8002011E3714C0B2008F0E2
:103BE000DFF8636E2546187808F0C8F8636E002683
:103BF000587808F0C3F86B6E694C33441879013675
:103C000008F0BCF8032EF6D1636ED87908F0B6F848
:103C1000636E987808F0B2F8636ED87808F0AEF862
:103C2000636E588908F0D6F8636E187A32E25C4CFD
:103C30001E2008F0B5F8E36900251B78022B65D13A
:103C4000E36905F1080253F822005A490AF086F99F
:103C50000EF0B6F980F30800C0B208F08FF8E369FF
:103C6000554903EB8503D86A0AF078F90EF0A8F9F4
:103C700080F30800C0B208F081F8E36905F10E0294
:103C800053F822004D490AF069F90EF099F980F3D2
:103C90000800C0B2013508F071F8032DD0D1072D0E
:103CA000E36921D1586C43490AF058F90EF088F9BC
:103CB00080F30800C0B208F061F8E3693D49986CF0
:103CC0000AF04CF90EF07CF980F30800C0B208F05D
:103CD00055F8E36993F84C000AF0E8F80EF070F933
:103CE00080F30800C0B20BE02B44587808F046F887
:103CF000E3692B44D87A08F041F8E3692B44587DF6
:103D0000013508F03BF80A2DC9D17AE2E3692B446A
:103D1000587808F033F8E3692B44D87A08F02EF885
:103D2000E3692B44587D013508F028F80A2DEDD1C0
:103D300067E22F2008F034F8214C14F8010F002816
:103D400000F05F8208F01AF8F7E7012008F028F881
:103D5000134BDB6918789DE1502008F021F800250D
:103D60000F4B0C21DC69174B04EB850494F8792088
:103D7000013501FB023393F8380007F0FFFF94F898
:103D80007A0007F0FBFF94F87B0007F0F7FF94F848
:103D90007C0007F0F3FF142DE2D132E2DA150020A7
:103DA000D0150020600C0020F01500200A1600201D
:103DB00060060020000020410000C84200007A4454
:103DC000A7590108A8590108482007F0E9FF002574
:103DD000D44BDC69062303FB054494F8CE0007F0BE
:103DE000CDFF94F8C90007F0C9FF94F8CA0007F0A6
:103DF000C5FF94F8CB0007F0C1FF94F8CC0007F0A2
:103E0000BDFF013594F8CD0007F0B8FF0C2DDFD1D0
:103E1000F7E1C54C162007F0C3FFB4F8940107F092
:103E2000D9FFB4F8400107F0D5FFB4F8420107F01C
:103E3000D1FFB4F8440107F0CDFFB4F8D60107F084
:103E4000C9FF94F8E70107F099FF002007F096FFFB
:103E500094F8E80107F092FF94F8830107F08EFFD1
:103E600094F8900107F08AFF002007F087FFAD4B20
:103E70000A20DB69B3F9563093FBF0F080B207F00B
:103E8000A9FF90E0082007F08BFF0124E0B2013485
:103E900007F074FF092CF9D1B3E1102007F080FF7F
:103EA000A24BA34C187800F0020007F067FFA14B6B
:103EB000187807F063FF206807F095FF606807F047
:103EC00092FF9D4B188807F085FF9C4B188807F0E0
:103ED00081FF944BB3F8680091E1052007F060FF83
:103EE000974B188807F076FF964B188807F072FFFB
:103EF0008C4B93F86A0000F00100CBE007F034FF30
:103F00000646122007F04CFF1EB9864BDD6E1C6F73
:103F100001E000242546304607F030FF284607F030
:103F200062FF204607F05FFF002007F05CFF0020E3
:103F300007F050FF002007F04DFF0020AAE0794D68
:103F4000002495F874002E4680000130C0B207F0BE
:103F500027FF95F8740007F011FF96F874309C4223
:103F600080F04F81784D285D07F008FF05F11003C0
:103F7000185D07F003FF05F12003185D303507F0E9
:103F8000FDFE285D07F0FAFE0134E6E7082007F0A1
:103F900007FF002007F01EFF17E6042007F000FFD0
:103FA000614B986816E194F8780107F0E7FE94F801
:103FB0007C0107F0E3FE94F87B0107F0DFFE94F844
:103FC0007D0167E0584C072007F0EAFEB4F87E0157
:103FD00007F000FFB4F8800107F0FCFE94F88201BE
:103FE00007F0CCFEB4F8840109E14F4C0C2007F037
:103FF000D7FE94F88E0107F0C1FEB4F8980107F0DF
:10400000E9FEB4F8940107F0E5FEB4F8960107F074
:10401000E1FE94F88F0107F0B1FEB4F89A0107F0C1
:10402000D9FEB4F89C01EAE03F4C042007F0B8FE4A
:1040300094F8D40107F0A2FE94F8D50107F09EFE93
:10404000B4F8D601DBE0374C404D94F83800002638
:1040500000EB4000C0B207F0A3FE94F83830023500
:104060009E4280F0CE8015F8020C07F087FE15F80E
:10407000010C013600EB800000EB800000F2EE2026
:1040800080B207F0A7FEE8E7012007F089FE264B83
:1040900093F8900107F072FEB3E0234B234493F8AA
:1040A0008601013407F06AFE082CF6D1A9E01E4C07
:1040B000102007F075FE607907F060FEA06807F039
:1040C00092FE94F88E0107F059FEB4F8580107F0FB
:1040D00081FEB4F85A0107F07DFEB4F85C0107F0E8
:1040E00079FEB4F87E0107F075FEB4F8800186E031
:1040F0000C4B0D4C93F8B50004F12805C0EBC00043
:10410000C0B207F04DFE94F8EE010023104AD25CD5
:1041100090427AD00C333C2BF8D10834AC42F2D127
:104120006FE000BFD0150020600C00206C0600205E
:104130007406002072060020700600206E06002023
:10414000E6060020E806002045160020FE0D0020AF
:10415000202E002007F008FE85B207F005FE044679
:1041600007F002FE86B207F0FFFD05EB042506EB23
:104170000020ADB205EB0044842007F011FE20467C
:1041800007F031FE2D4BDD6804F18003AB428CBF9C
:104190002D1B802508F058FA20462A46694605F06E
:1041A00007F905460024AC422BDA1DF8040007F09D
:1041B000E5FD0134F7E7132007F0F2FD0024204B62
:1041C000185D013407F0DAFD0B2CF8D1002007F060
:1041D0000AFE002007F007FE13E01A4C082007F043
:1041E000DFFDB4F8480107F0F5FDB4F84A0107F027
:1041F000F1FDB4F84C0107F0EDFDB4F84E0107F005
:10420000E9FD012018E0002016E007F0B7FDB4F842
:10421000F00107F0DFFD94F8F20107F0AFFD94F82C
:10422000F30107F0ABFD94F8F50107F0A7FD94F852
:10423000F40107F0A3FD70E720B070BD0C00002072
:10424000DF6B0108600C00202DE9F04F87B06C4C4B
:1042500002916C4922880E680546C2EB26135B4327
:104260005200C2EBE602B4F902601B135643B4F9E4
:104270000420B4F90A0053439B1303EBE62606EB34
:10428000860380331B12B6F5FA384FEAE6770493BB
:104290004B6847F1FF39A8FB08AB039308FB09F310
:1042A000B4F908200BEB430BE389A6610593D31700
:1042B00008FB03F102FB0911A8FB02230B44C11701
:1042C0001F030AFB01F300FB0B33AAFB00011603DB
:1042D000194447EA1257020A42EA016292194FEA68
:1042E0002123E6887B410032A2FB060143F500430F
:1042F00006FB03114B100093CB170193DDE900235C
:104300001343B4F810E0B4F80CC06DD00FFA8EF07F
:10431000C1170AFB01F1AAFB002300FB0B11BDF939
:1043200014600B44F71708FB07F106FB0911A8FB03
:1043300006670F4479047004801841EAD631594168
:10434000039B0FFA8CF8C3F5801E7246D317002228
:1043500012184FEACE764FEAC3774FEAC8034B41B3
:1043600047EA5E07B61A67EB030740F63543A6FB3C
:10437000030103FB0711DDE9002309F0FBFFB4F99A
:1043800016204E1302FB06FE470B47EAC147D31720
:1043900007FB03EEA2FB07235643734407FB0366A8
:1043A000A2FB07233344560E46EAC3168219B4F91A
:1043B00014604FEA636741EB07037143F71700FB93
:1043C0000717A6FB00013944C60C46EA413692198C
:1043D0004FEAE1474FEA1221B4F912207B4141EA4A
:1043E000036113010B4400E000230DB11B0A2B6095
:1043F000029B13B11A46049B136007B0BDE8F08F0F
:104400003404002018170020704770476B4B6C4A2B
:104410002DE9F04F5E8994684FEA062AB4EB0A0A48
:104420009C884FF000054FEA04481C894FF0000BB0
:10443000A4FB0A6765EB0B0B04FB0B77F40944EA5A
:10444000476418EB04065C884FF000094FEAE71553
:104450004FEAC438DC8849EB050787B0CDE904672B
:10446000A4FB0A6704FB0B77340A44EA076418EBE1
:1044700004064FEA27259C894FF0000949EB050700
:10448000CDE90067AAFB046704FB0B77F40D44EA4F
:10449000472414F5FA664FEAE75545F10007B6F5EB
:1044A000FA6F77F10003CDE90267964666DADDE937
:1044B0000489A4FB046704FB05F34FF0050C07EB2C
:1044C0004307A6FB0C230CFB07335F104FEA3206B1
:1044D000B8EB06084FEA920646EA837669EB0709CD
:1044E0009F10DDE90023921B63EB0703CDE9002356
:1044F000DDE90267334A4FF0FF33964277EB03035F
:10450000CDE9048927DA40F6AC520023A4185D41B6
:1045100004FB05F3A4FB04456FF0060205EB43051D
:10452000664202FB0566A4FB0223334418EB020635
:1045300049EB0307CDE904670B26A4FB062306FB22
:104540000533DDE900455B104FEA3202A41A65EB42
:104550000305CDE90045DDE902450AFB0BF3AAFBA3
:104560000AAB0BEB430B4FEADA7242EA4B02A41A96
:104570004FEAEB7365EB0305CDE90245DEF80C402D
:10458000009B019DA4FB032304FB05334FEA525813
:1045900048EAC3284FEA6359DDE90423B8EB020275
:1045A00069EB03039946D30B43EA494300B1036027
:1045B00009B1029B0B6007B0BDE8F08FE00300205B
:1045C0001817002024FAFFFF2DE9F041324C334D3B
:1045D00062892B8AB4F904809A1A2389B4F902E01B
:1045E0005A43B4F91230D613B4F91420DB02324422
:1045F00093FBF2F232440A26E2615643A2F57A6254
:1046000002FB02F3B4F90EC002FB0EFE02FB08F23D
:10461000B4F90C801B130CFB03FC03FB08F31B1405
:1046200003EB62320232E388921002F500425343F8
:104630004CF25032B4F920704FEAEE2EB4F900403B
:104640000EEBEC2C0CEB8404BC406D690234A5EB42
:10465000A4043A4162434FEAD3384EBFB2FBF8F3A9
:104660005400B4FBF8F340F6DE3448BF5B001A1286
:10467000524362430A4C08365C43241404EB224242
:1046800002F6CF62361103EB221300B1036001B1D1
:104690000E60BDE8F08100BFF40300201817002071
:1046A00043E3FFFF13B50C4B04465B681B2002215C
:1046B00001AA984770B19DF804209DF8053043EA9F
:1046C000022303F54E5310334FF48C7293FBF2F335
:1046D0002333238002B010BDCC03002037B5104B2C
:1046E00004465D68187806216A46A847A8B19DF877
:1046F00000209DF80130012043EA022323809DF829
:1047000002209DF8033043EA022363809DF80420D1
:104710009DF8053043EA0223A38003B030BD00BFFB
:10472000CC03002013B5104B04465B683B200621E8
:104730006A469847A8B19DF800209DF801300120F5
:1047400043EA022323809DF802209DF8033043EAC8
:10475000022363809DF804209DF8053043EA02237C
:10476000A38002B010BD00BFCC030020B0F5807F55
:104770000ED0BB280ED861280ED829280ED81328B1
:104780000ED809280ED8002814BF06200020704734
:1047900000207047012070470220704703207047B7
:1047A000042070470520704707B5F7216B460622A5
:1047B000762001F02DFF9DF800309DF801101B03BD
:1047C00043EA01139DF80210094A43EA11135360AA
:1047D0009DF803309DF804101B0343EA01139DF874
:1047E000051043EA1113136003B05DF804FB00BF2A
:1047F0001817002007B5002101AB0322772001F034
:1048000007FF9DF805309DF804001B0243EA0043B2
:104810009DF80600184303B05DF804FB08B5FFF7E8
:10482000E9FF014BD86008BD1817002008B5FFF755
:10483000E1FF014B986008BD181700200F4B13B51E
:104840001B780F4C0BB1237EB3B1032201AB772051
:10485000F62101F0DDFE9DF805309DF804201B02D5
:1048600043EA02439DF806201343064AB2F920208A
:10487000C2F10802D340636102B010BD0000002005
:1048800018170020F40300200A4B13B51B780A4CBC
:104890000BB1237E63B1022201AB7720F62101F038
:1048A000B7FE9DF804209DF8053043EA02232382D9
:1048B00002B010BD000000201817002030B50546DA
:1048C0000C46134629462246BDE83040682001F0D8
:1048D0009FBE13B50622044601211C206B4601F041
:1048E00097FE08B39DF801309DF80020042143EAAB
:1048F000022242F38D0292FBF1F29DF802302280F7
:104900009DF8032042EA032242F38D0292FBF1F26A
:104910009DF8043062809DF8052042EA032343F3AA
:104920008D0393FBF1F3A38002B010BD13B50622F3
:104930000446022118206B4601F06AFEB8B19DF8CA
:1049400000309DF801209B0803EB022323809DF893
:1049500002309DF803209B0803EB022363809DF83F
:1049600004309DF805209B0803EB0223A38002B0CE
:1049700010BD314B2DE9F3411B780546002B3BD090
:10498000002426462746A04601345320322108221F
:104990006B46E4B201F03CFE08B9002049E09DF806
:1049A00001209DF80030202C03EB02231BB29DF860
:1049B000032098449DF8023003EB02231BB21F44EE
:1049C0009DF805209DF8043003EB02231BB21E4422
:1049D0009DF8073003F07F0301D0002BD4D198FB62
:1049E000F4F897FBF4F796FBF4F6144BA5F8008067
:1049F0006F80AE805C761CE05320322106226B462D
:104A000001F006FE0028C8D09DF801209DF8003076
:104A100003EB02232B809DF803209DF8023003EB6B
:104A200002236B809DF805209DF8043003EB0223E0
:104A3000AB8002B0BDE8F081DE0300201817002033
:104A40007620F421312201F021BE77204821012275
:104A500001F01CBE77205821012201F017BE074B40
:104A6000002193F82020064B9201343219767720EA
:104A7000F42102F0FC0201F009BE00BFF4030020A3
:104A800018170020034B00221A767720F4212E22DB
:104A900001F0FCBD1817002003460A46682019469D
:104AA00001F0F4BD08B50F210822182001F0EEFD39
:104AB0000E221820102101F0E9FD024B4FF4805224
:104AC0001A8008BD0200002008B5134B53201B7844
:104AD0002D2108227BB101F0D9FD31210A2253207A
:104AE00001F0D4FD2C210C22532001F0CFFD5320E6
:104AF0003821902209E001F0C9FD31210A2253201A
:104B000001F0C4FD53202C210A2201F0BFFD40F228
:104B10000912024B1A8008BDDE03002002000020AB
:104B200008B54FF4804005F0A3F8012801BF044BFD
:104B30004FF480425A61034B08BF187608BD00BF8E
:104B4000000401401817002010B5054C23681869AF
:104B500005F08EF818B123681A69024B5A6110BD2E
:104B6000D803002000040140F8B50E461746084C53
:104B70004FF48055656140F0800008F0E9FA38464E
:104B80000021324608F0AEFA25610120F8BD00BFD1
:104B9000000C014070B50E46054C4FF48055656120
:104BA00008F0D6FA304608F0D3FA2561012070BD2E
:104BB000000C014070B5FFF7D9FD104C05461920D7
:104BC00001F099F9A36815200021984710B9022037
:104BD00001F0F0F945F01801A368C9B21620984712
:104BE000A368002117209847A36801213D2098471A
:104BF000A3683E200121BDE870401847CC03002087
:104C0000F0B5274D85B0AB7E002B46D1254C2368EF
:104C1000002B42D01A68244E12B1B1690A43B26126
:104C20009A889868ADF8002002228DF80320694622
:104C300004228DF8022004F028F9B369002743F01C
:104C40000103B36123680126187B197D04F008F97C
:104C50002368164993F9150001F0F6F92368144A00
:104C60001B695361029308230DEB03008DF80D308F
:104C70008DF80C708DF80E6004F0CAFF236801A84F
:104C80005B7D8DF806708DF8043003238DF80530B8
:104C90008DF8076008F008FAAE7605B0F0BD00BFE9
:104CA00018170020D803002000100240494B0008CC
:104CB0000004014037B50446FFF7A2FF254B1A68F0
:104CC000254B9A420ED14FF40053ADF80430022325
:104CD0008DF80730042321480DEB03018DF80630D1
:104CE00004F0D3F82046FFF741FD05461C4C802117
:104CF000A3686B209847642001F0FDF8A3680721A2
:104D000068209847642001F0F6F8A36800216B2022
:104D10009847642001F0EFF8A36801216B209847C1
:104D2000A36818211B209847A36810211C209847CE
:104D3000A36829461A209847A3680021192098479C
:104D4000A368122137209847A3680121382098478B
:104D500003B030BD34000020001BB700001001403C
:104D6000CC03002008B5FFF74BFF024B4FF48052F5
:104D70001A8008BD0200002070B50446FFF740FF0E
:104D80002046FFF7F3FC0546144C8021A3686B20F6
:104D90009847642001F0AFF8A368002119209847D4
:104DA000A36803216B2098470F2001F0A4F8A368A3
:104DB00029461A209847A36818211B209847A36802
:104DC00010211C209847A368022137209847A36828
:104DD00038200121BDE87040184700BFCC030020F7
:104DE00008B5FFF70DFF074B5B7813B1012B03D01C
:104DF00008BD4FF4006201E04FF48052024B1A806C
:104E000008BD00BFCA0300200200002013B5002225
:104E10002A211C2001F03AFC0E2102221C2001F064
:104E200035FC0F2103221C2001F030FC2B21122223
:104E30001C2001F02BFC164A02249369154843F00C
:104E4000040393612023ADF8043004230DEB030128
:104E50008DF806308DF8074004F017F822462C2113
:104E60001C2001F013FC2D2101221C2001F00EFC5E
:104E70002E2100221C2001F009FC2A2105221C20E1
:104E800001F004FC044B4FF480721A8002B010BD94
:104E9000001002400008014002000020054A08B549
:104EA000138801339BB21380034B187801F042F949
:104EB000002008BDD21500208C1D002001F042BA50
:104EC00001F062BB01F03EBA01F05EBB026B03462B
:104ED000C16810B5406942B11A6C8C1A013A08BF1A
:104EE0000A46005D1A64C0B210BD1A6A805C0132C5
:104EF0008A4228BF0022C0B21A6210BD436B13B1B0
:104F000090F844007047836A406A1B1A584258411F
:104F10007047426A816A03698A4238BFD218521ABE
:104F2000416B21B149680A44591E8A4203D2013BB0
:104F3000981AC0B2704700207047036B13B15B68CA
:104F4000016C01E0C369016A8B423CBFC2689B18D7
:104F5000581AC0B27047426A806A131A58425841C0
:104F600070474171704743799B070AD5436A82694C
:104F7000D154436A01690133B3FBF1F201FB1233EF
:104F800043627047427902F0020202F0FF0342B12D
:104F90000369426A806A013BDBB2101A23EA00000F
:104FA000704718467047437913F001031FBFC36869
:104FB00003F1FF32C369006A1DBF181A1040C0B266
:104FC00018467047437910B513F0010304460DD01D
:104FD000FFF7E9FF58B1236A6269E168D05C0133E9
:104FE000B3FBF1F201FB1233236210BD184610BD72
:104FF00090F83B3210B57BB990F83A3290F83942CC
:10500000A34209D2B0F8401201229A400A43013368
:10501000A0F84022DBB2F3E710BD8379DB0748BF7D
:10502000B1FA81F1D0F8343148BF49095A681B8977
:1050300009B1136170475361704710F80A3C01339E
:10504000DBB20A2B84BF10F8131C054A00F80A3C97
:1050500082BF002322F8113000F80A3C704700BFDD
:1050600074170020324A70B5136C9068194440F6EA
:105070008C23081A98429160D0605160134639D948
:10508000127893F9451014468A420BD1111F082952
:1050900008D893F84610182901D8013103E083F8A5
:1050A000442002E0002183F8461093F9440020498F
:1050B000824217D191F84700A0B10C3100259542EA
:1050C0001C4805DA51F8046F20F815600135F6E741
:1050D0000C2C04D0002120F814100134F8E7017ED4
:1050E0000131017683F84520002201211A7083F8EE
:1050F000471070BD92F84710C9B140F2DA51A0F2E2
:10510000EF248C4208D811780B2905D80B1D0131EA
:10511000117042F8230070BD002283F84720064B2F
:1051200003F13002002143F8041F9342FAD170BD0D
:10513000480200207417002054020020024A136C19
:10514000013319441164704748020020024B53F8A0
:1051500020301B681980704770030020074BA1F5B1
:105160007A7153F820301A681B8959434FF47A73C7
:1051700091FBF3F189B21180704700BF70030020EA
:105180001FB50123ADF80830ADF80410002301A9C4
:10519000ADF80A30ADF80C30ADF8062004F025FC6F
:1051A00005B05DF804FB38B5A0F513746379A579F3
:1051B000DB0745D594F8383205F00105F3B1226BD1
:1051C0001068838DC3F34E03838494F83C3223B17B
:1051D000B4F842320133A4F84232917A6A00FFF700
:1051E000CFFF012384F83B32002384F8393284F85E
:1051F0003A3284F83832A4F8403238BD94F83B3261
:105200002046012B04BF94F8393284F83A32FFF774
:10521000EFFE94F83B22236B3AB9012284F83B223B
:105220001868997A05FA02F207E0002284F83B2216
:1052300095421868997A08BF0222BDE838409FE776
:1052400038BD10B5A0F5127494F83C22BAB9A36A1F
:10525000616A994228D0591CA069A162C35C206987
:10526000DBB25B0043F400738142A4F83E324FF09E
:105270000A0384F83D3228BFA262012312E094F9A8
:105280003D327BB1B4F83E1220464B08A4F83E32C2
:1052900001F00101FFF7C1FE94F83D32013B84F8B3
:1052A0003D3201E084F83C3294F83832002B4ED184
:1052B00094F839320133DBB2092B84F8393203D147
:1052C0002046BDE8104093E60A2B40D194F83B32CB
:1052D0002BB9B4F8403243F00103A4F840326379AB
:1052E000D9071CD5B4F84002820501D4C30705D400
:1052F000B4F844320133A4F8443210E0E36AC0F356
:1053000047000BB198470AE0E3696269D054E3694A
:10531000E1680133B3FBF1F201FB1233E3610122D7
:1053200084F8382294F83B220023012A84F8393289
:105330000DD1A27984F83B32236B12F0010F18686B
:10534000997A0CBF02220022BDE8104018E710BD78
:10535000026D70B515880446ADB2A90613D5036B6E
:105360008BB9C36A1BB1908880B298470BE0E169A2
:10537000928840694E1CD2B2E6614254E169E2680B
:10538000914228BFE3612B0613D5636AA26A9A4251
:10539000236D0AD0511CA069A162825C9A802369A6
:1053A000994206D30023A36270BDDA6822F080021E
:1053B000DA6070BD836A8169426B1944D160416AC9
:1053C000994297BF0169CB1ACB1A536096BF00234D
:1053D000536083624FF0000380F84430136888BF45
:1053E000816243F0010313607047436A8269D154BC
:1053F000436A02690133934228BF00234362436B2F
:105400001BB11B68DB0705D4D4E7026DD36843F0FA
:105410008003D3607047F0B5046D8279A389467923
:1054200023F4005312F0020F4FEA03434FEA1343F1
:105430000CBF00214FF4005112F0040FA38114BFE0
:105440004FF4806E4FF0000E16F0010F876805468E
:1054500014BF04200020B307238A48BF40F008028D
:105460009BB223F4405343EA01032382A18948BF3E
:1054700090B289B221F4B05121F00C014EEA010141
:1054800040EA0102A281A38A87B023F440731B047F
:105490001B0CA38201A804F04DFA039B049E264A2C
:1054A000944218BF1E46A389192272431BB2002BD7
:1054B000B4BF7E00BE00B2FBF6F66427B6FBF7F081
:1054C0000001010907FB1163A28912B2002AB7BFCC
:1054D000D9001A013231B1FBF7F2A7BF3232B2FB69
:1054E000F7F302F007021043A8BF03F00F03AA79F5
:1054F000A8BF184380B212F0010F20812B6D06D097
:105500000E498B4202BF042001F54841086112F0A8
:10551000080F9A8A0BBF22F0080292B2120442F0DE
:10552000080208BF120C9A829A8992B242F4005281
:105530009A8107B0F0BD00BF003801400044004030
:10554000417168E7816066E72DE9F04F1E464FF430
:1055500014734343564D85B005F11C0480469146B3
:10556000E718A24610B92B44524A03E0012805D19E
:10557000514A2B44DA641032C3F850214FF41473AB
:1055800003FB08F34D48EC180AEB030203F59C7388
:1055900034325344E061A1642263636300224FF418
:1055A00080714FF0010BD4F850310320A162E26307
:1055B000A263E1626264226484F8582284F854B2DF
:1055C00084F85522A4F85E22A4F86022C4F824903E
:1055D00084F8210084F8226084F8628258681B896C
:1055E00004F5A6724FF0020CADF80C3003A910239D
:1055F00001928DF80E308DF80FC0CDF800C003F089
:1056000044FCE36CDDF800C0597B58681B898DF8B9
:105610000E1003A9ADF80C308DF80FC003F035FC67
:1056200059463846FFF7F9FC322000F064FC244B61
:10563000019A1B68D2F804B01A46B2FBF9F1B1F531
:10564000803F03D3012AF8D95208F6E71D4A4FF4E8
:105650001474B3FBF2F204FB08F8584689B2D2B2D4
:1056600007F092F905EB0809174B08F512780AEBD9
:1056700008040022C9F864325846214607F0C2F8EF
:10568000D9F84C5016F0010F0CBF022200222868F6
:10569000A97AFFF775FD0D4B2846C9F86832211D20
:1056A000002207F0AFF8384605B0BDE8F08F00BF24
:1056B0007417002094680108B4680108385B010879
:1056C0004C00002040420F0043520008A751000840
:1056D00003460A4690F84602D96A9B7934E71FB51B
:1056E0000123ADF808300023ADF80C30ADF80A30D6
:1056F000084BADF804101B7801A9012B08BF032348
:10570000ADF8062008BFADF80C3004F06EF905B016
:105710005DF804FB4402002038B510F80E2C044656
:1057200050F8043C52B9012200F80E2C20F80C1C51
:10573000997A18680222BDE83840D0E730F80C2C7E
:1057400020F80A1C891A89B220F8081C074A10F8A8
:105750000F0C002522F8101004F80E5C1868997AD6
:105760002A46FFF7BCFF04F8065C38BD741700201A
:10577000044B53F820301BB107289CBF1B681980CD
:10578000704700BFA003002038B505460024064A34
:1057900013195B681BB1A256AA4200D1984708347E
:1057A000182CF4D138BD00BF301C0020034B4FF43F
:1057B000805208B11A6170475A6170470008014071
:1057C000034B4FF4805208B15A6170471A61704719
:1057D0000008014038B50024134D6059254406F0F7
:1057E0000BFB696811B1114801F0C2F9A96811B148
:1057F0000F4801F0BDF90F48103406F0FDFAF02C07
:10580000EAD10D4801F0B4F900240C4B214653F8BD
:1058100024200B48013401F0ABF9092CF5D1BDE887
:105820003840044806F0E8BA545B0108DE6C010811
:10583000E46C0108E3760108EA6C0108445C0108A5
:10584000F76C01082DE9F04105460BF0B4FC2C4B38
:1058500004469E6888B92B4806F0CEFA2A4B53F8C6
:10586000241041B10123A340334202D0274801F064
:105870007FF90134F2E7264821E0284625492246EF
:105880000BF0A2FC58B9244806F0B6FA234C54F8A1
:10589000041F0029EFD01D4801F06AF9F7E72B78C3
:1058A00000262D2B03BF013504F1FF344FF0010812
:1058B0004FF00008144B53F8267027B91848BDE87C
:1058C000F04106F099BA2846394622460BF07CFC96
:1058D00098B90120B040B8F1000F03D001F0E6F90B
:1058E000104802E001F0EAF90F4806F085FA39465F
:1058F000BDE8F0410D4801F03BB90136DAE700BFE1
:10590000600C0020056D0108705C01080F6D010836
:10591000E3760108136D0108186D01086C5C01083D
:10592000246D0108336D01083C6D0108446D0108C8
:10593000F0B5027887B08AB9534C04F1280594F881
:10594000EE210023514950B25956814277D00C3391
:105950003C2BF7D10834AC42F1D192E000240494FE
:105960000594461C0CF062F8494BC0B29A69234674
:1059700002EBC304A178884202D1023406D103E0CD
:105980000133052BF4D10024254602E08DF81000E8
:105990000125304620210BF000FC064638B10136C7
:1059A00030460CF043F80135ADF81200EDB2002797
:1059B000304620210BF0F1FBA0B3461C30460CF022
:1059C00035F800223349D3B251F82210814203D076
:1059D00001320B2AF6D100232F4A02EB8302D2F8C0
:1059E000F02082421ED1022F0FD0032F10D0012FA2
:1059F00005D05A1E092A12D88DF814300DE0DA1E8F
:105A0000052A0CD88DF8153007E08DF8173004E022
:105A1000DA1E052A03D88DF816300135EDB20137AC
:105A2000042FC5D1052D05D81C4807B0BDE8F040AE
:105A300006F0E2B904AB03CB2060616021E094F88A
:105A4000F301154B94F8F26103EB8000D0F8F000FD
:105A5000B4F8F021009094F8F50103EB860603EB0F
:105A60008000D0F8F000019094F8F40103EB80037B
:105A7000D3F8F0300A480293D6F8F03001F078F805
:105A800068E707B0F0BD00BF600C0020202E0020AA
:105A9000301C0020445C0108545B01084A6D010879
:105AA000586D01082DE9F74F814601F1030B00F114
:105AB0000A0A0024464B022C4FEA44021BF8015FFD
:105AC00000920CBFB3F9042033F9142005F11B0533
:105AD0000CBF5543554300993E4A08BF6B11525EB7
