:020000040800F2
:100000000050002051EC0008F1EC0008F1EC000871
:10001000F1EC0008F1EC0008F1EC00080000000031
:10002000000000000000000000000000F1EC0008EB
:10003000F1EC000800000000F1EC0008C75E0008C9
:10004000F1EC0008F1EC0008F1EC0008F1EC00081C
:10005000F1EC0008F1EC0008818F00087F8F0008A8
:10006000F1EC0008D55E0008F1EC0008F1EC0008A6
:10007000F1EC0008F1EC000861CB0008F1EC00089D
:10008000838F0008F1EC0008F1EC0008F1EC0008A7
:10009000F1EC0008F1EC0008F1EC00087D8F00089D
:1000A000F1EC000845C90008F1EC000855C900084A
:1000B00039C9000829C9000819C900087D4E00087F
:1000C000814E0008754E0008794E0008F1EC0008DA
:1000D000F1EC000855CB000849CB00083DCB0008E7
:1000E000D95E0008F1EC0008F1EC00080000000007
:1000F0000000000000000000000000000000000000
:0C01000000000000000000005FF808F1A3
:100110002DE9F04F89B005F0A5FE984D984CAB89BC
:10012000206023B16268821A002AC1F2648203440B
:10013000636005F097FE0646924B20601868924A6D
:10014000301A80B21E6010800DF060FF8F490DF0F4
:10015000B5FF8F4B8A4F1860A368F31A002BC0F2CB
:100160005F8106F5C336A036BE608A4B8A4E5B6857
:1001700030469847894B32681B78FA60B288023B58
:100180003A82062B05D8DFE803F0080C12191E226C
:100190002600A3893380E3890DE0E3893380A389B6
:1001A00003E0A3895B423380E3895B4203E0E38998
:1001B0005B423380A3897380238A14E0A3895B4266
:1001C0003380E3890CE0E3893380A38908E0A389C5
:1001D0003380E38903E0E3895B423380A3895B4298
:1001E0007380238A5B42B3806D4B1B78002B5AD1FE
:1001F000B6F900000DF00EFF8246B6F902000DF0D0
:1002000009FF8146B6F904000DF004FF654F8046F2
:10021000396850460DF052FFF968834648460DF0A4
:100220004DFF014658460DF041FEB96983464046F0
:100230000DF044FF014658460DF038FE11F070FFF6
:100240007968308050460DF039FF39698346484659
:100250000DF034FF014658460DF028FEF96983463B
:1002600040460DF02BFF014658460DF01FFE11F0E1
:1002700057FFB968708050460DF020FF79698246BB
:1002800048460DF01BFF014650460DF00FFE396A3F
:10029000814640460DF012FF014648460DF006FE2D
:1002A00011F03EFFB080404B1A78510726D5A36865
:1002B00063610023E9180027F05AA1F872713B49E5
:1002C0005852063158520233062BF3D1364B22F0E6
:1002D00004021A70364A0420138843F00203138084
:1002E0000CF082FF334B02221A71DA78384622F082
:1002F00001024FF4AF61DA7005F016FA2E4B1B784D
:1003000073B13388B5F872219B1A3380B5F8742124
:1003100073889B1A7380B5F87621B3889B1AB380D3
:100320006169174A00297BD0936802F118005B1AB3
:1003300022498B4202F11E0146D8214AD36883F03C
:100340000803D360002336F8132030F913C00FFAE6
:1003500082FEF445C8BFDFF854C04FEA4307C8BF68
:100360002CF8132031F907C00133F445BCBFDFF886
:1003700054E027F80E20032BE5D151E0580C002063
:10038000DC0500208C050020C8150020BD3786350F
:10039000681C002054040020CC15002038320020B6
:1003A00001000020B805002064060020F4050020AC
:1003B000201D0020581D0020600400207F9698001A
:1003C000000C0140FA0500200023A24E536130F9D1
:1003D000137031F9132001333A44022792FBF7F2EC
:1003E000032B26F8022FF2D19B4B0020198805F031
:1003F0009BF99A4A138823F002031380984B1B78C9
:100400003BB1984B1B681A0603D506200CF0ECFE96
:1004100004E0954B02221A710CF0DEFE07F0C2FDDB
:10042000924FDFF838B23B7813F0400F1CD023F026
:1004300040038F4A3B70BBF80030126843F480637E
:1004400000266262ABF800308A4A8B4B4FF4AF61F2
:1004500030461980568105F067F93B7885F82867A2
:1004600043F004033B7072E0BBF8003023F47F7369
:1004700023F001035B055B0DB3F5806F2BD195F87D
:10048000283743BB7A4E626A33687C4F9B1A642BD1
:1004900021D906F0E5FB7A4B80B2588133687B6244
:1004A000744B5A89904210D05881734B00201A889F
:1004B000013292B2B2F5C86F1A8084BF4FF4AF62B6
:1004C0001A80198805F030F905E06E4B012283F897
:1004D000282733687B62BBF80030604F23F47F73BA
:1004E00023F001035B055B0DB3F5806F2FD195F809
:1004F0002887644EB8F1010F29D15D49636A0A6803
:10050000D31A40F6B832934221D90A685B4B5A623B
:1005100006F0A6FB5A4B574A80B258815389C11A3C
:1005200081EAE173A3EBE173052B04DD0023508125
:1005300086F828370BE03B8886F8288723F4806309
:100540003B804D4B1B88A6F8263707F02BFD444B0C
:100550001A780493002A00F0C5804B4B1B68002BCF
:1005600000F0C080484F386805F0BCFD002800F05E
:10057000B980386805F0B3FD09280146434E01D023
:100580003F285DD10027B8463668DFF8149136B1B0
:100590003F48D9F80010324610F0C6FE20B94F4649
:1005A000B8F1000F00D1C8463A4B09F1100999453E
:1005B000EDD3C246B8F1000F1DD0D8F800C0D7F86F
:1005C0000090324A13681CF803E019F803007045E4
:1005D00011D12F4950B92D2B08D803F1010EC2F8C3
:1005E00000E02022CA5401F80E0004E001F803E004
:1005F00001331360E5E7254B1A6899460AB1B845FF
:1006000012D025480BF0A8FCBA4509D85AF8100BAF
:100610000BF0A2FC1C4B0921186805F066FDF3E7FE
:100620001E480BF099FC0026D9F800309E4299D262
:10063000154B1868164B995D05F057FD0136F3E729
:1006400033687BBB042841F0E780114805F012FDB8
:1006500048E000BFC80D0020C4300020201D00204D
:100660003E32002054060020581D00206406002061
:10067000D431002038070020141E0020DC050020A3
:10068000E8200020580C0020AC300020541D002031
:10069000221D0020B45D01086F6C0108746C010814
:1006A000B45C01080C2801F0B9800A2941F0EA8005
:1006B000B24FB3480BF050FC3846252110F01DFE18
:1006C00008B1C01B30603368002B41F00081AB489B
:1006D00000213022336010F0B6FD049B1B78002B04
:1006E00041F09F80A74B9A68A74BC2F34022228516
:1006F0002AB993F82A20013283F82A2008E0002240
:1007000083F82A2093F82B2022F0010283F82B2073
:1007100094F82A3095F843179B4A8B4282BF92F88F
:100720002B3043F0010382F82B30964B9A68964B9E
:10073000C2F30022A2852AB993F82E20013283F851
:100740002E2008E0002283F82E2093F82B2022F0A0
:10075000020283F82B2094F82E308B4A8B4282BF02
:1007600092F82B3043F0020382F82B30874B1A6843
:100770009A4612F0010F68D045F207212268236BD8
:10078000D31A8B4261DD804B814E1A6309F0CAFB9C
:100790003378804F032B3B8821D10A2B2AD90023A1
:1007A0002820337005F085FB09F0BCFB7A4B1888D4
:1007B00009F0A2FB794B7A491A68D37890FBF3F0E1
:1007C00001300828774BA8BF08201870537980B2F1
:1007D00043430B8013795843734B18800AE00A2B6C
:1007E00008D803236F4A3370002313706C4A1380B8
:1007F0006D4A13803378664A012B0BD002D3022B4B
:100800001AD022E0664B1A883B889A421DDD0123EC
:1008100033700FE0644B39881B888B4202DD022362
:1008200013700FE05E4B1B880133994202DD0023F9
:1008300013700AE0082006E05B4B3A881B880133FE
:100840009A42E4DC072005F04FFBBBF80030D807E4
:100850003AD5564E3278D10709D5554B55491B88A4
:1008600022F0010203EB83035B004B81327033788B
:100870009A0729D5DAF8003013F4007F4E4B0BD0DD
:1008800095F8362742B118880DF0C0FB4B4B00227B
:1008900018604B4B1A7013E01A88B5F83207B5F898
:1008A00034371B1A53435A2293FBF2F318440DF0CA
:1008B000B1FB0DF0C9FD81B20120A18604F034FF27
:1008C000337823F0020333703E4F386805F00AFC9A
:1008D000012840F21E81386805F001FC064694F8B4
:1008E0003620522E02F10102D2B23868264984F82D
:1008F000362038D191F837300133DBB2934281F89A
:10090000373005D0012381F8363081F837302AE0BE
:10091000032B28D1049A012313702B4B18602B4B07
:1009200018602B480BF018FB2A480BF015FBBBF89E
:100930000030B5F83C2723EA020343F00103ABF88B
:100940000030DAF800301B0602D506200CF04CFC13
:1009500095F8283713B920480BF0FEFA002384F8E5
:10096000363084F83730BBF80030DF0700F1C28042
:10097000580733D5304609F08DFFBBE0221D00201B
:1009800079780108000C0140DC05002054060020A5
:10099000B0060020580600207821002050060020D4
:1009A000920500203A00002094050020B430002079
:1009B000B630002038070020B23000202000002090
:1009C0001C000020A4050020AC300020A805002059
:1009D000A46C0108746C0108DC6C010819076AD565
:1009E000304605F0E9FB002800F08480904B914EE2
:1009F0001A68914B914F1A60914B1A68914B1A608B
:100A00003368013305D005F027FA3368C01A421C59
:100A100001D100234DE041F288339842F9D88A4B46
:100A20008A4E1B68B34207D0642293FBF2F3884AD4
:100A30001380884B01221A70874BDFF874821A6882
:100A4000864BD8F800001A60854B1B68A363431CD3
:100A500004D005F001FAD8F80030C01A814BE063E9
:100A60001868B04208D00CF01BFF00227E4B0DF03E
:100A7000B7F80DF0C5F900E000207C4B18607C4B06
:100A80001868B04208D00CF00BFF0022764B0DF036
:100A9000A7F80DF0B5F900E00020764B00221860B1
:100AA000754B1A60754B1B88FF2B1CBF744A138053
:100AB00001233B701EE0DF0603D5304609F093FBAF
:100AC00018E0980603D5304608F090F812E0590671
:100AD0000DD41A0603D5304607F004FF0AE0DF05FF
:100AE00003D5304609F0ACFF04E0980502D5304646
:100AF00009F0AAFC634B08225A61BBF8003013F0DE
:100B000001030CD1012284F83E205F4A2364137054
:100B100005E05C4B08221A61002384F83E305A4BF2
:100B20005A4F1B7823B1454A00231370494A10E0FD
:100B300094F83E20564B6AB91A6C0AB93A681A649E
:100B4000226C3B689B1A40F6B832934202D94E4A57
:100B500001231370BBF80020D10700F17B813D49D0
:100B600002F004020B7883B1394B4A481B88038199
:100B70004AB1494B1E88494B1E80494B1B8803EBE9
:100B800083035B00438100230B70002A40F06281E5
:100B90002A4B1878002800F05481274B414E1A68E0
:100BA000284BDFF8F080D3F80090C8F80020C8F890
:100BB0000490F06806920DF02DFA3B490DF032FBDF
:100BC000079030690DF026FA37490DF02BFB069A95
:100BD000059010460DF01EFA33490DF023FB0690E8
:100BE00048460DF017FA30490DF01CFBDDF81CC02B
:100BF000034605996046069A0AF06AF83F68B36AA8
:100C00008146BB426064A764059353D000210DF078
:100C1000E9FB00284ED1059BF81A80B20DF0FAF9D5
:100C200022490DF0FFFA014648460DF0FBFA42E07A
:100C3000B01D0020941D00201C32002099050020CA
:100C4000B81D0020E01F0020D01D0020FFC99A3BE6
:100C5000CE1F002098050020A81D0020800700203E
:100C6000A01D0020C81D0020000059405C07002086
:100C7000C01D00207C07002078070020D81D002020
:100C800058070020000C0140261E0020D43100200F
:100C9000DC05002038070020D6260020360700207B
:100CA0004A070020002100200024744900007A44F3
:100CB0008C1D00200020E064002148460DF0BAFBA6
:100CC000002800F0BA8095F8540748B10DF0A2F959
:100CD000A44B014658680DF08FFB002800F0AD8052
:100CE000059BA14F0093A36C0193A04B93E80300D5
:100CF0000290ADF80C104B4698E80600994807F0B2
:100D000043FD9B4B1B78002B79D0DAF80030DA04D6
:100D100028D5F0680DF07EF996490DF083FA8046EB
:100D200030690DF077F993490DF07CFA8D4B074649
:100D3000D8680DF06FF98F490DF074FA894B0646AB
:100D400018690DF067F98B490DF06CFA39460346C6
:100D50003246404609F000FF824B1860012005F042
:100D600059FC4CE0844E30680DF054F981490DF087
:100D700059FA059070680DF04DF97E490DF052FA60
:100D8000814638680DF046F97A490DF04BFA8046F5
:100D900078680DF03FF977490DF044FA059A03465B
:100DA00049461046424609F093FF0DF073FBF86088
:100DB00030680DF02FF96F490DF034FA81467068F4
:100DC0000DF028F96B490DF02DFA804638680DF0CA
:100DD00021F968490DF026FA064678680DF01AF9EF
:100DE00064490DF01FFA324603464146484609F071
:100DF000B3FE62490DF062F90DF04CFB7881594A5F
:100E00005F4B116819605168596091689960D168A9
:100E1000D96011691961916A9962918A998291697F
:100E20009961117F1977D18BD983116A196292F870
:100E30002410D28D83F82410DA85524B00221A70C8
:100E400008E0DAF80030DB0404D54F4B1B780BB117
:100E500005F0E0FB4D4E4E4A31681368994209D9BE
:100E600033680E33136005F0FBFE434B01225881BB
:100E7000484B1A7094F82B20474882F00202007801
:100E8000C2F3400245499042454B0A70894600F042
:100E9000FC804448C16881F01001C16093F8501093
:100EA00011B1032940F0C7803F4B18789E4680B3AC
:100EB00004990F78002F40F0E4805AB33168626DD6
:100EC0003248891AB1F57A7FDFF8D48008D2374AE0
:100ED00013780133137009F0B7FFC8F85470D0E0ED
:100EE00040F2DB5E0168891A714502D80023636510
:100EF000C7E001688A1A40F2DC518A4240F2C180A0
:100F00001F702B4B0222C8F854701A710CF064F950
:100F1000B7E032B9636D002B40F0B3803268204BEC
:100F20008FE03268636D194FD21AB2F57A7F1C498F
:100F30005DD291F8581003290AD1DAF8000010F0B8
:100F400008001EBFBBF8000080F00400C0F3800062
:100F500000EB80000329C2B22CD1DAF800000707A9
:100F60002FD42BE03021002038070020A4130020CC
:100F70002D07002000247449E820002000002041B3
:100F800000210020990500202E070020D4310020E8
:100F9000B00500209F0500209B0500209D05002036
:100FA000DC050020000C0140A0050020241E0020CC
:100FB000581D0020052904D1DAF8000000F00100D6
:100FC00000E00020002902EB400314BF00200320B2
:100FD000184400F0FF0084F8580010B10CF004F938
:100FE00084E7944B02221A710CF0F6F87EE740F287
:100FF000DB5C3A68D21A62457FF678AF3A68D31A5A
:1010000040F2DC5293423CD9DAF80030486598054A
:1010100048BF894B4FF0000248BF1B884FF00700C4
:1010200048BFA5F83A3701238EF80030834B1A7079
:101030000CF0DAF825E0012923D122B95A6D02BB60
:1010400032685A651DE03268596D521AB2F57A7FDE
:1010500010D295F83037013BDBB285F830375BB200
:10106000143304DA764BEC2283F830273EE706F09F
:101070002BFD3BE7734B1B685B1AB3F5FA6F3FF62A
:1010800035AF99F80020704B1A7094F850106F4AE1
:10109000022994F82B300AD113F0010340F0AB8100
:1010A000032182F85010D365694A1360A3E1694FA8
:1010B00003F0010397F800E083F0010366489E45C2
:1010C00003708046059700F09681DFF8A8E1DEF80E
:1010D0000C0080F01000CEF80C0011B1032940F094
:1010E0005A815E4802780146002A00F09A80002B5F
:1010F00000F098803368E76DDB1BB3F57A7F80F0F2
:101100007681012ADFF8349133D199F80020072342
:10111000B2FBF3F3C3EBC303D31ADBB2504A062B83
:10112000137046D0012B01D1032318E083B903705B
:10113000404B02221A710CF04FF8B5F82627494BA4
:101140001A80494B484A1B7843F0040313705EE051
:10115000022B01D1042302E0042B02D108230370E7
:1011600055E0052B01D1092350E0032B4DD001237D
:101170004CE0032A01D101200CE0042A01D108200F
:1011800008E0082A02D14FF4805003E0092A04D174
:101190004FF4007005F0FAF939E0052A14D199F8F6
:1011A00000302F4A03F00303032B13702DD0022BC2
:1011B00005D106F089FC2D4A2D4BDA6027E00BB9EA
:1011C000062323E0072321E0062A0ED199F80030F8
:1011D000234A03F00703072B13701FBF02330122BA
:1011E00002FA03F3A5F83C370FE0072A0FD199F86C
:1011F00000000C23B0FBF3F203FB1203184ADBB22E
:101200000B2B137018BF85F8F23105230B704FF0CC
:10121000000A072089F800A00BF0E6FFC4F85CA0E4
:10122000E5E04BBBE36D002B40F0E1803268074BFB
:10123000DA65DCE0581D0020AC050020241E0020EB
:10124000580C0020D43100209B050020DC05002034
:10125000FC2000209C0500209E050020A005002009
:10126000251E0020C4300020640600200400FA057A
:1012700000ED00E0000C01403268E16D521AB2F559
:101280007A7F6CD2BBF8003003F004039BB2002BD2
:1012900065D1994AD365994B1A781846002A40F0CF
:1012A000A680974BB3F9002095F840379A4243DB6C
:1012B0009449954BD1F800E04A680989C3F800E0E9
:1012C0001981DAF800105A60090544BF8F49904F20
:1012D0004FF0000942BF83E882004FF4ED7119819D
:1012E000012303708B4BDFF880A283F800908A4BB8
:1012F00083F80090894BC3F80090CDF80090CDF8AA
:1013000004909AE8030000230290ADF80C10844882
:10131000714607F039FA32687A4BCDF800900192A5
:101320009AE803000290ADF80C1093E806007D489F
:10133000002307F029FA5AE0012005F049F90028B6
:1013400055D0794A0A231068516890FBF3F091FB5D
:10135000F3F1764BB3F9002008F096FA47E03368D2
:101360005B1AB3F5FA6F42D9BBF800305B073ED485
:1013700062490B78002B3AD0674A1378002B36D19C
:101380006B4B1B78002B32D10B7001211170634A1B
:10139000E36513602BE0012929D123B9D36D33BB59
:1013A0003368D36523E03168D06D091AB1F57A7FCF
:1013B00012D295F830370133DBB285F830375BB2A3
:1013C000142B04DD5B4B142283F8302701E006F078
:1013D0007BFB0023E3650AE0574B1B681B1AB3F540
:1013E000FA6F81BF0023D365022382F8503098F84A
:1013F0000030059A1370BBF8003023F47E735B0550
:101400005B0D2BBB444F3A78BAB14C4A1278002A94
:1014100000F0DF814A4A13604A4A1360384A138059
:10142000D7E141F287313268D21A8A4210D9424A52
:101430001268D31A8B4200F2D781304B1E783EB926
:10144000304605F0C5F818B101233B70334B1E60E0
:10145000BBF800305F073BD53B4B1A7822B1274AD7
:101460000121117000221A70384B197851B9234BA1
:101470001B781BB9214B1B78B3B929E0344B1B787F
:10148000002BF7D0334B1F4A1B88D360324B1B888D
:101490001381324B1B8803EB83035B0053812C4B7E
:1014A00000221A700029E5D02D4B1A781E467AB119
:1014B00005F08CFC95F869310BB904F0C3FF294B9A
:1014C0000020198804F030F905F0B4FC00233370D3
:1014D00040F20643BBF800201340002B40F08B8005
:1014E00095F82837012B40F0868012F0010F034950
:1014F0000F4A3BD00B7046E0DC0500202D07002092
:101500005807002038070020E82000203F52D3026F
:101510002A3F8200F8200020F9200020FC20002033
:1015200000210020302100206C06002068060020E9
:101530002E070020580C0020D4310020261E002049
:101540001C320020E01F00209A050020A105002089
:1015500099050020D6260020CE1F00204A07002033
:101560009F050020141E0020A41300200B7843B117
:10157000AF4B93F83E07AF4BDB68834234BF002389
:10158000012303F001031370137803B3BBF8003099
:10159000DE0701D405F04EFCA74B1A781E466AB14F
:1015A00005F014FC95F869310BB904F04BFFA34B1F
:1015B0000020198804F0B8F80023337094F85030F4
:1015C000032B18D09E4B012283F8502013E084F89F
:1015D00050300B787BB1974B9A4AB3F90830B2F987
:1015E00008209B1A012B06DC049B187818B9B5F863
:1015F000261704F099F8944E3368180601D509F0BF
:10160000ADFC3368990540F1C980904A216E13689A
:1016100006925B1A95F839178B4240F2BF808C4BCB
:1016200000211F6838460CF0E7FE10B1894B0022FC
:101630001A70894B1B780493002B40F0AC80DFF8C4
:1016400038B2384659460CF0F5FE002800F0A38069
:10165000824BB3F900000CF0DDFC394680460CF0FB
:1016600023FC05900CF0F0FE95F8383780EAE07224
:10167000A2EBE0729A426E4940F38780754A91F876
:1016800037A71378DFF8F49153454ED240463946D8
:1016900004930CF0BBFE049BA8B118460CF0B6FCFA
:1016A0004146834638460CF0FFFB074650460CF097
:1016B000ADFC39460246584608F032F8014640462D
:1016C0000CF0F4FB0FE018460CF0A0FC0746504667
:1016D0000CF09CFC05990246384608F021F80146BA
:1016E00040460CF0E1FB6066606E0CF0ADFEB5F8B4
:1016F0003277B5F83437DB1B58435A2390FBF3F0AD
:1017000038440CF087FC0CF09FFE554B81B21B88CF
:10171000A9F800108B4202D0012004F005F84D4BCF
:101720004C4A1B78013313702AE029D138460792BE
:10173000B1F8328705910CF087FE0599444FB1F856
:101740003437C8EB030358435A2390FBF3F040446B
:101750000CF060FC0CF09EFE81B20120A9F8001094
:1017600003F0E2FF38680CF06FFE3C4B079A1880DC
:101770009DF81030C7F800B01370374A012313707A
:10178000B9F80030364A138005E0334A012313705C
:101790002F4BC3F800B0069B1B68236633681A07FB
:1017A00001D501F0EBF92F4B1B78002B40F0C580E1
:1017B00033689B0640F1C18095F86931002B40F0F9
:1017C000BC801B4BB3F84E0109B0BDE8F04F00F0F0
:1017D000C3B8DFF8AC80D8F80030002B7FF421AE1E
:1017E0003368C8F8003033E6002004F0F1FE00282A
:1017F0003FF423AE1C4A0023106851683B70C8F8C0
:1018000000300A2390FBF3F091FBF3F1174BB3F98F
:10181000002008F039F81BE60C2804D114480AF01F
:101820009BFB144839E07F293ED1FEF79BBE00BFE9
:10183000580C0020380700209F050020141E0020AF
:10184000DC050020E820002054060020D4310020D0
:10185000200000205C1E00201C000020AC050020A1
:10186000AE0500203E3200206C06002068060020F5
:10187000796C0108746C0108000080BF5E1E0020B6
:10188000FC2000200D293EF413AF7F2909D12C4AFA
:10189000013B00212B483360D1540AF05DFBFEF779
:1018A00061BE2F2B3EF65EAEA1F12002D2B25E2ABF
:1018B0003EF658AE13B920293EF454AE5A1C32609D
:1018C0001F4A3868D15404F010FCFEF74BBE5A1E74
:1018D000B95C202902D11346FEF7F6BE184A002152
:1018E0003360D154184B194FD3F800903968DFF8A2
:1018F00050A0084605910FF00EFD8046059942461E
:1019000050460FF011FD124A28B91AF808304B441E
:101910005B785B0703D010379742E7D307E0974225
:1019200005D208F10100FB685044984702E00948DD
:101930000AF012FB0023FEF7CABE09B0BDE8F08F23
:10194000221D0020A06C010850000020B45C01089A
:10195000B45D0108846C01082DE9F04FAE4C97B0DE
:101960002378AE4F002B00F09B813A686368D31A4E
:101970007C2B40F29581237A626001332372242507
:1019800028460BF0C3FBA64B013518880CF042FB30
:10199000014600200CF046FCA2490CF08FFB0CF035
:1019A00053FDEDB200B20BF09FFB272DE8D13020A4
:1019B0000BF0ACFB00200BF097FB0BF09FFB257AA4
:1019C00015F003051FD1944B5A6841F288339A42AF
:1019D0000BD910200BF09AFB28460BF085FB212039
:1019E0000BF094FB28460BF07FFB14200BF08EFBD2
:1019F00000200BF079FB1C200BF088FB00200BF083
:101A000073FB0BF07BFB257A15F0070540F0258171
:101A100002200BF07BFB28460BF066FB03200BF04B
:101A200075FB814B1B7859075DBF7B4B0520DB683D
:101A3000284658BF9B89784D5CBFB3FBF0F000B2DD
:101A40000BF052FB2369DA075BD5DFF8F491AA8A21
:101A500099F800304FF0640808FB02325B00B2FBDB
:101A6000F3F3EE8A06203601B6B246EA0326B6B292
:101A7000C3F303231E430BF049FB30B20BF034FBDE
:101A8000EB8A99F8001001339BB293FBF1F201FB52
:101A90001233EB82AB699B7B012B05D139200BF014
:101AA00035FBB5F9140019E0AD8A6E235D431526A8
:101AB00095FBF6F53A20AEB20BF028FBB6FBF8F535
:101AC00028B208FB15650BF00FFB3B200BF01EFB4B
:101AD000A8B2451D0A2095FBF0F000B20BF004FB04
:101AE00028200BF013FB00200BF0FEFA04200BF073
:101AF0000DFBE368988910B108F0E4F900B20BF02F
:101B0000F3FAE369444E9B0640F19C8096F820303E
:101B10009D071BD511200BF0F9FA708C4FF4F3657B
:101B20006843424B90FBF3F000B20BF0DDFA192052
:101B30000BF0ECFA708C4543642095FBF0F595FBB7
:101B4000F0F300FB135000B20BF0CEFA94F8203003
:101B5000A58C13F0020F08BF002501200BF0D6FA68
:101B600028B20BF0C1FA09200BF0D0FA00200BF0DC
:101B7000BBFA2F4B94F826501A88B2F5967F0AD9F3
:101B8000254B1B7A03F00F03072B04D842F20F7585
:101B9000954228BF154605200BF0B8FAA3695B7B78
:101BA0000BB928B216E0A5F120000CF033FA214958
:101BB0000CF038FB002105460CF01EFC10B94FF06C
:101BC0007C5101E04FF03F4128460CF06FF90CF0DA
:101BD0003BFC00B20BF088FA94F820200E4B9007E3
:101BE00003D493F82720012A04D1012384F8273055
:101BF00011482EE09D69114968680CF05FFA0CF0FD
:101C000023FC0E490890A8680CF058FA0CF01CFC54
:101C1000099008A81DE000BF44060020D431002030
:101C20000200002000007A4439320020A086010022
:101C30003C0000206666E63F6C0600208096184B4C
:101C40003A000020AC4A08AB92E8030083E80300A6
:101C500018460BF06BFA0BF051FA237A282B1FD1A0
:101C6000A64B00221A723B684FF47A70B3FBF0F86F
:101C70003C2617200BF04AFAB8FBF6F5B5FBF6F058
:101C800006FB1050000200B20BF02EFA18200BF0E9
:101C90003DFA06FB158000B20BF026FA0BF02EFA87
:101CA00094F83030954D002B00F0488104F0DAF8BC
:101CB0006B6B934AC31A9342064640F2B7800023E7
:101CC00085F83A3085F83C30AB8ADAB21B0A85F8E1
:101CD000562085F8573085F84C2085F84D306A6ECF
:101CE0003B689A1AAB6ED97B4FF47A734B439A4296
:101CF0000DD3844B1B686B6695F86C30013B012B50
:101D00009FBF102385F83A30022385F83C3000232A
:101D100094F8201084F8543084F8553084F8583002
:101D200084F8593094F826308907744A84F887304B
:101D300003D42D2382F8883077E0D4F828907248B5
:101D4000042B99FBF0FADFF8CCC18CBF332332238C
:101D500082F888300CFB0A924FF0060E0EFB02F25E
:101D60006A4BE56A92FBF3F195FBF0F003FB11225D
:101D7000642792FBF7F20CFB005C0EFB0CFE84F870
:101D80007920121284F87A209EFBF3F203FB12E30F
:101D900093FBF7F30AEB8A0A4FFA81F80AEB8A0AF7
:101DA00008EB8A0189B284F8771000EB8000090AF9
:101DB00084F8781000EB800051B201EB800292B2FF
:101DC00084F87C20120A84F87D2084F87E30628CAE
:101DD0001B1284F87F30242353434FF47A7293FB11
:101DE000F2F384F87430C3F3072384F87530B4F841
:101DF0009A300A2284F880301B0A84F88130A38C40
:101E00004FEAD979B3FBF2F303F5FA739BB284F886
:101E100082301B0A84F88330B4F89C30ED0F84F8CC
:101E2000769084F87B5084F88930666394F89E80BD
:101E3000324DB8F1000F0DD1D5F8A40004F052F9DD
:101E4000012807D90228324F00F04F860BF03EF9E7
:101E50000123BB70D4F8A850284B002D6ED093F806
:101E60009E203AB140F6B731D3F8B020B21A8A4278
:101E700016D863E0012283F89E20D3F8B420D3F86B
:101E8000A4001278022A04D8043002210BF008F9C9
:101E900002E0022104F0CEF8002384F8B8304BE0D1
:101EA00093F8AC20AAB9C3F8A82083F89E20D3F8F1
:101EB000B420D3F8A4001278022A04D804300121F7
:101EC0000BF0EEF802E0012104F0B4F80BF0FEF89C
:101ED00032E0013AD2B283F8AC2093F8B81093F80C
:101EE000B900CAB901304A1C83F8B90083F8B82098
:101EF000D3F8A4001EE000BFB0590108440600203A
:101F00003F0D0300D43100208096980040420F001E
:101F100002000020806967FF2A4612F8017B013029
:101F20007D18394683F8B900D3F8A40083F8B85077
:101F3000C3F8A82004F0D9F8C4F8B06094F8BA3017
:101F4000B74DF3B1D5F8BC30DBB1D5F8C030C3B173
:101F5000C5F8C4301B68B34AC5F8C830D5F8CC30D2
:101F60001344187A01F072FBD5F8C430987909F05F
:101F7000B5FFD5F8CC300133092B88BF0023C5F855
:101F8000CC30A94D94F8D0202E68A54B002A00F043
:101F90005381D3F8D420002A00F04E8193F8D83032
:101FA000013B012B00F24881D4F8D4009C4F04F08F
:101FB00099F8E0B1D7F8D40004F091F897F8D93047
:101FC00080467E2BD5F800900ED102231B2887F87F
:101FD000D83009D1D7F8D40004F084F820B901230F
:101FE000C7F8DC9087F8E03084F8D980DCE7D7F8D0
:101FF000DC202B689B1A41F6583293421DD90323EB
:1020000087F8D83018E1894A32F8130010B903462E
:102010004FF403600133B0F5C06FDBB25AD01DD965
:10202000B0F5006F5CD02FD9B0F5036F36D184F8CE
:10203000E130E3697A4F990637D494F8E01094F8C8
:10204000E130002900F0F6802A68921B012ADAD9D3
:1020500084F8E130002384F8E030EDE0B0F5007F53
:1020600038D006D8B0F5807F68D0B0F5887F65D0CD
:10207000E7E7B0F5806F74D0B0F5826F00F0908024
:10208000B0F5047FDDD11CE0B0F5E26F65D0B0F5AE
:10209000E46F62D0B0F5E06FD3D15EE0B0F5046FCD
:1020A0005BD0B0F5026FCCD1A5E097F820309A074D
:1020B000C3D5798C24234B436421123393FBF1F174
:1020C000A8E084F8E1302369554FDB07B5D5BB8A1A
:1020D0000A219EE084F8E130236913F0400F32E0DA
:1020E000E1694F4A880684F8E130A6D592F82010BD
:1020F0008907A2D5DB0710D5D36A192283EAE371D9
:10210000A1EBE37101EB5101B1FBF2F1002BACBF8C
:1021100041F0004141F040410DE0936A192283EA09
:10212000E371A1EBE37101EB5101B1FBF2F1002B83
:10213000B8BF41F080414FF400604BE084F8E130DB
:10214000E36913F0040F3FF478AF00210AF074FF45
:10215000334B002283F8E0206FE784F8E130002160
:1021600038E084F8E13094F8E2302D4A0133DBB2F4
:10217000032B88BF012382F8E23042F2107394F8F7
:10218000E21059432A4B1B78DF0748BF01319807FB
:1021900048BF02315A0748BF04314FF4806019E04C
:1021A000E169DFF87C8011F0200784F8E13017D076
:1021B00098F8202012F0020F14BF4FF47A7100211A
:1021C00012F0010F14BF4FF4FA6300230B4494F88C
:1021D000261019440AF030FF002384F8E0302CE781
:1021E000D8F810301B077FF528AF39460AF024FFD6
:1021F00088F8E07021E784F8E130E369084F990638
:102200007FF51BAF97F820309A077FF516AFBB8C90
:10221000642159430AF010FF002387F8E0300CE7EF
:1022200044060020B0590108D4310020006D010897
:102230003932002084F8E13094F8E320814B002A01
:102240005CD02968D3F8E4208A1AC72A56D993F8B3
:10225000E820C3F8E41093F8E910013283F8E8208D
:10226000794E93F8EA2029B97AB93270D3F8EC00A4
:10227000232141E04AB932783AB9D3F8EC00582129
:1022800003F033FF0123337038E03378B3B3D4F86D
:1022900000310A26A4F8F230B4F8FC300027A4F884
:1022A0000431B4F8FE304420B3FBF6F384F8F07048
:1022B000A4F806310AF0AEFE0121B4F9F2000AF0EA
:1022C0008BFE48200AF0A6FE0121B4F904010AF0B1
:1022D00083FE41200AF09EFE0121B4F906010AF0B6
:1022E0007BFE2A200AF096FE94F8F00039460AF0A8
:1022F00073FE3146D4F8EC0003F0F7FE94F80821A1
:10230000504B002A00F097812968D3F80C218A1AD3
:10231000092A40F2908193F81021C3F80C1193F828
:10232000E910013283F8102193F8EA20474B09B9EC
:1023300032B903E022B91A7812B901221A707AE18F
:102340001B78002B00F0778194F8113105220133BE
:10235000DBB2B3FBF2F202EB820284F811319B1A7A
:1023600013F0FF031FD101228DF824208DF82520C2
:102370008DF826208DF827200327354A08938DF8FD
:10238000287008AE03CE1772106051600920322108
:1023900002F8013C09F07EFC09F063FC294BA3F82C
:1023A00012010AF0F5FD94F811310A21B3FBF1F2A4
:1023B00001FB123212F0FF0F32D1642B30D8002310
:1023C00008930123ADF82430ADF8263002238DF8B0
:1023D0003830204B0AAE03F11007324618685968AE
:1023E000083303C2BB421646F7D1194B08AE0EAFF5
:1023F000324603CABA4218605960164603F1080310
:10240000F6D11278DC211A70134B16221920DA71DA
:1024100009F040FC09F025FCA4F812010AF0B8FD0F
:1024200094F811111E23B1FBF3F203FB121313F006
:10243000FF0F40F09380034BB3F8143173B19BB29C
:102440000DE000BF440600203B3200203A3200205D
:102450006C2E00203F6D0108642E00200823D4F864
:10246000F4100A2202FB01F0D4F8F81000264A43C7
:102470000B9200220027ADF83420ADF83620ADF8DD
:102480003A208DF83C2008AACDE908671646B4F931
:10249000FC104FF47A7E0EFB01F18DF83D30774B46
:1024A0000A900C91ADF838E00DF13808174603CFCB
:1024B0004745186059603A4603F10803F6D1386879
:1024C00018211860BA886E4F9A801E20F97109F0A1
:1024D000E1FB09F0C6FBA4F812010AF059FDD4F89B
:1024E000F4200A2303FB02FBD4F8F820B4F9FC9093
:1024F00003FB02FAD4F818014FF47A7303FB09F9CD
:102500000BF0C8FF00230893ADF83430ADF8363037
:10251000ADF838303346CDF824B0CDF828A0CDF84A
:102520002C90CDF83090ADF83A0007F108021E4625
:1025300003CE464510605160334602F10802F6D1E1
:1025400030682123106068211C20FB7109F0A2FB78
:1025500009F087FBA4F812010AF01AFD94F8111192
:102560001E23B1FBF3F203FB1213DBB20F2B454E1C
:1025700061D1D6F818010BF067FF1FFA80F8B6F9A1
:10258000FC000BF047FD08AA16463F4B00270893B6
:1025900009930023ADF83230384B0A900B97ADF811
:1025A00030800DF1300C9646BEE80300E645186019
:1025B0005960724603F10803F5D1DEF80000DFF838
:1025C000C080186014204A23014688F8073009F0BB
:1025D00061FB09F046FBA4F812010AF0D9FCD4F81B
:1025E0002431D4F820210B933346D4F81C11002059
:1025F0000DF1580E0A92089009910C970D974EF81C
:10260000207D08F108021E4603CE76451060516019
:10261000334602F10802F6D130681E2310602721EC
:102620001C2088F8073009F035FB09F01AFBA4F8E4
:1026300012010AF0ADFC94F82821124B002A00F098
:10264000FD802968D3F82C218A1A092A40F2F680E5
:1026500093F83021C3F82C1193F8E910013283F874
:10266000302193F8EA20094B09B98AB903E07AB915
:102670001A786AB901221A70E0E000BF6C2E0020BF
:10268000642E002044060020000020413C3200203F
:102690001B78002B00F0D28094F831311E210133D9
:1026A000DBB2B3FBF1F284F8313101FB123313F0EA
:1026B000FF03964E59D1964F86F8323179683868C3
:1026C00008AB03C308A80AF067FB0AF051FB0AF045
:1026D0009DFB0AF04DFB0AF0F7FB0AF049FB0AF0FC
:1026E000A7FB0AF045FB31200AF036FB0AF040FB5D
:1026F000B6F8142107F1080108A805F021F908A887
:102700000AF04AFB0AF034FBD6F8346130460BF08D
:10271000C1FE80495FFA80F830460BF0CFFC0646D8
:102720000A2000FB08F00BF075FC014630460BF068
:10273000BBFB0BF0AFFE07F10E01C3B2424608A887
:1027400005F0FEF808A80AF027FB0AF011FB0AF0D2
:1027500007FC0AF00DFB0AF003FC0AF009FB0AF083
:1027600007FB0AF02DFB0AF0D9FA94F831111E2369
:10277000B1FBF3F203FB1213DBB20F2BDFF88C81FA
:102780005CD1654E08AB71683068002703C308A8A8
:1027900088F832710AF000FB0AF0EAFA0AF036FB18
:1027A0000AF0E6FA41200AF0D7FA0AF0E1FA0AF054
:1027B0008BFB0AF0DDFA0AF03BFB0AF0D9FAD8F8F5
:1027C00038010BF067FE06F1080182B23B4608A80B
:1027D00005F0B6F808A80AF0DFFA0AF0C9FAD8F846
:1027E00018010BF057FE3B4682B206F1080108A81B
:1027F00005F0A6F808A80AF0CFFA0AF0B9FA06F12F
:102800001201D8F83C2108A805F09AF808A80AF0A7
:10281000C3FA0AF0ADFA06F108013A463B4608A8A9
:1028200005F08EF808A80AF0B7FA0AF0A1FA4520D8
:102830000AF092FA0AF0C4FA0AF070FA94F84031F9
:10284000DFF8C880002B00F0AD80D8F84431002BB1
:1028500000F0A8802F68D8F84831FB1A632B40F2AB
:10286000A1802E49D8F818010BF028FC0BF012FEBD
:1028700086B241200AF03AFA00200AF02EFA00202F
:102880000AF02BFA30460BF0C5FB22490BF0CAFCCC
:102890000BF000FE80B20AF020FA0AF0F3F998F883
:1028A0004C6116F001063BD0D8F81C309B064BD586
:1028B000B8F914314720052BB4BF022603260AF0CD
:1028C00015FAD4F8F4004FF00A0808FB00F00AF0FB
:1028D000F3F9D4F8F80008FB00F00AF0EDF90F491D
:1028E000D4F838010BF0EAFB0BF0D4FDC0B20AF0CB
:1028F000D3F9B4F9FC30642058430AF0DDF9B4F997
:10290000140146EA8000C0B21AE000BF440600206D
:10291000C259010800002041DA5901080000C842EC
:1029200053200AF0E3F930460AF0D7F930460AF0AE
:10293000D4F930460AF0B0F930460AF0ADF901207A
:102940000AF0AAF90AF09EF994F84C61DFF81C929B
:10295000DEB94F200AF0CAF9D9F8F4004FF00A089E
:1029600008FB00F00AF0A8F9D9F8F80008FB00F01D
:102970000AF0A2F930460AF09FF901200AF08CF91A
:1029800001200AF089F90AF07DF994F84C310A2106
:102990000133DBB2B3FBF1F201FB1233C4F848712F
:1029A00084F84C3194F84D31704F002B00F0DA80F0
:1029B0002A68D7F85031D31AC72B40F2D38097F842
:1029C000543197F855E1013387F8543197F856316F
:1029D000C7F85021734500F0C5802C2505FB0E7506
:1029E00008AE05F5AC750FCD0FC60FCD0FC695E837
:1029F000070086E80700D7F8C8240EF1010E9EFBF9
:102A0000F2F302FB13EE0C9B002487F855E187F8E4
:102A10005741DDF82090DDF82480DDF828A0BDF8CE
:102A20002C609DF83450BDF836B007930E9B50498A
:102A300004939DF83C309DF846200593BDF848303E
:102A400008A80693BDF84430109F04F079FF08A849
:102A50000AF004F96DB232B26A434649079B08A8EE
:102A600004F06EFF08A80AF0F9F89DF914300FFA87
:102A70008BF25A433F49049B08A804F061FF08A861
:102A80000AF0ECF850460BF005FD85B248460BF015
:102A900001FD80B2009040460BF0FCFC069B80B22A
:102AA0000190029308A834493A462B4604F048FFA7
:102AB00008A80AF0D3F82D4D661C95F85731E4B2FA
:102AC000A34208D92C4494F8D014D5F8CC0403F0D0
:102AD0000CFB3446EFE7D5F8CC040A2103F005FBE4
:102AE000B5F80036A5F8D0353CE0BB782BB1C5F879
:102AF000A06087F80280FFF7ADB9D5F8A030F31ACF
:102B0000B3F57A6FFFF4A6A90123D5F8A400BB7032
:102B100003F0E5FA0746D5F8A40003F0E0FA7F06D3
:102B20007FF498A98A2803D08E280DD0FFF792B998
:102B3000EB6998067FF58EA995F89E30002B7FF4FF
:102B400089A905F16D0306E095F89E30002B7FF40E
:102B500081A905F13803C5F8A8302D2385F8AC30DC
:102B6000FFF778B917B0BDE8F08F00BF440600202A
:102B7000206D0108276D0108306D01082DE9F04F27
:102B80009D4C87B02368C3B99C4D2B78013B042B27
:102B900000F24285DFE813F00D040D040D04070573
:102BA000E804954B186803F09AFA954B05461B68A4
:102BB0001B7843B1012B00F06E81206803F092FA7C
:102BC0000028EED1E0E724288E4E0CD006D80A2843
:102BD00000F0DB800D2800F0D8804AE12A2806D0DA
:102BE0002C2804D045E133707370B370E5E7864B51
:102BF000717896F800800020824A5854B8F1000F8E
:102C00001DD1197882F80380472918D159785029A5
:102C10000FD19978472940F0E384D978472940F0CB
:102C2000DF841979412940F0DB840121D17000F063
:102C3000D7BC4E2903D19978472900F0C584F27892
:102C4000704F022A3AD0032A4FD0012A40F08C80DC
:102C5000A8F10202072A00F28780DFE802F00408E8
:102C60000F131A25852A08F0FEFE70607CE01B78A1
:102C7000532B79D173685B42736075E008F0F3FE03
:102C8000B06071E01B78572B6ED1B3685B42B360C4
:102C90006AE01B78302B5D4B1A788CBF42F0020241
:102CA00022F002021A705FE0002008F03BFF307350
:102CB0005AE0002008F036FFF08155E0B8F1070F28
:102CC00007D0B8F1080F4FD1012008F02BFF788210
:102CD0004AE0012008F026FF41F2184358434FF420
:102CE0007A73B0FBF3F038823EE0B8F1020F08D0FF
:102CF000B8F1030F0AD1002008F014FF444B1870FC
:102D000032E0002008F00EFF38752DE02CD9A8F134
:102D1000040292103B7D0132D2B2013B02EB8303ED
:102D2000DBB2102B20D8A8F10301C2F1010201EBA4
:102D30008202D2B2012A0BD0042A11D100205F1ED8
:102D400008F0F0FE334B0022D855334BDA5507E03C
:102D5000324A5F1E0020D35508F0E4FE304BD855B0
:102D6000304A136801331360264B00222A2D7270FB
:102D700018BF9A7808F101080CBF0122554086F867
:102D800000800CBF5A759D7017E7737D002B6AD0C9
:102D9000254B13F8012D25495A708B42F9D11A4A57
:102DA000B07813785278402B85BF373B1B011B014D
:102DB000DBB298BF03F0F003402A8CBF373A303AB9
:102DC000D2B21344DBB298420E4A49D121230B7090
:102DD000174916480B6801330B60D378012B2DD0AF
:102DE000022B3FD17223118A0370124B528A198031
:102DF000114B1A8036E000BF0C050020D0040020E3
:102E000008050020B0130020182E002064060020C2
:102E10003C1600206D1600205D1600203D16002097
:102E20004D1600200827002004050020F004002093
:102E3000142700206606002030160020672101704C
:102E4000A54909788D070ED5A44950680860906897
:102E50004860107BA2490870D189A24A118002E023
:102E60003F230B70002300227275002B3FF4A5AEA8
:102E70006CE173780E2B9FBF9B4A591C51709B4A83
:102E800098BFD554737D984A002B7FF496AE937803
:102E90005D40957091E6944B9A7D082A3FF68DAE81
:102EA000DFE802F0050C1319242F4A606A00B528E8
:102EB0007FF483AE0022DA75012202E0622802D09C
:102EC00000229A7579E60222FBE703229A751876AA
:102ED0005876987671E604229A755A7E997E024455
:102EE000D2B25A760A449A76D87666E605229A7560
:102EF0005A7E997E0244D2B25A760A449A769883D0
:102F00005BE606229A755A7E997E0244D2B25A76C0
:102F10000A449A769A8B02EB0025ADB2B5F5AC7FE8
:102F200082BF714A0121D17500229D83DA83002D71
:102F30007FF443AE0722C4E75A7E997E0244D2B2A0
:102F40005A760A449A76DA8BB2F5AC7F3EBF664970
:102F5000891881F820000132998B92B29142DA836C
:102F6000E8D92AE608229A755B7E83423FF425AEB3
:102F70005D4B0122DA750EE000225D499A7511F869
:102F8000012D4A705B4A9142F9D1987E564AA84277
:102F900006D03F230B70584A5368013353600CE648
:102FA000564D286801302860D07D10B13E230B704B
:102FB00003E621200870D07E06284DD004D80228D0
:102FC00014D0032830D0F8E5122864D030287FF4DC
:102FD000F4AD4920087092F82410494A102988BF9E
:102FE0001021117010784749002264E050200870C9
:102FF0003A49506A4860906A0860116B4FF47A70E1
:1030000091FBF0F13748018092F87811324A19B1FA
:10301000117841F0020102E0117821F002011170F3
:10302000012283F8792181E05320087092F825105D
:1030300011F0010105D092F82420D01E42424241F5
:1030400000E00A4683F87821002A6FD122490A78E5
:1030500022F002020A7069E04F20087092F82B10EB
:1030600011F0010105D092F82A20D11E4A424A41AE
:1030700000E00A4683F8782122B917490A7822F03D
:1030800002020A7093F84F10154A1170B3F84C10F1
:103090001D4A11804AE056200870506B1B49088079
:1030A00042F21070916B91FBF0F1194801800121FF
:1030B00082F87A113AE0824234D20E7A154D565592
:1030C0004E7A154D5655CE7A144D565511F80C6F53
:1030D000134D56550132EEE7640600206C060020C1
:1030E0006A06002068060020B0130020182E002079
:1030F00004050020F0040020D00400201427002044
:103100003C160020D01300203C0000206606002062
:10311000301600203D1600204D1600205D160020C0
:103120006D160020AE490A6801320A6093F87931C1
:10313000AC4A002B3FF441AD92F87A31002B3FF4BA
:103140003CAD002382F8793182F87A31A64BDFF862
:10315000D082DA681A61A54A1268DA60A44A136854
:1031600043F020031360A34B1A78012A0CBF0022FE
:1031700001221A7098F800309A077FF51EAD9E4A1A
:103180001278042A7FF619AD9C4A127802F00402E4
:1031900002F0FF011AB923F0010388F8003098F813
:1031A0000070904E17F0010F954D24D119B3BB0755
:1031B00021D5944B28686A6818605A600AF02AFF83
:1031C000002181460BF036F908B1484601E009F1CB
:1031D00000408D490BF026F88C490AF06FFF04F08F
:1031E00059FC8B4B47F0010718608A4B88F8007038
:1031F0001B88A6F87C3196F87E21531C052293FB90
:10320000F2F202EB82029A1A96F87F3186F87E215A
:10321000029392000023DFF8E8919900DFF814A2EE
:10322000039159F82310DFF810E291FBFAFC0EF13C
:10323000080040F823C078484EF8231000FB0C111A
:1032400042F2107091FBF0F00EF1100680B226F8F9
:1032500013004FF014080EF1140608FB03680EF17A
:103260003C0B58F802705BF8236048F80210F61B1C
:103270000E4405214BF8236096FBF1F60AFB0C6621
:1032800002990EF1440E01294EF82360C84606D17A
:103290000238B0F5797F9CBF039941F809600BB9FA
:1032A0000123B8E7DFF844914E4FD9F80000D7F872
:1032B000CC31C01A0AF0AAFE58490AF0B3FFD9F877
:1032C00000304FF07E51C7F8CC3106460BF094F831
:1032D00008B94FF07E56524BC7F8D0611B78DFF823
:1032E0005C9113F001034F4E13D004AA0092454B9A
:1032F00005AA01920CCB98E8030009F0C3F9049ADF
:103300006421B2FBF1F2059BA9F8002093FBF1F3D5
:1033100001E0A9F80030338097F8D431314E002B0A
:103320003BD0D6F8D0114FF07E500AF07BFF82469A
:10333000D6F8D8312868C01A0AF06CFE51460AF057
:10334000BDFE0BF081F8D6F8DC311FFA80F9686811
:103350000FFA89F9C01A0AF05DFE2D4B19680AF0C0
:10336000ADFE51460AF0AAFE0BF06EF8B6F9E22166
:1033700000B28118B6F9E021022009EB020391FBAB
:10338000F0F193FBF0F389B29BB2A6F8E611A6F830
:10339000E431A6F8E211A6F8E031012387F8D43130
:1033A000D8F80430C7F8DC31D8F80030C7F8D83185
:1033B00003E41D4E3268177817B1012F40D02BE17E
:1033C000012B00F229816A78184B0C2101FB023392
:1033D0005A78174B206853F8221002F07DFE8DE0DA
:1033E00008270020B0130020D0040020D431002092
:1033F00060060020321600206A06002039320020C4
:103400006C060020341600208096184B35FA8E3C4E
:1034100008000020500C0020806967FF00007A44FB
:1034200064060020E0060020080500203C54010846
:10343000B45D01088096980030150020DE0600205B
:103440002068DFF8048202F0F8FD002800F0E48034
:103450002A78734B022A3FD0032A4CD0012A40F02D
:10346000DB80704A10689A69821AC72A40F2D480B9
:10347000596904292ED86C4A0C24964604FB012174
:10348000D8F800404E78A768986100236749D8B201
:1034900051F82320BA4204D001330B2BF6D100237C
:1034A00000E00346B34205D0204651F8261002F052
:1034B00013FEB1E06B780C2101FB03E2566816F8AD
:1034C000011B19B1204602F010FEF8E76B690133C9
:1034D0006B61A1E0022074E05A78534B0C2101FB90
:1034E00002335A78514BD8F8000053F8221002F0FA
:1034F000F3FD032065E0326892780AB9042060E0A9
:103500001A7F02B91F772B7F454F012B0FD17B69A3
:10351000B22B08D8464A2068D15C02F0E6FD7B69F0
:1035200001337B6103E000237B6102233B772B7F28
:103530003B4F022B14D17A690F2A0FD833683C49CC
:103540005B78206803EB03130B44134493F8B41027
:1035500002F0CBFD7B6901337B6101E003233B7704
:103560002B7F022B58D9C9E7AB682D490133AB60DB
:10357000304B1B68DB784BB14B7805220133DBB253
:10358000B3FBF2F202EB82029B1A4B70254B002236
:103590001B680120EB60284B1A70284A137823F02F
:1035A000020313700DE01F4BEA681B689B1A40F67C
:1035B000C412934230D9224A0520136823F0200315
:1035C000136009F051F827E0D97847297FF437AB29
:1035D000197941297FF433AB0121D170FFF72FBB5B
:1035E0009978184A522907D1D1784D2904D11279F6
:1035F000432A01D10222F2709978124A47297FF4B6
:103600001EABD17853297FF41AAB1279562A04BF26
:103610000322F270FFF713BB07B0BDE8F08F00BFC5
:10362000D0040020D43100203C540108B45D0108CE
:10363000005A0108080500206A06002064060020E0
:1036400060060020182E00200C05002070B56428AC
:10365000A0B0044600F0888100F2AF80342800F06A
:103660008F8351D8222800F0538323D8032800F0F9
:10367000468114D8012800F03781022840F09F8548
:10368000042008F03DFC432008F028FC4C2008F002
:1036900025FC462008F022FC4C2000F0D7BC042872
:1036A00000F03681052840F08A851A2008F028FCB1
:1036B000002440E1282800F0618415D8242800F077
:1036C0004884262840F07B85D14C062008F018FC61
:1036D000B4F8580108F02EFCB4F85A0108F02AFC9E
:1036E000B4F85C0100F067BD2C2800F05A84322841
:1036F00000F0A6842A2840F06285012008F000FC32
:10370000C34B587900F0A2BC422800F0AC841BD80F
:103710003A2800F025820BD8362800F0C5843828D6
:1037200040F04D85042008F0EBFBB94C00F017BCCD
:103730003B2800F0E682402840F04185082008F050
:10374000DFFB002400F085BC472800F0DF8424D88C
:10375000452800F00C85462840F031850D20AD4C01
:1037600008F0CEFB05F0F2FE08F0B8FB208808F068
:10377000EAFBE06808F0E7FBA74A92F8B70092F886
:10378000B63098422ABFC31AC3F180030020034415
:10379000D2F8B800184400F0F9BC4B2800F020849F
:1037A0004D2800F02C84492840F00985022008F0BB
:1037B000A7FB974B988900F0FEBC722800F00583A8
:1037C0004AD86A2800F0458325D8672800F03C8154
:1037D00011D8652800F0D880662840F0F0841220C7
:1037E00008F08EFB8D4B00241B88B3F5806F8CBFD7
:1037F00008250125EFE0682800F09381692840F052
:10380000DE84854D002495F83800400000F0FE006D
:1038100008F076FB91E16D2800F09B8112D86B28AF
:1038200000F037836C2840F0CA84062008F068FB5B
:10383000002008F07FFB002008F07CFB784B188804
:1038400000F0B9BC6F2800F0A481C0F08F8170280F
:1038500000F0C98100F0B3BC782800F0018113D8D2
:10386000752800F0428204D8732800F0E78274289B
:1038700003E0762800F01E83772840F0A084002023
:1038800008F03EFB00F099BCA42800F0348314D863
:103890007C2800F07E84A02840F091840C2008F061
:1038A0002FFB604B186808F04EFB5F4B186808F060
:1038B0004AFB5E4B186800F069BCF12800F00B81F0
:1038C000FE2800F03F83F02840F07984524C042019
:1038D00008F016FBE369B3F85A0008F02BFBE36924
:1038E000B3F8580000F067BC032008F009FB002083
:1038F00008F0F4FA204608F0F1FA0E20A6E308F0EA
:10390000FFFA062008F0EAFA062008F0E7FAF0E2EB
:10391000062008F0F5FA412008F0E0FA462008F009
:10392000DDFA4E2008F0DAFA412008F0D7FA404BD1
:10393000187800F040BC3F4B185D013408F0CEFA17
:103940000B2CF8D100243C4B185D013408F0C6FA6A
:10395000082CF8D10024394B185D013408F0BEFA68
:10396000072CF8D100F029BC072008F0C9FAE7209D
:1039700008F0B4FA264B587908F0B0FA002008F0A5
:10398000ADFA042000F002BC234C0B2008F0B8FA7A
:10399000208808F0CFFA608880B208F0CBFA284B74
:1039A0001B68C3F3C000C3F38002800040EA4200FA
:1039B000C3F340021043C3F3401240EAC20003F0D5
:1039C0001003184308F0B6FA002008F0BCFA104BB8
:1039D00093F8F0063AE31B4B33F91400013490FBE3
:1039E000F5F080B208F0A6FA032CF4D100200A4CBE
:1039F00008F0A0FA002008F09DFA002008F09AFADA
:103A0000A08808F097FAE08808F094FA2089D2E3B9
:103A1000580C00200C000020C815002002000020D7
:103A2000500C0020E8F7FF1FECF7FF1FF0F7FF1F17
:103A30003D3200204F6D01085B6D0108646D010887
:103A400060060020520C0020102008F059FA0024D3
:103A5000C04B185D013408F041FA102CF8D1ACE3EA
:103A6000702008F04DFA00260E247443BA4D01363A
:103A7000EB692344B3F8190108F05CFAEB692344BD
:103A8000B3F81B0108F056FAEB692344B3F81D01A3
:103A900008F050FAEB69234493F81F0108F01EFA6E
:103AA000EB69234493F8200108F018FAEB692344EA
:103AB00093F8210108F012FAEB69234493F82201EC
:103AC00008F00CFAEB691C44D4F8230108F03BFA27
:103AD000082EC9D171E3702008F012FA9F4C04F14E
:103AE000700594F8D00008F0F9F994F8D10008F0C6
:103AF000F5F994F8D20008F0F1F994F8D30008F041
:103B0000EDF994F8D40008F0E9F994F8D50008F03C
:103B1000E5F9073494F8CF0008F0E0F9AC42E0D1C1
:103B20004BE3102008F0ECF900248D4B185D0134B4
:103B300008F0D4F9102CF8D13FE395F838309C42C6
:103B400080F03B83874B33F8140008F0F3F901341D
:103B5000F3E7062008F0D4F9002008F0F4F916E0A5
:103B6000042008F0CDF97C4B186E0FE3072008F015
:103B7000C7F97D4B1888FF28A8BFFF20C0B208F006
:103B8000ADF9002008F0D6F9002008F0D3F90020A4
:103B900011E3714C0B2008F0B3F9636E25461878D9
:103BA00008F09CF9636E0026587808F097F96B6E60
:103BB000694C33441879013608F090F9032EF6D198
:103BC000636ED87908F08AF9636E987808F086F900
:103BD000636ED87808F082F9636E588908F0AAF904
:103BE000636E187A32E25C4C1E2008F089F9E369B2
:103BF00000251B78022B65D1E36905F1080253F813
:103C000022005A490AF05AFA0EF08AFA80F30800A4
:103C1000C0B208F063F9E369554903EB8503D86A3C
:103C20000AF04CFA0EF07CFA80F30800C0B208F0FB
:103C300055F9E36905F10E0253F822004D490AF0E7
:103C40003DFA0EF06DFA80F30800C0B2013508F0BD
:103C500045F9032DD0D1072DE36921D1586C434993
:103C60000AF02CFA0EF05CFA80F30800C0B208F0FB
:103C700035F9E3693D49986C0AF020FA0EF050FAE4
:103C800080F30800C0B208F029F9E36993F84C000A
:103C90000AF0BCF90EF044FA80F30800C0B20BE061
:103CA0002B44587808F01AF9E3692B44D87A08F0C5
:103CB00015F9E3692B44587D013508F00FF90A2DF9
:103CC000C9D17AE2E3692B44587808F007F9E3692F
:103CD0002B44D87A08F002F9E3692B44587D01356A
:103CE00008F0FCF80A2DEDD167E22F2008F008F962
:103CF000214C14F8010F002800F05F8208F0EEF864
:103D0000F7E7012008F0FCF8134BDB6918789DE118
:103D1000502008F0F5F800250F4B0C21DC69174BFB
:103D200004EB850494F87920013501FB023393F804
:103D3000380008F0D3F894F87A0008F0CFF894F837
:103D40007B0008F0CBF894F87C0008F0C7F8142D3D
:103D5000E2D132E2D2150020C8150020580C002014
:103D6000E81500200216002058060020000020411F
:103D70000000C84200007A44075B0108085B0108A4
:103D8000482008F0BDF80025D44BDC69062303FB6E
:103D9000054494F8CE0008F0A1F894F8C90008F0A2
:103DA0009DF894F8CA0008F099F894F8CB0008F050
:103DB00095F894F8CC0008F091F8013594F8CD000E
:103DC00008F08CF80C2DDFD1F7E1C54C162008F077
:103DD00097F8B4F8940108F0ADF8B4F8400108F091
:103DE000A9F8B4F8420108F0A5F8B4F8440108F0C5
:103DF000A1F8B4F8D60108F09DF894F8E70108F0AE
:103E00006DF8002008F06AF894F8E80108F066F808
:103E100094F8830108F062F894F8900108F05EF8D5
:103E2000002008F05BF8AD4B0A20DB69B3F956308F
:103E300093FBF0F080B208F07DF890E0082008F0E5
:103E40005FF80124E0B2013408F048F8092CF9D1F8
:103E5000B3E1102008F054F8A24BA34C187800F0FE
:103E6000020008F03BF8A14B187808F037F82068FA
:103E700008F069F8606808F066F89D4B188808F04B
:103E800059F89C4B188808F055F8944BB3F8680023
:103E900091E1052008F034F8974B188808F04AF8AB
:103EA000964B188808F046F88C4B93F86A0000F09F
:103EB0000100CBE008F008F80646122008F020F8D0
:103EC0001EB9864BDD6E1C6F01E00024254630468E
:103ED00008F004F8284608F036F8204608F033F8D1
:103EE000002008F030F8002008F024F8002008F046
:103EF00021F80020AAE0794D002495F874002E46A0
:103F000080000130C0B207F0FBFF95F8740007F0A5
:103F1000E5FF96F874309C4280F04F81784D285D23
:103F200007F0DCFF05F11003185D07F0D7FF05F17E
:103F30002003185D303507F0D1FF285D07F0CEFF74
:103F40000134E6E7082007F0DBFF002007F0F2FF6E
:103F500017E6042007F0D4FF614B986816E194F847
:103F6000780107F0BBFF94F87C0107F0B7FF94F8E5
:103F70007B0107F0B3FF94F87D0167E0584C072000
:103F800007F0BEFFB4F87E0107F0D4FFB4F880015B
:103F900007F0D0FF94F8820107F0A0FFB4F8840185
:103FA00009E14F4C0C2007F0ABFF94F88E0107F0AD
:103FB00095FFB4F8980107F0BDFFB4F8940107F03D
:103FC000B9FFB4F8960107F0B5FF94F88F0107F038
:103FD00085FFB4F89A0107F0ADFFB4F89C01EAE060
:103FE0003F4C042007F08CFF94F8D40107F076FFD3
:103FF00094F8D50107F072FFB4F8D601DBE0374C36
:10400000404D94F83800002600EB4000C0B207F0A5
:1040100077FF94F8383002359E4280F0CE8015F854
:10402000020C07F05BFF15F8010C013600EB800075
:1040300000EB800000F2EE2080B207F07BFFE8E7A3
:10404000012007F05DFF264B93F8900107F046FF33
:10405000B3E0234B234493F88601013407F03EFF7D
:10406000082CF6D1A9E01E4C102007F049FF60791A
:1040700007F034FFA06807F066FF94F88E0107F0A0
:104080002DFFB4F8580107F055FFB4F85A0107F0B6
:1040900051FFB4F85C0107F04DFFB4F87E0107F062
:1040A00049FFB4F8800186E00C4B0D4C93F8B50045
:1040B00004F12805C0EBC000C0B207F021FF94F85E
:1040C000EE010023104AD25C90427AD00C333C2B94
:1040D000F8D10834AC42F2D16FE000BFC81500201F
:1040E000580C0020640600206C0600206A060020A0
:1040F0006806002066060020DE060020E00600209C
:104100003D160020F60D0020282E002007F0DCFED2
:1041100085B207F0D9FE044607F0D6FE86B207F056
:10412000D3FE05EB042506EB0020ADB205EB004401
:10413000842007F0E5FE204607F005FF2D4BDD68E3
:1041400004F18003AB428CBF2D1B802508F02CFBB3
:1041500020462A46694605F0D3F905460024AC42BC
:104160002BDA1DF8040007F0B9FE0134F7E713203D
:1041700007F0C6FE0024204B185D013407F0AEFEA8
:104180000B2CF8D1002007F0DEFE002007F0DBFE4C
:1041900013E01A4C082007F0B3FEB4F8480107F00A
:1041A000C9FEB4F84A0107F0C5FEB4F84C0107F0A7
:1041B000C1FEB4F84E0107F0BDFE012018E000205A
:1041C00016E007F08BFEB4F8F00107F0B3FE94F8A8
:1041D000F20107F083FE94F8F30107F07FFE94F8F4
:1041E000F50107F07BFE94F8F40107F077FE70E725
:1041F00020B070BD0C0000204F6D0108580C00204D
:104200002DE9F04F87B06C4C02916C4922880E6802
:104210000546C2EB26135B435200C2EBE602B4F93B
:1042200002601B135643B4F90420B4F90A00534347
:104230009B1303EBE62606EB860380331B12B6F5D1
:10424000FA384FEAE67704934B6847F1FF39A8FB49
:1042500008AB039308FB09F3B4F908200BEB430BFD
:10426000E389A6610593D31708FB03F102FB09114B
:10427000A8FB02230B44C1171F030AFB01F300FB39
:104280000B33AAFB00011603194447EA1257020A2E
:1042900042EA016292194FEA2123E6887B4100320B
:1042A000A2FB060143F5004306FB03114B100093EC
:1042B000CB170193DDE900231343B4F810E0B4F801
:1042C0000CC06DD00FFA8EF0C1170AFB01F1AAFBEA
:1042D000002300FB0B11BDF914600B44F71708FB1A
:1042E00007F106FB0911A8FB06670F447904700467
:1042F000801841EAD6315941039B0FFA8CF8C3F577
:10430000801E7246D317002212184FEACE764FEA6B
:10431000C3774FEAC8034B4147EA5E07B61A67EB1B
:10432000030740F63543A6FB030103FB0711DDE954
:1043300000230AF0CFF8B4F916204E1302FB06FE54
:10434000470B47EAC147D31707FB03EEA2FB07233E
:104350005643734407FB0366A2FB07233344560E00
:1043600046EAC3168219B4F914604FEA636741EB59
:1043700007037143F71700FB0717A6FB0001394439
:10438000C60C46EA413692194FEAE1474FEA12213C
:10439000B4F912207B4141EA036113010B4400E0B0
:1043A00000230DB11B0A2B60029B13B11A46049B1C
:1043B000136007B0BDE8F08F340400201017002010
:1043C000704770476B4B6C4A2DE9F04F5E899468DB
:1043D0004FEA062AB4EB0A0A9C884FF000054FEA20
:1043E00004481C894FF0000BA4FB0A6765EB0B0B1C
:1043F00004FB0B77F40944EA476418EB04065C8875
:104400004FF000094FEAE7154FEAC438DC8849EB62
:10441000050787B0CDE90467A4FB0A6704FB0B77A7
:10442000340A44EA076418EB04064FEA27259C89FE
:104430004FF0000949EB0507CDE90067AAFB0467C7
:1044400004FB0B77F40D44EA472414F5FA664FEAAF
:10445000E75545F10007B6F5FA6F77F10003CDE9AE
:104460000267964666DADDE90489A4FB046704FB6B
:1044700005F34FF0050C07EB4307A6FB0C230CFBE1
:1044800007335F104FEA3206B8EB06084FEA920690
:1044900046EA837669EB07099F10DDE90023921B4A
:1044A00063EB0703CDE90023DDE90267334A4FF0F0
:1044B000FF33964277EB0303CDE9048927DA40F610
:1044C000AC520023A4185D4104FB05F3A4FB044592
:1044D0006FF0060205EB4305664202FB0566A4FB8E
:1044E0000223334418EB020649EB0307CDE90467C6
:1044F0000B26A4FB062306FB0533DDE900455B1014
:104500004FEA3202A41A65EB0305CDE90045DDE967
:1045100002450AFB0BF3AAFB0AAB0BEB430B4FEA7A
:10452000DA7242EA4B02A41A4FEAEB7365EB030519
:10453000CDE90245DEF80C40009B019DA4FB03235E
:1045400004FB05334FEA525848EAC3284FEA63593F
:10455000DDE90423B8EB020269EB03039946D30BB0
:1045600043EA494300B1036009B1029B0B6007B005
:10457000BDE8F08FE00300201017002024FAFFFFB1
:104580002DE9F041324C334D62892B8AB4F9048015
:104590009A1A2389B4F902E05A43B4F91230D613B7
:1045A000B4F91420DB02324493FBF2F232440A26BF
:1045B000E2615643A2F57A6202FB02F3B4F90EC03F
:1045C00002FB0EFE02FB08F2B4F90C801B130CFB7D
:1045D00003FC03FB08F31B1403EB62320232E38893
:1045E000921002F5004253434CF25032B4F920705D
:1045F0004FEAEE2EB4F900400EEBEC2C0CEB8404E9
:10460000BC406D690234A5EBA4043A4162434FEA11
:10461000D3384EBFB2FBF8F35400B4FBF8F340F6C6
:10462000DE3448BF5B001A12524362430A4C08361C
:104630005C43241404EB224202F6CF62361103EBF2
:10464000221300B1036001B10E60BDE8F08100BF2C
:10465000F40300201017002043E3FFFF13B50C4BB9
:1046600004465B681B20022101AA984770B19DF89F
:1046700004209DF8053043EA022303F54E5310331E
:104680004FF48C7293FBF2F32333238002B010BDFE
:10469000CC03002037B5104B04465D68187806211E
:1046A0006A46A847A8B19DF800209DF80130012076
:1046B00043EA022323809DF802209DF8033043EA59
:1046C000022363809DF804209DF8053043EA02230D
:1046D000A38003B030BD00BFCC03002013B5104B46
:1046E00004465B683B2006216A469847A8B19DF8BE
:1046F00000209DF80130012043EA022323809DF829
:1047000002209DF8033043EA022363809DF80420D1
:104710009DF8053043EA0223A38002B010BD00BF1C
:10472000CC030020B0F5807F0ED0BB280ED86128C6
:104730000ED829280ED813280ED809280ED80028FC
:1047400014BF0620002070470020704701207047EA
:1047500002207047032070470420704705207047EF
:1047600007B5F7216B460622762002F04FFE9DF832
:1047700000309DF801101B0343EA01139DF802105D
:10478000094A43EA111353609DF803309DF8041061
:104790001B0343EA01139DF8051043EA111313604C
:1047A00003B05DF804FB00BF1017002007B500211F
:1047B00001AB0322772002F029FE9DF805309DF819
:1047C00004001B0243EA00439DF80600184303B0AF
:1047D0005DF804FB08B5FFF7E9FF014BD86008BDA1
:1047E0001017002008B5FFF7E1FF014B986008BDE6
:1047F000101700200F4B13B51B780F4C0BB1237E05
:10480000B3B1032201AB7720F62102F0FFFD9DF842
:1048100005309DF804201B0243EA02439DF8062060
:104820001343064AB2F92020C2F10802D340636163
:1048300002B010BD0000002010170020F40300207B
:104840000A4B13B51B780A4C0BB1237E63B10222CD
:1048500001AB7720F62102F0D9FD9DF804209DF8E8
:10486000053043EA0223238202B010BD000000207D
:104870001017002030B505460C461346294622463F
:10488000BDE83040682002F0C1BD13B506220446E1
:1048900001211C206B4602F0B9FD08B39DF80130E0
:1048A0009DF80020042143EA022242F38D0292FB8C
:1048B000F1F29DF8023022809DF8032042EA0322A3
:1048C00042F38D0292FBF1F29DF8043062809DF874
:1048D000052042EA032343F38D0393FBF1F3A38006
:1048E00002B010BD13B506220446022118206B4603
:1048F00002F08CFDB8B19DF800309DF801209B08B6
:1049000003EB022323809DF802309DF803209B08CF
:1049100003EB022363809DF804309DF805209B087B
:1049200003EB0223A38002B010BD314B2DE9F3410C
:104930001B780546002B3BD0002426462746A04680
:1049400001345320322108226B46E4B202F05EFDAE
:1049500008B9002049E09DF801209DF80030202C86
:1049600003EB02231BB29DF8032098449DF802300C
:1049700003EB02231BB21F449DF805209DF8043071
:1049800003EB02231BB21E449DF8073003F07F03A4
:1049900001D0002BD4D198FBF4F897FBF4F796FBE9
:1049A000F4F6144BA5F800806F80AE805C761CE0B6
:1049B0005320322106226B4602F028FD0028C8D081
:1049C0009DF801209DF8003003EB02232B809DF819
:1049D00003209DF8023003EB02236B809DF8052035
:1049E0009DF8043003EB0223AB8002B0BDE8F081F8
:1049F000DE030020101700207620F421312202F07F
:104A000043BD77204821012202F03EBD7720582186
:104A1000012202F039BD074B002193F82020064BFC
:104A20009201343219767720F42102F0FC0202F070
:104A30002BBD00BFF403002010170020034B002201
:104A40001A767720F4212E2202F01EBD10170020C6
:104A500003460A466820194602F016BD08B50F2124
:104A60000822182002F010FD0E221820102102F05A
:104A70000BFD024B4FF480521A8008BD020000204B
:104A800008B5134B53201B782D2108227BB102F06F
:104A9000FBFC31210A22532002F0F6FC2C210C22CF
:104AA000532002F0F1FC53203821902209E002F05B
:104AB000EBFC31210A22532002F0E6FC53202C218A
:104AC0000A2202F0E1FC40F20912024B1A8008BDF2
:104AD000DE0300200200002008B54FF4804005F0FE
:104AE0006FF9012801BF044B4FF480425A61034B18
:104AF00008BF187608BD00BF000401401017002051
:104B000010B5054C2368186905F05AF918B12368E7
:104B10001A69024B5A6110BDD803002000040140FD
:104B2000F8B50E461746084C4FF48055656140F0C5
:104B3000800008F0BDFB38460021324608F082FBB9
:104B400025610120F8BD00BF000C014070B50E4684
:104B5000054C4FF48055656108F0AAFB304608F01B
:104B6000A7FB2561012070BD000C014070B5FFF767
:104B7000D9FD104C0546192001F09BF9A3681520BA
:104B80000021984710B9022001F0F2F945F0180110
:104B9000A368C9B216209847A36800211720984738
:104BA000A36801213D209847A3683E200121BDE86C
:104BB00070401847CC030020F0B5274D85B0AB7E80
:104BC000002B46D1254C2368002B42D01A68244E76
:104BD00012B1B1690A43B2619A889868ADF80020B1
:104BE00002228DF80320694604228DF8022004F089
:104BF000F4F9B369002743F00103B3612368012688
:104C0000187B197D04F0D4F92368164993F915002F
:104C100001F0F8F92368144A1B69536102930823D1
:104C20000DEB03008DF80D308DF80C708DF80E60D3
:104C300005F096F8236801A85B7D8DF806708DF865
:104C4000043003238DF805308DF8076008F0DCFA96
:104C5000AE7605B0F0BD00BF10170020D8030020CD
:104C600000100240014B00080004014037B5044623
:104C7000FFF7A2FF254B1A68254B9A420ED14FF43D
:104C80000053ADF8043002238DF807300423214887
:104C90000DEB03018DF8063004F09FF92046FFF775
:104CA00041FD05461C4C8021A3686B209847642079
:104CB00001F0FFF8A368072168209847642001F0FD
:104CC000F8F8A36800216B209847642001F0F1F800
:104CD000A36801216B209847A36818211B209847DF
:104CE000A36810211C209847A36829461A209847DA
:104CF000A368002119209847A368122137209847FC
:104D0000A36801213820984703B030BD340000204B
:104D1000001BB70000100140CC03002008B5FFF7CE
:104D20004BFF024B4FF480521A8008BD0200002056
:104D300070B50446FFF740FF2046FFF7F3FC054639
:104D4000144C8021A3686B209847642001F0B1F8CF
:104D5000A368002119209847A36803216B20984776
:104D60000F2001F0A6F8A36829461A209847A368E7
:104D700018211B209847A36810211C209847A3687E
:104D8000022137209847A36838200121BDE87040F0
:104D9000184700BFCC03002008B5FFF70DFF074BF5
:104DA0005B7813B1012B03D008BD4FF4006201E022
:104DB0004FF48052024B1A8008BD00BFCA03002086
:104DC0000200002013B500222A211C2002F05CFB07
:104DD0000E2102221C2002F057FB0F2103221C206F
:104DE00002F052FB2B2112221C2002F04DFB164A2E
:104DF00002249369154843F0040393612023ADF81E
:104E0000043004230DEB03018DF806308DF80740C4
:104E100004F0E3F822462C211C2002F035FB2D2162
:104E200001221C2002F030FB2E2100221C2002F067
:104E30002BFB2A2105221C2002F026FB044B4FF4F9
:104E400080721A8002B010BD0010024000080140BC
:104E500002000020054A08B5138801339BB2138075
:104E6000034B187802F064F8002008BDCA15002032
:104E7000641E002002F064B902F084BA02F060B946
:104E800002F080BA026B0346C16810B5406942B1B6
:104E90001A6C8C1A013A08BF0A46005D1A64C0B247
:104EA00010BD1A6A805C01328A4228BF0022C0B25B
:104EB0001A6210BD436B13B190F844007047836AC7
:104EC000406A1B1A584258417047426A816A036916
:104ED0008A4238BFD218521A416B21B149680A443C
:104EE000591E8A4203D2013B981AC0B27047002073
:104EF0007047036B13B15B68016C01E0C369016A21
:104F00008B423CBFC2689B18581AC0B27047426AB5
:104F1000806A131A5842584170474171704743796B
:104F20009B070AD5436A8269D154436A01690133F8
:104F3000B3FBF1F201FB123343627047427902F096
:104F4000020202F0FF0342B10369426A806A013B38
:104F5000DBB2101A23EA0000704718467047437905
:104F600013F001031FBFC36803F1FF32C369006A76
:104F70001DBF181A1040C0B218467047437910B5CB
:104F800013F0010304460DD0FFF7E9FF58B1236A7F
:104F90006269E168D05C0133B3FBF1F201FB1233CB
:104FA000236210BD184610BD90F83B3210B57BB996
:104FB00090F83A3290F83942A34209D2B0F8401240
:104FC00001229A400A430133A0F84022DBB2F3E702
:104FD00010BD8379DB0748BFB1FA81F1D0F83431D5
:104FE00048BF49095A681B8909B113617047536169
:104FF000704710F80A3C0133DBB20A2B84BF10F86B
:10500000131C054A00F80A3C82BF002322F8113025
:1050100000F80A3C704700BF6C170020324A70B598
:10502000136C9068194440F68C23081A98429160DA
:10503000D0605160134639D9127893F9451014465F
:105040008A420BD1111F082908D893F84610182955
:1050500001D8013103E083F8442002E0002183F805
:10506000461093F944002049824217D191F8470035
:10507000A0B10C31002595421C4805DA51F8046FA7
:1050800020F815600135F6E70C2C04D0002120F83B
:1050900014100134F8E7017E0131017683F84520D0
:1050A000002201211A7083F8471070BD92F8471052
:1050B000C9B140F2DA51A0F2EF248C4208D811783D
:1050C0000B2905D80B1D0131117042F8230070BD6A
:1050D000002283F84720064B03F13002002143F8F9
:1050E000041F9342FAD170BD480200206C170020C3
:1050F00054020020024A136C0133194411647047B2
:1051000048020020024B53F820301B68198070477A
:1051100070030020074BA1F57A7153F820301A680C
:105120001B8959434FF47A7391FBF3F189B21180D3
:10513000704700BF700300201FB50123ADF8083091
:10514000ADF80410002301A9ADF80A30ADF80C3019
:10515000ADF8062004F0F1FC05B05DF804FB38B5AD
:10516000A0F513746379A579DB0745D594F8383237
:1051700005F00105F3B1226B1068838DC3F34E0374
:10518000838494F83C3223B1B4F842320133A4F85A
:105190004232917A6A00FFF7CFFF012384F83B3255
:1051A000002384F8393284F83A3284F83832A4F88B
:1051B000403238BD94F83B322046012B04BF94F8AE
:1051C000393284F83A32FFF7EFFE94F83B22236B32
:1051D0003AB9012284F83B221868997A05FA02F25A
:1051E00007E0002284F83B2295421868997A08BFAC
:1051F0000222BDE838409FE738BD10B5A0F5127413
:1052000094F83C22BAB9A36A616A994228D0591C21
:10521000A069A162C35C2069DBB25B0043F4007348
:105220008142A4F83E324FF00A0384F83D3228BF91
:10523000A262012312E094F93D327BB1B4F83E1230
:1052400020464B08A4F83E3201F00101FFF7C1FEF1
:1052500094F83D32013B84F83D3201E084F83C3261
:1052600094F83832002B4ED194F839320133DBB246
:10527000092B84F8393203D12046BDE8104093E66B
:105280000A2B40D194F83B322BB9B4F8403243F0AA
:105290000103A4F840326379D9071CD5B4F8400261
:1052A000820501D4C30705D4B4F844320133A4F80D
:1052B000443210E0E36AC0F347000BB198470AE0BC
:1052C000E3696269D054E369E1680133B3FBF1F249
:1052D00001FB1233E361012284F8382294F83B2267
:1052E0000023012A84F839320DD1A27984F83B32A7
:1052F000236B12F0010F1868997A0CBF022200226A
:10530000BDE8104018E710BD026D70B51588044661
:10531000ADB2A90613D5036B8BB9C36A1BB19088D4
:1053200080B298470BE0E169928840694E1CD2B286
:10533000E6614254E169E268914228BFE3612B06CD
:1053400013D5636AA26A9A42236D0AD0511CA069E0
:10535000A162825C9A802369994206D30023A362EA
:1053600070BDDA6822F08002DA6070BD836A8169FC
:10537000426B1944D160416A994297BF0169CB1AC7
:10538000CB1A536096BF0023536083624FF0000333
:1053900080F84430136888BF816243F001031360D2
:1053A0007047436A8269D154436A02690133934268
:1053B00028BF00234362436B1BB11B68DB0705D486
:1053C000D4E7026DD36843F08003D3607047F0B533
:1053D000046D8279A389467923F4005312F0020FF9
:1053E0004FEA03434FEA13430CBF00214FF400512F
:1053F00012F0040FA38114BF4FF4806E4FF0000E23
:1054000016F0010F8768054614BF04200020B3077B
:10541000238A48BF40F008029BB223F4405343EA7A
:1054200001032382A18948BF90B289B221F4B0510F
:1054300021F00C014EEA010140EA0102A281A38A97
:1054400087B023F440731B041B0CA38201A804F053
:1054500019FB039B049E264A944218BF1E46A3894B
:10546000192272431BB2002BB4BF7E00BE00B2FBF8
:10547000F6F66427B6FBF7F00001010907FB11639C
:10548000A28912B2002AB7BFD9001A013231B1FB8A
:10549000F7F2A7BF3232B2FBF7F302F00702104374
:1054A000A8BF03F00F03AA79A8BF184380B212F077
:1054B000010F20812B6D06D00E498B4202BF0420C4
:1054C00001F54841086112F0080F9A8A0BBF22F0DB
:1054D000080292B2120442F0080208BF120C9A822B
:1054E0009A8992B242F400529A8107B0F0BD00BF8F
:1054F0000038014000440040417168E7816066E780
:105500002DE9F04F1E464FF414734343564D85B0BA
:1055100005F11C0480469146E718A24610B92B44B9
:10552000524A03E0012805D1514A2B44DA64103273
:10553000C3F850214FF4147303FB08F34D48EC18E3
:105540000AEB030203F59C7334325344E061A16417
:105550002263636300224FF480714FF0010BD4F893
:1055600050310320A162E263A263E16262642264BB
:1055700084F8582284F854B284F85522A4F85E22A4
:10558000A4F86022C4F8249084F8210084F82260F2
:1055900084F8628258681B8904F5A6724FF0020CE9
:1055A000ADF80C3003A9102301928DF80E308DF860
:1055B0000FC0CDF800C003F010FDE36CDDF800C0B3
:1055C000597B58681B898DF80E1003A9ADF80C3073
:1055D0008DF80FC003F001FD59463846FFF7F9FC7E
:1055E000322000F066FC244B019A1B68D2F804B00C
:1055F0001A46B2FBF9F1B1F5803F03D3012AF8D97D
:105600005208F6E71D4A4FF41474B3FBF2F204FBA0
:1056100008F8584689B2D2B207F066FA05EB0809D5
:10562000174B08F512780AEB08040022C9F8643217
:105630005846214607F096F9D9F84C5016F0010F5C
:105640000CBF022200222868A97AFFF775FD0D4BD6
:105650002846C9F86832211D002207F083F9384630
:1056600005B0BDE8F08F00BF6C170020046A010888
:10567000246A0108985C01084C00002040420F0099
:10568000FB5100085F51000803460A4690F84602A5
:10569000D96A9B7934E71FB50123ADF808300023A0
:1056A000ADF80C30ADF80A30084BADF804101B789B
:1056B00001A9012B08BF0323ADF8062008BFADF8F0
:1056C0000C3004F03AFA05B05DF804FB4402002007
:1056D00038B510F80E2C044650F8043C52B901229B
:1056E00000F80E2C20F80C1C997A18680222BDE8EC
:1056F0003840D0E730F80C2C20F80A1C891A89B2FF
:1057000020F8081C074A10F80F0C002522F810108A
:1057100004F80E5C1868997A2A46FFF7BCFF04F873
:10572000065C38BD6C170020044B53F820301BB1C9
:1057300007289CBF1B681980704700BFA00300208A
:1057400038B505460024064A13195B681BB1A256FA
:10575000AA4200D198470834182CF4D138BD00BFB4
:10576000281C0020034B4FF4805208B11A61704787
:105770005A61704700080140034B4FF4805208B152
:105780005A6170471A6170470008014038B500241B
:10579000144D6059254406F0DFFB696811B11248C9
:1057A00002F0E4F8A96811B1104802F0DFF81048DF
:1057B000103406F0D1FBB4F5807FE9D10D4802F03A
:1057C000D5F800240C4B214653F824200B48013413
:1057D00002F0CCF8092CF5D1BDE83840044806F0B9
:1057E000BBBB00BFB45C01084E6E0108546E0108DB
:1057F000797801085A6E0108B45D0108676E0108E6
:105800002DE9F04105460BF086FD2C4B04469E68C1
:1058100088B92B4806F0A0FB2A4B53F8241041B15D
:105820000123A340334202D0274802F09FF80134FD
:10583000F2E7264821E02846254922460BF074FD70
:1058400058B9244806F088FB234C54F8041F00295B
:10585000EFD01D4802F08AF8F7E72B7800262D2BB1
:1058600003BF013504F1FF344FF001084FF0000889
:10587000144B53F8267027B91848BDE8F04106F0DC
:105880006BBB2846394622460BF04EFD98B90120E5
:10589000B040B8F1000F03D002F006F9104802E062
:1058A00002F00AF90F4806F057FB3946BDE8F0410F
:1058B0000D4802F05BB80136DAE700BF580C002053
:1058C000756E0108E05D01087F6E010879780108B6
:1058D000836E0108886E0108DC5D0108946E010882
:1058E000A36E0108AC6E0108B46E0108F0B5027831
:1058F00087B08AB9534C04F1280594F8EE210023AF
:10590000514950B25956814277D00C333C2BF7D1D4
:105910000834AC42F1D192E0002404940594461C72
:105920000CF034F9494BC0B29A69234602EBC30428
:10593000A178884202D1023406D103E00133052B5D
:10594000F4D10024254602E08DF8100001253046F0
:1059500020210BF0D2FC064638B1013630460CF05F
:1059600015F90135ADF81200EDB2002730462021BF
:105970000BF0C3FCA0B3461C30460CF007F9002224
:105980003349D3B251F82210814203D001320B2A9D
:10599000F6D100232F4A02EB8302D2F80021824283
:1059A0001ED1022F0FD0032F10D0012F05D05A1E69
:1059B000092A12D88DF814300DE0DA1E052A0CD809
:1059C0008DF8153007E08DF8173004E0DA1E052A4F
:1059D00003D88DF816300135EDB20137042FC5D14B
:1059E000052D05D81C4807B0BDE8F04006F0B4BA54
:1059F00004AB03CB2060616021E094F8F301154B08
:105A000094F8F26103EB8000D0F80001B4F8F021C3
:105A1000009094F8F50103EB860603EB8000D0F8C4
:105A20000001019094F8F40103EB8003D3F80031F6
:105A30000A480293D6F8003101F098FF68E707B0F2
:105A4000F0BD00BF580C0020282E0020281C00208C
:105A5000B45D0108B45C0108BA6E0108C86E0108A3
:105A60002DE9F74F814601F1030B00F10A0A0024EA
:105A7000464B022C4FEA44021BF8015F00920CBF18
:105A8000B3F9042033F9142005F11B050CBF55436D
:105A9000554300993E4A08BF6B11525E18BF2B1147
:105AA000042592FBF5F599F851205D1B394B62B145
:105AB00003F11C010C2606FB04111B6C002001F0F5
:105AC000A5FE08F0C1FC074600E01746324B4FEA3E
:105AD000840819882F4B01FB05F603F1440E5EF88C
